{"abi":[{"constant":false,"inputs":[{"internalType":"address","name":"newImplementation","type":"address"}],"name":"upgradeTo","outputs":[],"payable":false,"stateMutability":"nonpayable","type":"function"},{"constant":true,"inputs":[],"name":"allowances","outputs":[{"internalType":"contract AllowanceSheet","name":"","type":"address"}],"payable":false,"stateMutability":"view","type":"function"},{"constant":true,"inputs":[],"name":"implementation","outputs":[{"internalType":"address","name":"","type":"address"}],"payable":false,"stateMutability":"view","type":"function"},{"constant":true,"inputs":[],"name":"balances","outputs":[{"internalType":"contract BalanceSheet","name":"","type":"address"}],"payable":false,"stateMutability":"view","type":"function"},{"constant":false,"inputs":[],"name":"claimBalanceOwnership","outputs":[],"payable":false,"stateMutability":"nonpayable","type":"function"},{"constant":true,"inputs":[],"name":"owner","outputs":[{"internalType":"address","name":"","type":"address"}],"payable":false,"stateMutability":"view","type":"function"},{"constant":false,"inputs":[],"name":"claimAllowanceOwnership","outputs":[],"payable":false,"stateMutability":"nonpayable","type":"function"},{"constant":false,"inputs":[],"name":"claimOwnerShip","outputs":[],"payable":false,"stateMutability":"nonpayable","type":"function"},{"constant":true,"inputs":[],"name":"pendingOwner","outputs":[{"internalType":"address","name":"","type":"address"}],"payable":false,"stateMutability":"view","type":"function"},{"constant":false,"inputs":[{"internalType":"address","name":"_newOwner","type":"address"}],"name":"transferOwnership","outputs":[],"payable":false,"stateMutability":"nonpayable","type":"function"},{"inputs":[{"internalType":"address","name":"_implementation","type":"address"},{"internalType":"address","name":"_balances","type":"address"},{"internalType":"address","name":"_allowances","type":"address"}],"payable":false,"stateMutability":"nonpayable","type":"constructor"},{"payable":true,"stateMutability":"payable","type":"fallback"},{"anonymous":false,"inputs":[{"indexed":true,"internalType":"address","name":"previousOwner","type":"address"},{"indexed":true,"internalType":"address","name":"newOwner","type":"address"}],"name":"OwnershipTransferred","type":"event"},{"anonymous":false,"inputs":[{"indexed":false,"internalType":"address","name":"implementation","type":"address"}],"name":"Upgraded","type":"event"}],"devdoc":{"methods":{"claimAllowanceOwnership()":{"details":"claim ownership of balance shet passed into ctor."},"claimBalanceOwnership()":{"details":"claim ownership of balance sheet passed into ctor."},"claimOwnerShip()":{"details":"Allows the pendingOwner address to finalize the transfer."},"transferOwnership(address)":{"details":"Allows the current owner to transfer control of the contract to a newOwner.","params":{"_newOwner":"The address to transfer ownership to."}},"upgradeTo(address)":{"details":"Upgrade the backing implementation of the proxy. Only the admin can call this function.","params":{"newImplementation":"Address of the new implementation."}}},"title":"TokenProxy"},"evm":{"assembly":"    /* \"TokenProxy.sol\":214:901  contract TokenProxy is UpgradeabilityProxy, TokenStorage, Ownable {... */\n  mstore(0x40, 0x80)\n    /* \"TokenProxy.sol\":284:452  constructor(address _implementation, address _balances, address _allowances)... */\n  callvalue\n    /* \"--CODEGEN--\":8:17   */\n  dup1\n    /* \"--CODEGEN--\":5:7   */\n  iszero\n  tag_1\n  jumpi\n    /* \"--CODEGEN--\":30:31   */\n  0x00\n    /* \"--CODEGEN--\":27:28   */\n  dup1\n    /* \"--CODEGEN--\":20:32   */\n  revert\n    /* \"--CODEGEN--\":5:7   */\ntag_1:\n    /* \"TokenProxy.sol\":284:452  constructor(address _implementation, address _balances, address _allowances)... */\n  pop\n  mload(0x40)\n  sub(codesize, bytecodeSize)\n  dup1\n  bytecodeSize\n  dup4\n  codecopy\n  dup2\n  dup2\n  add\n  0x40\n  mstore\n    /* \"--CODEGEN--\":13:15   */\n  0x60\n    /* \"--CODEGEN--\":8:11   */\n  dup2\n    /* \"--CODEGEN--\":5:16   */\n  lt\n    /* \"--CODEGEN--\":2:4   */\n  iszero\n  tag_2\n  jumpi\n    /* \"--CODEGEN--\":29:30   */\n  0x00\n    /* \"--CODEGEN--\":26:27   */\n  dup1\n    /* \"--CODEGEN--\":19:31   */\n  revert\n    /* \"--CODEGEN--\":2:4   */\ntag_2:\n    /* \"TokenProxy.sol\":284:452  constructor(address _implementation, address _balances, address _allowances)... */\n  dup2\n  add\n  swap1\n  dup1\n  dup1\n  mload\n  swap1\n  0x20\n  add\n  swap1\n  swap3\n  swap2\n  swap1\n  dup1\n  mload\n  swap1\n  0x20\n  add\n  swap1\n  swap3\n  swap2\n  swap1\n  dup1\n  mload\n  swap1\n  0x20\n  add\n  swap1\n  swap3\n  swap2\n  swap1\n  pop\n  pop\n  pop\n    /* \"TokenProxy.sol\":419:428  _balances */\n  dup2\n    /* \"TokenProxy.sol\":430:441  _allowances */\n  dup2\n    /* \"TokenProxy.sol\":385:400  _implementation */\n  dup5\n    /* \"proxy/UpgradeabilityProxy.sol\":1024:1072   */\n  mload(0x40)\n  dup1\n  dup1\n  data_7050c9e0f4ca769c69bd3a8ef740bc37934f8e2c036e5a723fd8ee048ed3f8c3\n  0x23\n  swap2\n  codecopy\n  0x23\n  add\n  swap1\n  pop\n  mload(0x40)\n  dup1\n  swap2\n  sub\n  swap1\n  keccak256\n    /* \"proxy/UpgradeabilityProxy.sol\":760:826   */\n  0x7050c9e0f4ca769c69bd3a8ef740bc37934f8e2c036e5a723fd8ee048ed3f8c3\n    /* \"proxy/UpgradeabilityProxy.sol\":1001:1020   */\n  0x00\n  shl\n    /* \"proxy/UpgradeabilityProxy.sol\":1001:1072   */\n  eq\n    /* \"proxy/UpgradeabilityProxy.sol\":994:1073   */\n  tag_8\n  jumpi\n  invalid\ntag_8:\n    /* \"proxy/UpgradeabilityProxy.sol\":1084:1119   */\n  tag_9\n    /* \"proxy/UpgradeabilityProxy.sol\":1103:1118   */\n  dup2\n    /* \"proxy/UpgradeabilityProxy.sol\":1084:1102   */\n  shl(0x20, tag_10)\n    /* \"proxy/UpgradeabilityProxy.sol\":1084:1119   */\n  0x20\n  shr\n  jump\t// in\ntag_9:\n    /* \"proxy/UpgradeabilityProxy.sol\":944:1124   */\n  pop\n    /* \"TokenStorage.sol\":474:483   */\n  dup2\n    /* \"TokenStorage.sol\":450:458   */\n  0x00\n  dup1\n    /* \"TokenStorage.sol\":450:484   */\n  0x0100\n  exp\n  dup2\n  sload\n  dup2\n  0xffffffffffffffffffffffffffffffffffffffff\n  mul\n  not\n  and\n  swap1\n  dup4\n  0xffffffffffffffffffffffffffffffffffffffff\n  and\n  mul\n  or\n  swap1\n  sstore\n  pop\n    /* \"TokenStorage.sol\":522:533   */\n  dup1\n    /* \"TokenStorage.sol\":494:504   */\n  0x01\n  0x00\n    /* \"TokenStorage.sol\":494:534   */\n  0x0100\n  exp\n  dup2\n  sload\n  dup2\n  0xffffffffffffffffffffffffffffffffffffffff\n  mul\n  not\n  and\n  swap1\n  dup4\n  0xffffffffffffffffffffffffffffffffffffffff\n  and\n  mul\n  or\n  swap1\n  sstore\n  pop\n    /* \"TokenStorage.sol\":381:541   */\n  pop\n  pop\n    /* \"helpers/Ownable.sol\":778:788   */\n  caller\n    /* \"helpers/Ownable.sol\":770:775   */\n  0x02\n  0x00\n    /* \"helpers/Ownable.sol\":770:788   */\n  0x0100\n  exp\n  dup2\n  sload\n  dup2\n  0xffffffffffffffffffffffffffffffffffffffff\n  mul\n  not\n  and\n  swap1\n  dup4\n  0xffffffffffffffffffffffffffffffffffffffff\n  and\n  mul\n  or\n  swap1\n  sstore\n  pop\n    /* \"helpers/Ownable.sol\":817:818   */\n  0x00\n    /* \"helpers/Ownable.sol\":794:806   */\n  0x03\n  0x00\n    /* \"helpers/Ownable.sol\":794:819   */\n  0x0100\n  exp\n  dup2\n  sload\n  dup2\n  0xffffffffffffffffffffffffffffffffffffffff\n  mul\n  not\n  and\n  swap1\n  dup4\n  0xffffffffffffffffffffffffffffffffffffffff\n  and\n  mul\n  or\n  swap1\n  sstore\n  pop\n    /* \"TokenProxy.sol\":284:452  constructor(address _implementation, address _balances, address _allowances)... */\n  pop\n  pop\n  pop\n    /* \"TokenProxy.sol\":214:901  contract TokenProxy is UpgradeabilityProxy, TokenStorage, Ownable {... */\n  jump(tag_14)\n    /* \"proxy/UpgradeabilityProxy.sol\":1813:2042   */\ntag_10:\n    /* \"proxy/UpgradeabilityProxy.sol\":1890:1927   */\n  tag_16\n    /* \"proxy/UpgradeabilityProxy.sol\":1909:1926   */\n  dup2\n    /* \"proxy/UpgradeabilityProxy.sol\":1890:1908   */\n  or(tag_0_86, shl(0x20, tag_17))\n    /* \"proxy/UpgradeabilityProxy.sol\":1890:1927   */\n  0x20\n  shr\n  jump\t// in\ntag_16:\n    /* \"proxy/UpgradeabilityProxy.sol\":1882:1928   */\n  tag_18\n  jumpi\n  0x00\n  dup1\n  revert\ntag_18:\n    /* \"proxy/UpgradeabilityProxy.sol\":1939:1951   */\n  0x00\n    /* \"proxy/UpgradeabilityProxy.sol\":760:826   */\n  0x7050c9e0f4ca769c69bd3a8ef740bc37934f8e2c036e5a723fd8ee048ed3f8c3\n    /* \"proxy/UpgradeabilityProxy.sol\":1954:1973   */\n  0x00\n  shl\n    /* \"proxy/UpgradeabilityProxy.sol\":1939:1973   */\n  swap1\n  pop\n    /* \"proxy/UpgradeabilityProxy.sol\":2014:2031   */\n  dup2\n    /* \"proxy/UpgradeabilityProxy.sol\":2008:2012   */\n  dup2\n    /* \"proxy/UpgradeabilityProxy.sol\":2001:2032   */\n  sstore\n    /* \"proxy/UpgradeabilityProxy.sol\":1993:2038   */\n  pop\n  pop\n  jump\t// out\n    /* \"libs/Address.sol\":533:1288   */\ntag_17:\n    /* \"libs/Address.sol\":593:597   */\n  0x00\n    /* \"libs/Address.sol\":1014:1030   */\n  dup1\n    /* \"libs/Address.sol\":1036:1055   */\n  0x00\n    /* \"libs/Address.sol\":1058:1124   */\n  0xc5d2460186f7233c927e7db2dcc703c0e500b653ca82273b7bfad8045d85a470\n    /* \"libs/Address.sol\":1036:1124   */\n  0x00\n  shl\n  swap1\n  pop\n    /* \"libs/Address.sol\":1217:1224   */\n  dup4\n    /* \"libs/Address.sol\":1205:1225   */\n  extcodehash\n    /* \"libs/Address.sol\":1193:1225   */\n  swap2\n  pop\n    /* \"libs/Address.sol\":1252:1255   */\n  0x00\n    /* \"libs/Address.sol\":1240:1255   */\n  dup1\n  shl\n    /* \"libs/Address.sol\":1240:1248   */\n  dup3\n    /* \"libs/Address.sol\":1240:1255   */\n  eq\n  iszero\n    /* \"libs/Address.sol\":1240:1282   */\n  dup1\n  iszero\n  tag_20\n  jumpi\n  pop\n    /* \"libs/Address.sol\":1271:1282   */\n  dup1\n    /* \"libs/Address.sol\":1259:1267   */\n  dup3\n    /* \"libs/Address.sol\":1259:1282   */\n  eq\n  iszero\n    /* \"libs/Address.sol\":1240:1282   */\ntag_20:\n    /* \"libs/Address.sol\":1232:1283   */\n  swap3\n  pop\n  pop\n  pop\n    /* \"libs/Address.sol\":533:1288   */\n  swap2\n  swap1\n  pop\n  jump\t// out\n    /* \"TokenProxy.sol\":214:901  contract TokenProxy is UpgradeabilityProxy, TokenStorage, Ownable {... */\ntag_14:\n  dataSize(sub_0)\n  dup1\n  dataOffset(sub_0)\n  0x00\n  codecopy\n  0x00\n  return\nstop\ndata_7050c9e0f4ca769c69bd3a8ef740bc37934f8e2c036e5a723fd8ee048ed3f8c3 6f72672e7a657070656c696e6f732e70726f78792e696d706c656d656e746174696f6e\n\nsub_0: assembly {\n        /* \"TokenProxy.sol\":214:901  contract TokenProxy is UpgradeabilityProxy, TokenStorage, Ownable {... */\n      mstore(0x40, 0x80)\n      jumpi(tag_1, lt(calldatasize, 0x04))\n      shr(0xe0, calldataload(0x00))\n      dup1\n      0x8da5cb5b\n      gt\n      tag_12\n      jumpi\n      dup1\n      0x8da5cb5b\n      eq\n      tag_7\n      jumpi\n      dup1\n      0x9b2bdc20\n      eq\n      tag_8\n      jumpi\n      dup1\n      0xd9dd3d36\n      eq\n      tag_9\n      jumpi\n      dup1\n      0xe30c3978\n      eq\n      tag_10\n      jumpi\n      dup1\n      0xf2fde38b\n      eq\n      tag_11\n      jumpi\n      jump(tag_1)\n    tag_12:\n      dup1\n      0x3659cfe6\n      eq\n      tag_2\n      jumpi\n      dup1\n      0x3ed10b92\n      eq\n      tag_3\n      jumpi\n      dup1\n      0x5c60da1b\n      eq\n      tag_4\n      jumpi\n      dup1\n      0x7bb98a68\n      eq\n      tag_5\n      jumpi\n      dup1\n      0x8955ed7e\n      eq\n      tag_6\n      jumpi\n    tag_1:\n        /* \"proxy/Proxy.sol\":461:472   */\n      tag_15\n        /* \"proxy/Proxy.sol\":461:470   */\n      tag_16\n        /* \"proxy/Proxy.sol\":461:472   */\n      jump\t// in\n    tag_15:\n        /* \"TokenProxy.sol\":214:901  contract TokenProxy is UpgradeabilityProxy, TokenStorage, Ownable {... */\n      stop\n        /* \"TokenProxy.sol\":642:745  function upgradeTo(address newImplementation) public onlyOwner {... */\n    tag_2:\n      callvalue\n        /* \"--CODEGEN--\":8:17   */\n      dup1\n        /* \"--CODEGEN--\":5:7   */\n      iszero\n      tag_17\n      jumpi\n        /* \"--CODEGEN--\":30:31   */\n      0x00\n        /* \"--CODEGEN--\":27:28   */\n      dup1\n        /* \"--CODEGEN--\":20:32   */\n      revert\n        /* \"--CODEGEN--\":5:7   */\n    tag_17:\n        /* \"TokenProxy.sol\":642:745  function upgradeTo(address newImplementation) public onlyOwner {... */\n      pop\n      tag_18\n      0x04\n      dup1\n      calldatasize\n      sub\n        /* \"--CODEGEN--\":13:15   */\n      0x20\n        /* \"--CODEGEN--\":8:11   */\n      dup2\n        /* \"--CODEGEN--\":5:16   */\n      lt\n        /* \"--CODEGEN--\":2:4   */\n      iszero\n      tag_19\n      jumpi\n        /* \"--CODEGEN--\":29:30   */\n      0x00\n        /* \"--CODEGEN--\":26:27   */\n      dup1\n        /* \"--CODEGEN--\":19:31   */\n      revert\n        /* \"--CODEGEN--\":2:4   */\n    tag_19:\n        /* \"TokenProxy.sol\":642:745  function upgradeTo(address newImplementation) public onlyOwner {... */\n      dup2\n      add\n      swap1\n      dup1\n      dup1\n      calldataload\n      0xffffffffffffffffffffffffffffffffffffffff\n      and\n      swap1\n      0x20\n      add\n      swap1\n      swap3\n      swap2\n      swap1\n      pop\n      pop\n      pop\n      tag_20\n      jump\t// in\n    tag_18:\n      stop\n        /* \"TokenStorage.sol\":270:302   */\n    tag_3:\n      callvalue\n        /* \"--CODEGEN--\":8:17   */\n      dup1\n        /* \"--CODEGEN--\":5:7   */\n      iszero\n      tag_21\n      jumpi\n        /* \"--CODEGEN--\":30:31   */\n      0x00\n        /* \"--CODEGEN--\":27:28   */\n      dup1\n        /* \"--CODEGEN--\":20:32   */\n      revert\n        /* \"--CODEGEN--\":5:7   */\n    tag_21:\n        /* \"TokenStorage.sol\":270:302   */\n      pop\n      tag_22\n      tag_23\n      jump\t// in\n    tag_22:\n      mload(0x40)\n      dup1\n      dup3\n      0xffffffffffffffffffffffffffffffffffffffff\n      and\n      0xffffffffffffffffffffffffffffffffffffffff\n      and\n      dup2\n      mstore\n      0x20\n      add\n      swap2\n      pop\n      pop\n      mload(0x40)\n      dup1\n      swap2\n      sub\n      swap1\n      return\n        /* \"TokenProxy.sol\":808:899  function implementation() public view returns (address) {... */\n    tag_4:\n      callvalue\n        /* \"--CODEGEN--\":8:17   */\n      dup1\n        /* \"--CODEGEN--\":5:7   */\n      iszero\n      tag_24\n      jumpi\n        /* \"--CODEGEN--\":30:31   */\n      0x00\n        /* \"--CODEGEN--\":27:28   */\n      dup1\n        /* \"--CODEGEN--\":20:32   */\n      revert\n        /* \"--CODEGEN--\":5:7   */\n    tag_24:\n        /* \"TokenProxy.sol\":808:899  function implementation() public view returns (address) {... */\n      pop\n      tag_25\n      tag_26\n      jump\t// in\n    tag_25:\n      mload(0x40)\n      dup1\n      dup3\n      0xffffffffffffffffffffffffffffffffffffffff\n      and\n      0xffffffffffffffffffffffffffffffffffffffff\n      and\n      dup2\n      mstore\n      0x20\n      add\n      swap2\n      pop\n      pop\n      mload(0x40)\n      dup1\n      swap2\n      sub\n      swap1\n      return\n        /* \"TokenStorage.sol\":236:264   */\n    tag_5:\n      callvalue\n        /* \"--CODEGEN--\":8:17   */\n      dup1\n        /* \"--CODEGEN--\":5:7   */\n      iszero\n      tag_27\n      jumpi\n        /* \"--CODEGEN--\":30:31   */\n      0x00\n        /* \"--CODEGEN--\":27:28   */\n      dup1\n        /* \"--CODEGEN--\":20:32   */\n      revert\n        /* \"--CODEGEN--\":5:7   */\n    tag_27:\n        /* \"TokenStorage.sol\":236:264   */\n      pop\n      tag_28\n      tag_29\n      jump\t// in\n    tag_28:\n      mload(0x40)\n      dup1\n      dup3\n      0xffffffffffffffffffffffffffffffffffffffff\n      and\n      0xffffffffffffffffffffffffffffffffffffffff\n      and\n      dup2\n      mstore\n      0x20\n      add\n      swap2\n      pop\n      pop\n      mload(0x40)\n      dup1\n      swap2\n      sub\n      swap1\n      return\n        /* \"TokenStorage.sol\":625:707   */\n    tag_6:\n      callvalue\n        /* \"--CODEGEN--\":8:17   */\n      dup1\n        /* \"--CODEGEN--\":5:7   */\n      iszero\n      tag_30\n      jumpi\n        /* \"--CODEGEN--\":30:31   */\n      0x00\n        /* \"--CODEGEN--\":27:28   */\n      dup1\n        /* \"--CODEGEN--\":20:32   */\n      revert\n        /* \"--CODEGEN--\":5:7   */\n    tag_30:\n        /* \"TokenStorage.sol\":625:707   */\n      pop\n      tag_31\n      tag_32\n      jump\t// in\n    tag_31:\n      stop\n        /* \"helpers/Ownable.sol\":487:507   */\n    tag_7:\n      callvalue\n        /* \"--CODEGEN--\":8:17   */\n      dup1\n        /* \"--CODEGEN--\":5:7   */\n      iszero\n      tag_33\n      jumpi\n        /* \"--CODEGEN--\":30:31   */\n      0x00\n        /* \"--CODEGEN--\":27:28   */\n      dup1\n        /* \"--CODEGEN--\":20:32   */\n      revert\n        /* \"--CODEGEN--\":5:7   */\n    tag_33:\n        /* \"helpers/Ownable.sol\":487:507   */\n      pop\n      tag_34\n      tag_35\n      jump\t// in\n    tag_34:\n      mload(0x40)\n      dup1\n      dup3\n      0xffffffffffffffffffffffffffffffffffffffff\n      and\n      0xffffffffffffffffffffffffffffffffffffffff\n      and\n      dup2\n      mstore\n      0x20\n      add\n      swap2\n      pop\n      pop\n      mload(0x40)\n      dup1\n      swap2\n      sub\n      swap1\n      return\n        /* \"TokenStorage.sol\":795:881   */\n    tag_8:\n      callvalue\n        /* \"--CODEGEN--\":8:17   */\n      dup1\n        /* \"--CODEGEN--\":5:7   */\n      iszero\n      tag_36\n      jumpi\n        /* \"--CODEGEN--\":30:31   */\n      0x00\n        /* \"--CODEGEN--\":27:28   */\n      dup1\n        /* \"--CODEGEN--\":20:32   */\n      revert\n        /* \"--CODEGEN--\":5:7   */\n    tag_36:\n        /* \"TokenStorage.sol\":795:881   */\n      pop\n      tag_37\n      tag_38\n      jump\t// in\n    tag_37:\n      stop\n        /* \"helpers/Ownable.sol\":1520:1684   */\n    tag_9:\n      callvalue\n        /* \"--CODEGEN--\":8:17   */\n      dup1\n        /* \"--CODEGEN--\":5:7   */\n      iszero\n      tag_39\n      jumpi\n        /* \"--CODEGEN--\":30:31   */\n      0x00\n        /* \"--CODEGEN--\":27:28   */\n      dup1\n        /* \"--CODEGEN--\":20:32   */\n      revert\n        /* \"--CODEGEN--\":5:7   */\n    tag_39:\n        /* \"helpers/Ownable.sol\":1520:1684   */\n      pop\n      tag_40\n      tag_41\n      jump\t// in\n    tag_40:\n      stop\n        /* \"helpers/Ownable.sol\":511:538   */\n    tag_10:\n      callvalue\n        /* \"--CODEGEN--\":8:17   */\n      dup1\n        /* \"--CODEGEN--\":5:7   */\n      iszero\n      tag_42\n      jumpi\n        /* \"--CODEGEN--\":30:31   */\n      0x00\n        /* \"--CODEGEN--\":27:28   */\n      dup1\n        /* \"--CODEGEN--\":20:32   */\n      revert\n        /* \"--CODEGEN--\":5:7   */\n    tag_42:\n        /* \"helpers/Ownable.sol\":511:538   */\n      pop\n      tag_43\n      tag_44\n      jump\t// in\n    tag_43:\n      mload(0x40)\n      dup1\n      dup3\n      0xffffffffffffffffffffffffffffffffffffffff\n      and\n      0xffffffffffffffffffffffffffffffffffffffff\n      and\n      dup2\n      mstore\n      0x20\n      add\n      swap2\n      pop\n      pop\n      mload(0x40)\n      dup1\n      swap2\n      sub\n      swap1\n      return\n        /* \"helpers/Ownable.sol\":1300:1436   */\n    tag_11:\n      callvalue\n        /* \"--CODEGEN--\":8:17   */\n      dup1\n        /* \"--CODEGEN--\":5:7   */\n      iszero\n      tag_45\n      jumpi\n        /* \"--CODEGEN--\":30:31   */\n      0x00\n        /* \"--CODEGEN--\":27:28   */\n      dup1\n        /* \"--CODEGEN--\":20:32   */\n      revert\n        /* \"--CODEGEN--\":5:7   */\n    tag_45:\n        /* \"helpers/Ownable.sol\":1300:1436   */\n      pop\n      tag_46\n      0x04\n      dup1\n      calldatasize\n      sub\n        /* \"--CODEGEN--\":13:15   */\n      0x20\n        /* \"--CODEGEN--\":8:11   */\n      dup2\n        /* \"--CODEGEN--\":5:16   */\n      lt\n        /* \"--CODEGEN--\":2:4   */\n      iszero\n      tag_47\n      jumpi\n        /* \"--CODEGEN--\":29:30   */\n      0x00\n        /* \"--CODEGEN--\":26:27   */\n      dup1\n        /* \"--CODEGEN--\":19:31   */\n      revert\n        /* \"--CODEGEN--\":2:4   */\n    tag_47:\n        /* \"helpers/Ownable.sol\":1300:1436   */\n      dup2\n      add\n      swap1\n      dup1\n      dup1\n      calldataload\n      0xffffffffffffffffffffffffffffffffffffffff\n      and\n      swap1\n      0x20\n      add\n      swap1\n      swap3\n      swap2\n      swap1\n      pop\n      pop\n      pop\n      tag_48\n      jump\t// in\n    tag_46:\n      stop\n        /* \"proxy/Proxy.sol\":1970:2060   */\n    tag_16:\n        /* \"proxy/Proxy.sol\":2006:2021   */\n      tag_50\n        /* \"proxy/Proxy.sol\":2006:2019   */\n      tag_51\n        /* \"proxy/Proxy.sol\":2006:2021   */\n      jump\t// in\n    tag_50:\n        /* \"proxy/Proxy.sol\":2027:2055   */\n      tag_52\n        /* \"proxy/Proxy.sol\":2037:2054   */\n      tag_53\n        /* \"proxy/Proxy.sol\":2037:2052   */\n      tag_54\n        /* \"proxy/Proxy.sol\":2037:2054   */\n      jump\t// in\n    tag_53:\n        /* \"proxy/Proxy.sol\":2027:2036   */\n      tag_55\n        /* \"proxy/Proxy.sol\":2027:2055   */\n      jump\t// in\n    tag_52:\n        /* \"proxy/Proxy.sol\":1970:2060   */\n      jump\t// out\n        /* \"TokenProxy.sol\":642:745  function upgradeTo(address newImplementation) public onlyOwner {... */\n    tag_20:\n        /* \"helpers/Ownable.sol\":955:960   */\n      0x02\n      0x00\n      swap1\n      sload\n      swap1\n      0x0100\n      exp\n      swap1\n      div\n      0xffffffffffffffffffffffffffffffffffffffff\n      and\n        /* \"helpers/Ownable.sol\":941:960   */\n      0xffffffffffffffffffffffffffffffffffffffff\n      and\n        /* \"helpers/Ownable.sol\":941:951   */\n      caller\n        /* \"helpers/Ownable.sol\":941:960   */\n      0xffffffffffffffffffffffffffffffffffffffff\n      and\n      eq\n        /* \"helpers/Ownable.sol\":933:961   */\n      tag_57\n      jumpi\n      0x00\n      dup1\n      revert\n    tag_57:\n        /* \"TokenProxy.sol\":711:740  _upgradeTo(newImplementation) */\n      tag_59\n        /* \"TokenProxy.sol\":722:739  newImplementation */\n      dup2\n        /* \"TokenProxy.sol\":711:721  _upgradeTo */\n      tag_60\n        /* \"TokenProxy.sol\":711:740  _upgradeTo(newImplementation) */\n      jump\t// in\n    tag_59:\n        /* \"TokenProxy.sol\":642:745  function upgradeTo(address newImplementation) public onlyOwner {... */\n      pop\n      jump\t// out\n        /* \"TokenStorage.sol\":270:302   */\n    tag_23:\n      0x01\n      0x00\n      swap1\n      sload\n      swap1\n      0x0100\n      exp\n      swap1\n      div\n      0xffffffffffffffffffffffffffffffffffffffff\n      and\n      dup2\n      jump\t// out\n        /* \"TokenProxy.sol\":808:899  function implementation() public view returns (address) {... */\n    tag_26:\n        /* \"TokenProxy.sol\":855:862  address */\n      0x00\n        /* \"TokenProxy.sol\":877:894  _implementation() */\n      tag_62\n        /* \"TokenProxy.sol\":877:892  _implementation */\n      tag_54\n        /* \"TokenProxy.sol\":877:894  _implementation() */\n      jump\t// in\n    tag_62:\n        /* \"TokenProxy.sol\":870:894  return _implementation() */\n      swap1\n      pop\n        /* \"TokenProxy.sol\":808:899  function implementation() public view returns (address) {... */\n      swap1\n      jump\t// out\n        /* \"TokenStorage.sol\":236:264   */\n    tag_29:\n      0x00\n      dup1\n      swap1\n      sload\n      swap1\n      0x0100\n      exp\n      swap1\n      div\n      0xffffffffffffffffffffffffffffffffffffffff\n      and\n      dup2\n      jump\t// out\n        /* \"TokenStorage.sol\":625:707   */\n    tag_32:\n        /* \"TokenStorage.sol\":675:683   */\n      0x00\n      dup1\n      swap1\n      sload\n      swap1\n      0x0100\n      exp\n      swap1\n      div\n      0xffffffffffffffffffffffffffffffffffffffff\n      and\n        /* \"TokenStorage.sol\":675:698   */\n      0xffffffffffffffffffffffffffffffffffffffff\n      and\n      0xd9dd3d36\n        /* \"TokenStorage.sol\":675:700   */\n      mload(0x40)\n      dup2\n      0xffffffff\n      and\n      0xe0\n      shl\n      dup2\n      mstore\n      0x04\n      add\n      0x00\n      mload(0x40)\n      dup1\n      dup4\n      sub\n      dup2\n      0x00\n      dup8\n      dup1\n      extcodesize\n      iszero\n        /* \"--CODEGEN--\":8:17   */\n      dup1\n        /* \"--CODEGEN--\":5:7   */\n      iszero\n      tag_64\n      jumpi\n        /* \"--CODEGEN--\":30:31   */\n      0x00\n        /* \"--CODEGEN--\":27:28   */\n      dup1\n        /* \"--CODEGEN--\":20:32   */\n      revert\n        /* \"--CODEGEN--\":5:7   */\n    tag_64:\n        /* \"TokenStorage.sol\":675:700   */\n      pop\n      gas\n      call\n      iszero\n        /* \"--CODEGEN--\":8:17   */\n      dup1\n        /* \"--CODEGEN--\":5:7   */\n      iszero\n      tag_65\n      jumpi\n        /* \"--CODEGEN--\":45:61   */\n      returndatasize\n        /* \"--CODEGEN--\":42:43   */\n      0x00\n        /* \"--CODEGEN--\":39:40   */\n      dup1\n        /* \"--CODEGEN--\":24:62   */\n      returndatacopy\n        /* \"--CODEGEN--\":77:93   */\n      returndatasize\n        /* \"--CODEGEN--\":74:75   */\n      0x00\n        /* \"--CODEGEN--\":67:94   */\n      revert\n        /* \"--CODEGEN--\":5:7   */\n    tag_65:\n        /* \"TokenStorage.sol\":675:700   */\n      pop\n      pop\n      pop\n      pop\n        /* \"TokenStorage.sol\":625:707   */\n      jump\t// out\n        /* \"helpers/Ownable.sol\":487:507   */\n    tag_35:\n      0x02\n      0x00\n      swap1\n      sload\n      swap1\n      0x0100\n      exp\n      swap1\n      div\n      0xffffffffffffffffffffffffffffffffffffffff\n      and\n      dup2\n      jump\t// out\n        /* \"TokenStorage.sol\":795:881   */\n    tag_38:\n        /* \"TokenStorage.sol\":847:857   */\n      0x01\n      0x00\n      swap1\n      sload\n      swap1\n      0x0100\n      exp\n      swap1\n      div\n      0xffffffffffffffffffffffffffffffffffffffff\n      and\n        /* \"TokenStorage.sol\":847:872   */\n      0xffffffffffffffffffffffffffffffffffffffff\n      and\n      0xd9dd3d36\n        /* \"TokenStorage.sol\":847:874   */\n      mload(0x40)\n      dup2\n      0xffffffff\n      and\n      0xe0\n      shl\n      dup2\n      mstore\n      0x04\n      add\n      0x00\n      mload(0x40)\n      dup1\n      dup4\n      sub\n      dup2\n      0x00\n      dup8\n      dup1\n      extcodesize\n      iszero\n        /* \"--CODEGEN--\":8:17   */\n      dup1\n        /* \"--CODEGEN--\":5:7   */\n      iszero\n      tag_67\n      jumpi\n        /* \"--CODEGEN--\":30:31   */\n      0x00\n        /* \"--CODEGEN--\":27:28   */\n      dup1\n        /* \"--CODEGEN--\":20:32   */\n      revert\n        /* \"--CODEGEN--\":5:7   */\n    tag_67:\n        /* \"TokenStorage.sol\":847:874   */\n      pop\n      gas\n      call\n      iszero\n        /* \"--CODEGEN--\":8:17   */\n      dup1\n        /* \"--CODEGEN--\":5:7   */\n      iszero\n      tag_68\n      jumpi\n        /* \"--CODEGEN--\":45:61   */\n      returndatasize\n        /* \"--CODEGEN--\":42:43   */\n      0x00\n        /* \"--CODEGEN--\":39:40   */\n      dup1\n        /* \"--CODEGEN--\":24:62   */\n      returndatacopy\n        /* \"--CODEGEN--\":77:93   */\n      returndatasize\n        /* \"--CODEGEN--\":74:75   */\n      0x00\n        /* \"--CODEGEN--\":67:94   */\n      revert\n        /* \"--CODEGEN--\":5:7   */\n    tag_68:\n        /* \"TokenStorage.sol\":847:874   */\n      pop\n      pop\n      pop\n      pop\n        /* \"TokenStorage.sol\":795:881   */\n      jump\t// out\n        /* \"helpers/Ownable.sol\":1520:1684   */\n    tag_41:\n        /* \"helpers/Ownable.sol\":1111:1123   */\n      0x03\n      0x00\n      swap1\n      sload\n      swap1\n      0x0100\n      exp\n      swap1\n      div\n      0xffffffffffffffffffffffffffffffffffffffff\n      and\n        /* \"helpers/Ownable.sol\":1097:1123   */\n      0xffffffffffffffffffffffffffffffffffffffff\n      and\n        /* \"helpers/Ownable.sol\":1097:1107   */\n      caller\n        /* \"helpers/Ownable.sol\":1097:1123   */\n      0xffffffffffffffffffffffffffffffffffffffff\n      and\n      eq\n        /* \"helpers/Ownable.sol\":1089:1124   */\n      tag_70\n      jumpi\n      0x00\n      dup1\n      revert\n    tag_70:\n        /* \"helpers/Ownable.sol\":1609:1621   */\n      0x03\n      0x00\n      swap1\n      sload\n      swap1\n      0x0100\n      exp\n      swap1\n      div\n      0xffffffffffffffffffffffffffffffffffffffff\n      and\n        /* \"helpers/Ownable.sol\":1581:1622   */\n      0xffffffffffffffffffffffffffffffffffffffff\n      and\n        /* \"helpers/Ownable.sol\":1602:1607   */\n      0x02\n      0x00\n      swap1\n      sload\n      swap1\n      0x0100\n      exp\n      swap1\n      div\n      0xffffffffffffffffffffffffffffffffffffffff\n      and\n        /* \"helpers/Ownable.sol\":1581:1622   */\n      0xffffffffffffffffffffffffffffffffffffffff\n      and\n      0x8be0079c531659141344cd1fd0a4f28419497f9722a3daafe3b4186f6b6457e0\n      mload(0x40)\n      mload(0x40)\n      dup1\n      swap2\n      sub\n      swap1\n      log3\n        /* \"helpers/Ownable.sol\":1636:1648   */\n      0x03\n      0x00\n      swap1\n      sload\n      swap1\n      0x0100\n      exp\n      swap1\n      div\n      0xffffffffffffffffffffffffffffffffffffffff\n      and\n        /* \"helpers/Ownable.sol\":1628:1633   */\n      0x02\n      0x00\n        /* \"helpers/Ownable.sol\":1628:1648   */\n      0x0100\n      exp\n      dup2\n      sload\n      dup2\n      0xffffffffffffffffffffffffffffffffffffffff\n      mul\n      not\n      and\n      swap1\n      dup4\n      0xffffffffffffffffffffffffffffffffffffffff\n      and\n      mul\n      or\n      swap1\n      sstore\n      pop\n        /* \"helpers/Ownable.sol\":1677:1678   */\n      0x00\n        /* \"helpers/Ownable.sol\":1654:1666   */\n      0x03\n      0x00\n        /* \"helpers/Ownable.sol\":1654:1679   */\n      0x0100\n      exp\n      dup2\n      sload\n      dup2\n      0xffffffffffffffffffffffffffffffffffffffff\n      mul\n      not\n      and\n      swap1\n      dup4\n      0xffffffffffffffffffffffffffffffffffffffff\n      and\n      mul\n      or\n      swap1\n      sstore\n      pop\n        /* \"helpers/Ownable.sol\":1520:1684   */\n      jump\t// out\n        /* \"helpers/Ownable.sol\":511:538   */\n    tag_44:\n      0x03\n      0x00\n      swap1\n      sload\n      swap1\n      0x0100\n      exp\n      swap1\n      div\n      0xffffffffffffffffffffffffffffffffffffffff\n      and\n      dup2\n      jump\t// out\n        /* \"helpers/Ownable.sol\":1300:1436   */\n    tag_48:\n        /* \"helpers/Ownable.sol\":955:960   */\n      0x02\n      0x00\n      swap1\n      sload\n      swap1\n      0x0100\n      exp\n      swap1\n      div\n      0xffffffffffffffffffffffffffffffffffffffff\n      and\n        /* \"helpers/Ownable.sol\":941:960   */\n      0xffffffffffffffffffffffffffffffffffffffff\n      and\n        /* \"helpers/Ownable.sol\":941:951   */\n      caller\n        /* \"helpers/Ownable.sol\":941:960   */\n      0xffffffffffffffffffffffffffffffffffffffff\n      and\n      eq\n        /* \"helpers/Ownable.sol\":933:961   */\n      tag_73\n      jumpi\n      0x00\n      dup1\n      revert\n    tag_73:\n        /* \"helpers/Ownable.sol\":1398:1399   */\n      0x00\n        /* \"helpers/Ownable.sol\":1377:1400   */\n      0xffffffffffffffffffffffffffffffffffffffff\n      and\n        /* \"helpers/Ownable.sol\":1377:1386   */\n      dup2\n        /* \"helpers/Ownable.sol\":1377:1400   */\n      0xffffffffffffffffffffffffffffffffffffffff\n      and\n      eq\n      iszero\n        /* \"helpers/Ownable.sol\":1369:1401   */\n      tag_75\n      jumpi\n      0x00\n      dup1\n      revert\n    tag_75:\n        /* \"helpers/Ownable.sol\":1422:1431   */\n      dup1\n        /* \"helpers/Ownable.sol\":1407:1419   */\n      0x03\n      0x00\n        /* \"helpers/Ownable.sol\":1407:1431   */\n      0x0100\n      exp\n      dup2\n      sload\n      dup2\n      0xffffffffffffffffffffffffffffffffffffffff\n      mul\n      not\n      and\n      swap1\n      dup4\n      0xffffffffffffffffffffffffffffffffffffffff\n      and\n      mul\n      or\n      swap1\n      sstore\n      pop\n        /* \"helpers/Ownable.sol\":1300:1436   */\n      pop\n      jump\t// out\n        /* \"proxy/Proxy.sol\":1834:1873   */\n    tag_51:\n      jump\t// out\n        /* \"proxy/UpgradeabilityProxy.sol\":1239:1395   */\n    tag_54:\n        /* \"proxy/UpgradeabilityProxy.sol\":1289:1301   */\n      0x00\n        /* \"proxy/UpgradeabilityProxy.sol\":1309:1321   */\n      dup1\n        /* \"proxy/UpgradeabilityProxy.sol\":760:826   */\n      0x7050c9e0f4ca769c69bd3a8ef740bc37934f8e2c036e5a723fd8ee048ed3f8c3\n        /* \"proxy/UpgradeabilityProxy.sol\":1324:1343   */\n      0x00\n      shl\n        /* \"proxy/UpgradeabilityProxy.sol\":1309:1343   */\n      swap1\n      pop\n        /* \"proxy/UpgradeabilityProxy.sol\":1380:1384   */\n      dup1\n        /* \"proxy/UpgradeabilityProxy.sol\":1374:1385   */\n      sload\n        /* \"proxy/UpgradeabilityProxy.sol\":1366:1385   */\n      swap2\n      pop\n        /* \"proxy/UpgradeabilityProxy.sol\":1358:1391   */\n      pop\n      swap1\n      jump\t// out\n        /* \"proxy/Proxy.sol\":890:1623   */\n    tag_55:\n        /* \"proxy/Proxy.sol\":1186:1198   */\n      calldatasize\n        /* \"proxy/Proxy.sol\":1183:1184   */\n      0x00\n        /* \"proxy/Proxy.sol\":1180:1181   */\n      dup1\n        /* \"proxy/Proxy.sol\":1167:1199   */\n      calldatacopy\n        /* \"proxy/Proxy.sol\":1376:1377   */\n      0x00\n        /* \"proxy/Proxy.sol\":1373:1374   */\n      dup1\n        /* \"proxy/Proxy.sol\":1359:1371   */\n      calldatasize\n        /* \"proxy/Proxy.sol\":1356:1357   */\n      0x00\n        /* \"proxy/Proxy.sol\":1340:1354   */\n      dup5\n        /* \"proxy/Proxy.sol\":1335:1338   */\n      gas\n        /* \"proxy/Proxy.sol\":1322:1378   */\n      delegatecall\n        /* \"proxy/Proxy.sol\":1442:1456   */\n      returndatasize\n        /* \"proxy/Proxy.sol\":1439:1440   */\n      0x00\n        /* \"proxy/Proxy.sol\":1436:1437   */\n      dup1\n        /* \"proxy/Proxy.sol\":1421:1457   */\n      returndatacopy\n        /* \"proxy/Proxy.sol\":1478:1484   */\n      dup1\n        /* \"proxy/Proxy.sol\":1538:1539   */\n      0x00\n        /* \"proxy/Proxy.sol\":1533:1569   */\n      dup2\n      eq\n      tag_80\n      jumpi\n        /* \"proxy/Proxy.sol\":1596:1610   */\n      returndatasize\n        /* \"proxy/Proxy.sol\":1593:1594   */\n      0x00\n        /* \"proxy/Proxy.sol\":1586:1611   */\n      return\n        /* \"proxy/Proxy.sol\":1533:1569   */\n    tag_80:\n        /* \"proxy/Proxy.sol\":1552:1566   */\n      returndatasize\n        /* \"proxy/Proxy.sol\":1549:1550   */\n      0x00\n        /* \"proxy/Proxy.sol\":1542:1567   */\n      revert\n        /* \"proxy/UpgradeabilityProxy.sol\":1532:1674   */\n    tag_60:\n        /* \"proxy/UpgradeabilityProxy.sol\":1594:1631   */\n      tag_82\n        /* \"proxy/UpgradeabilityProxy.sol\":1613:1630   */\n      dup2\n        /* \"proxy/UpgradeabilityProxy.sol\":1594:1612   */\n      tag_83\n        /* \"proxy/UpgradeabilityProxy.sol\":1594:1631   */\n      jump\t// in\n    tag_82:\n        /* \"proxy/UpgradeabilityProxy.sol\":1642:1669   */\n      0xbc7cd75a20ee27fd9adebab32041f755214dbc6bffa90cc0225b39da2e5c2d3b\n        /* \"proxy/UpgradeabilityProxy.sol\":1651:1668   */\n      dup2\n        /* \"proxy/UpgradeabilityProxy.sol\":1642:1669   */\n      mload(0x40)\n      dup1\n      dup3\n      0xffffffffffffffffffffffffffffffffffffffff\n      and\n      0xffffffffffffffffffffffffffffffffffffffff\n      and\n      dup2\n      mstore\n      0x20\n      add\n      swap2\n      pop\n      pop\n      mload(0x40)\n      dup1\n      swap2\n      sub\n      swap1\n      log1\n        /* \"proxy/UpgradeabilityProxy.sol\":1532:1674   */\n      pop\n      jump\t// out\n        /* \"proxy/UpgradeabilityProxy.sol\":1813:2042   */\n    tag_83:\n        /* \"proxy/UpgradeabilityProxy.sol\":1890:1927   */\n      tag_85\n        /* \"proxy/UpgradeabilityProxy.sol\":1909:1926   */\n      dup2\n        /* \"proxy/UpgradeabilityProxy.sol\":1890:1908   */\n      tag_86\n        /* \"proxy/UpgradeabilityProxy.sol\":1890:1927   */\n      jump\t// in\n    tag_85:\n        /* \"proxy/UpgradeabilityProxy.sol\":1882:1928   */\n      tag_87\n      jumpi\n      0x00\n      dup1\n      revert\n    tag_87:\n        /* \"proxy/UpgradeabilityProxy.sol\":1939:1951   */\n      0x00\n        /* \"proxy/UpgradeabilityProxy.sol\":760:826   */\n      0x7050c9e0f4ca769c69bd3a8ef740bc37934f8e2c036e5a723fd8ee048ed3f8c3\n        /* \"proxy/UpgradeabilityProxy.sol\":1954:1973   */\n      0x00\n      shl\n        /* \"proxy/UpgradeabilityProxy.sol\":1939:1973   */\n      swap1\n      pop\n        /* \"proxy/UpgradeabilityProxy.sol\":2014:2031   */\n      dup2\n        /* \"proxy/UpgradeabilityProxy.sol\":2008:2012   */\n      dup2\n        /* \"proxy/UpgradeabilityProxy.sol\":2001:2032   */\n      sstore\n        /* \"proxy/UpgradeabilityProxy.sol\":1993:2038   */\n      pop\n      pop\n      jump\t// out\n        /* \"libs/Address.sol\":533:1288   */\n    tag_86:\n        /* \"libs/Address.sol\":593:597   */\n      0x00\n        /* \"libs/Address.sol\":1014:1030   */\n      dup1\n        /* \"libs/Address.sol\":1036:1055   */\n      0x00\n        /* \"libs/Address.sol\":1058:1124   */\n      0xc5d2460186f7233c927e7db2dcc703c0e500b653ca82273b7bfad8045d85a470\n        /* \"libs/Address.sol\":1036:1124   */\n      0x00\n      shl\n      swap1\n      pop\n        /* \"libs/Address.sol\":1217:1224   */\n      dup4\n        /* \"libs/Address.sol\":1205:1225   */\n      extcodehash\n        /* \"libs/Address.sol\":1193:1225   */\n      swap2\n      pop\n        /* \"libs/Address.sol\":1252:1255   */\n      0x00\n        /* \"libs/Address.sol\":1240:1255   */\n      dup1\n      shl\n        /* \"libs/Address.sol\":1240:1248   */\n      dup3\n        /* \"libs/Address.sol\":1240:1255   */\n      eq\n      iszero\n        /* \"libs/Address.sol\":1240:1282   */\n      dup1\n      iszero\n      tag_89\n      jumpi\n      pop\n        /* \"libs/Address.sol\":1271:1282   */\n      dup1\n        /* \"libs/Address.sol\":1259:1267   */\n      dup3\n        /* \"libs/Address.sol\":1259:1282   */\n      eq\n      iszero\n        /* \"libs/Address.sol\":1240:1282   */\n    tag_89:\n        /* \"libs/Address.sol\":1232:1283   */\n      swap3\n      pop\n      pop\n      pop\n        /* \"libs/Address.sol\":533:1288   */\n      swap2\n      swap1\n      pop\n      jump\t// out\n\n    auxdata: 0xa265627a7a72315820daa31ac38298939a24abcd97418af22b7733719c5050680793933b16be3627e564736f6c634300050b0032\n}\n","bytecode":{"linkReferences":{},"object":"608060405234801561001057600080fd5b50604051610be7380380610be78339818101604052606081101561003357600080fd5b810190808051906020019092919080519060200190929190805190602001909291905050508181846040518080610bc460239139602301905060405180910390207f7050c9e0f4ca769c69bd3a8ef740bc37934f8e2c036e5a723fd8ee048ed3f8c360001b1461009f57fe5b6100ae816101bd60201b60201c565b50816000806101000a81548173ffffffffffffffffffffffffffffffffffffffff021916908373ffffffffffffffffffffffffffffffffffffffff16021790555080600160006101000a81548173ffffffffffffffffffffffffffffffffffffffff021916908373ffffffffffffffffffffffffffffffffffffffff160217905550505033600260006101000a81548173ffffffffffffffffffffffffffffffffffffffff021916908373ffffffffffffffffffffffffffffffffffffffff1602179055506000600360006101000a81548173ffffffffffffffffffffffffffffffffffffffff021916908373ffffffffffffffffffffffffffffffffffffffff160217905550505050610253565b6101d08161020860201b6108e21760201c565b6101d957600080fd5b60007f7050c9e0f4ca769c69bd3a8ef740bc37934f8e2c036e5a723fd8ee048ed3f8c360001b90508181555050565b60008060007fc5d2460186f7233c927e7db2dcc703c0e500b653ca82273b7bfad8045d85a47060001b9050833f91506000801b821415801561024a5750808214155b92505050919050565b610962806102626000396000f3fe6080604052600436106100915760003560e01c80638da5cb5b116100595780638da5cb5b146102085780639b2bdc201461025f578063d9dd3d3614610276578063e30c39781461028d578063f2fde38b146102e457610091565b80633659cfe61461009b5780633ed10b92146100ec5780635c60da1b146101435780637bb98a681461019a5780638955ed7e146101f1575b610099610335565b005b3480156100a757600080fd5b506100ea600480360360208110156100be57600080fd5b81019080803573ffffffffffffffffffffffffffffffffffffffff16906020019092919050505061034f565b005b3480156100f857600080fd5b506101016103b5565b604051808273ffffffffffffffffffffffffffffffffffffffff1673ffffffffffffffffffffffffffffffffffffffff16815260200191505060405180910390f35b34801561014f57600080fd5b506101586103db565b604051808273ffffffffffffffffffffffffffffffffffffffff1673ffffffffffffffffffffffffffffffffffffffff16815260200191505060405180910390f35b3480156101a657600080fd5b506101af6103ea565b604051808273ffffffffffffffffffffffffffffffffffffffff1673ffffffffffffffffffffffffffffffffffffffff16815260200191505060405180910390f35b3480156101fd57600080fd5b5061020661040f565b005b34801561021457600080fd5b5061021d610492565b604051808273ffffffffffffffffffffffffffffffffffffffff1673ffffffffffffffffffffffffffffffffffffffff16815260200191505060405180910390f35b34801561026b57600080fd5b506102746104b8565b005b34801561028257600080fd5b5061028b61053c565b005b34801561029957600080fd5b506102a26106db565b604051808273ffffffffffffffffffffffffffffffffffffffff1673ffffffffffffffffffffffffffffffffffffffff16815260200191505060405180910390f35b3480156102f057600080fd5b506103336004803603602081101561030757600080fd5b81019080803573ffffffffffffffffffffffffffffffffffffffff169060200190929190505050610701565b005b61033d6107d9565b61034d6103486107db565b61080c565b565b600260009054906101000a900473ffffffffffffffffffffffffffffffffffffffff1673ffffffffffffffffffffffffffffffffffffffff163373ffffffffffffffffffffffffffffffffffffffff16146103a957600080fd5b6103b281610832565b50565b600160009054906101000a900473ffffffffffffffffffffffffffffffffffffffff1681565b60006103e56107db565b905090565b6000809054906101000a900473ffffffffffffffffffffffffffffffffffffffff1681565b6000809054906101000a900473ffffffffffffffffffffffffffffffffffffffff1673ffffffffffffffffffffffffffffffffffffffff1663d9dd3d366040518163ffffffff1660e01b8152600401600060405180830381600087803b15801561047857600080fd5b505af115801561048c573d6000803e3d6000fd5b50505050565b600260009054906101000a900473ffffffffffffffffffffffffffffffffffffffff1681565b600160009054906101000a900473ffffffffffffffffffffffffffffffffffffffff1673ffffffffffffffffffffffffffffffffffffffff1663d9dd3d366040518163ffffffff1660e01b8152600401600060405180830381600087803b15801561052257600080fd5b505af1158015610536573d6000803e3d6000fd5b50505050565b600360009054906101000a900473ffffffffffffffffffffffffffffffffffffffff1673ffffffffffffffffffffffffffffffffffffffff163373ffffffffffffffffffffffffffffffffffffffff161461059657600080fd5b600360009054906101000a900473ffffffffffffffffffffffffffffffffffffffff1673ffffffffffffffffffffffffffffffffffffffff16600260009054906101000a900473ffffffffffffffffffffffffffffffffffffffff1673ffffffffffffffffffffffffffffffffffffffff167f8be0079c531659141344cd1fd0a4f28419497f9722a3daafe3b4186f6b6457e060405160405180910390a3600360009054906101000a900473ffffffffffffffffffffffffffffffffffffffff16600260006101000a81548173ffffffffffffffffffffffffffffffffffffffff021916908373ffffffffffffffffffffffffffffffffffffffff1602179055506000600360006101000a81548173ffffffffffffffffffffffffffffffffffffffff021916908373ffffffffffffffffffffffffffffffffffffffff160217905550565b600360009054906101000a900473ffffffffffffffffffffffffffffffffffffffff1681565b600260009054906101000a900473ffffffffffffffffffffffffffffffffffffffff1673ffffffffffffffffffffffffffffffffffffffff163373ffffffffffffffffffffffffffffffffffffffff161461075b57600080fd5b600073ffffffffffffffffffffffffffffffffffffffff168173ffffffffffffffffffffffffffffffffffffffff16141561079557600080fd5b80600360006101000a81548173ffffffffffffffffffffffffffffffffffffffff021916908373ffffffffffffffffffffffffffffffffffffffff16021790555050565b565b6000807f7050c9e0f4ca769c69bd3a8ef740bc37934f8e2c036e5a723fd8ee048ed3f8c360001b9050805491505090565b3660008037600080366000845af43d6000803e806000811461082d573d6000f35b3d6000fd5b61083b816108a1565b7fbc7cd75a20ee27fd9adebab32041f755214dbc6bffa90cc0225b39da2e5c2d3b81604051808273ffffffffffffffffffffffffffffffffffffffff1673ffffffffffffffffffffffffffffffffffffffff16815260200191505060405180910390a150565b6108aa816108e2565b6108b357600080fd5b60007f7050c9e0f4ca769c69bd3a8ef740bc37934f8e2c036e5a723fd8ee048ed3f8c360001b90508181555050565b60008060007fc5d2460186f7233c927e7db2dcc703c0e500b653ca82273b7bfad8045d85a47060001b9050833f91506000801b82141580156109245750808214155b9250505091905056fea265627a7a72315820daa31ac38298939a24abcd97418af22b7733719c5050680793933b16be3627e564736f6c634300050b00326f72672e7a657070656c696e6f732e70726f78792e696d706c656d656e746174696f6e","opcodes":"PUSH1 0x80 PUSH1 0x40 MSTORE CALLVALUE DUP1 ISZERO PUSH2 0x10 JUMPI PUSH1 0x0 DUP1 REVERT JUMPDEST POP PUSH1 0x40 MLOAD PUSH2 0xBE7 CODESIZE SUB DUP1 PUSH2 0xBE7 DUP4 CODECOPY DUP2 DUP2 ADD PUSH1 0x40 MSTORE PUSH1 0x60 DUP2 LT ISZERO PUSH2 0x33 JUMPI PUSH1 0x0 DUP1 REVERT JUMPDEST DUP2 ADD SWAP1 DUP1 DUP1 MLOAD SWAP1 PUSH1 0x20 ADD SWAP1 SWAP3 SWAP2 SWAP1 DUP1 MLOAD SWAP1 PUSH1 0x20 ADD SWAP1 SWAP3 SWAP2 SWAP1 DUP1 MLOAD SWAP1 PUSH1 0x20 ADD SWAP1 SWAP3 SWAP2 SWAP1 POP POP POP DUP2 DUP2 DUP5 PUSH1 0x40 MLOAD DUP1 DUP1 PUSH2 0xBC4 PUSH1 0x23 SWAP2 CODECOPY PUSH1 0x23 ADD SWAP1 POP PUSH1 0x40 MLOAD DUP1 SWAP2 SUB SWAP1 KECCAK256 PUSH32 0x7050C9E0F4CA769C69BD3A8EF740BC37934F8E2C036E5A723FD8EE048ED3F8C3 PUSH1 0x0 SHL EQ PUSH2 0x9F JUMPI INVALID JUMPDEST PUSH2 0xAE DUP2 PUSH2 0x1BD PUSH1 0x20 SHL PUSH1 0x20 SHR JUMP JUMPDEST POP DUP2 PUSH1 0x0 DUP1 PUSH2 0x100 EXP DUP2 SLOAD DUP2 PUSH20 0xFFFFFFFFFFFFFFFFFFFFFFFFFFFFFFFFFFFFFFFF MUL NOT AND SWAP1 DUP4 PUSH20 0xFFFFFFFFFFFFFFFFFFFFFFFFFFFFFFFFFFFFFFFF AND MUL OR SWAP1 SSTORE POP DUP1 PUSH1 0x1 PUSH1 0x0 PUSH2 0x100 EXP DUP2 SLOAD DUP2 PUSH20 0xFFFFFFFFFFFFFFFFFFFFFFFFFFFFFFFFFFFFFFFF MUL NOT AND SWAP1 DUP4 PUSH20 0xFFFFFFFFFFFFFFFFFFFFFFFFFFFFFFFFFFFFFFFF AND MUL OR SWAP1 SSTORE POP POP POP CALLER PUSH1 0x2 PUSH1 0x0 PUSH2 0x100 EXP DUP2 SLOAD DUP2 PUSH20 0xFFFFFFFFFFFFFFFFFFFFFFFFFFFFFFFFFFFFFFFF MUL NOT AND SWAP1 DUP4 PUSH20 0xFFFFFFFFFFFFFFFFFFFFFFFFFFFFFFFFFFFFFFFF AND MUL OR SWAP1 SSTORE POP PUSH1 0x0 PUSH1 0x3 PUSH1 0x0 PUSH2 0x100 EXP DUP2 SLOAD DUP2 PUSH20 0xFFFFFFFFFFFFFFFFFFFFFFFFFFFFFFFFFFFFFFFF MUL NOT AND SWAP1 DUP4 PUSH20 0xFFFFFFFFFFFFFFFFFFFFFFFFFFFFFFFFFFFFFFFF AND MUL OR SWAP1 SSTORE POP POP POP POP PUSH2 0x253 JUMP JUMPDEST PUSH2 0x1D0 DUP2 PUSH2 0x208 PUSH1 0x20 SHL PUSH2 0x8E2 OR PUSH1 0x20 SHR JUMP JUMPDEST PUSH2 0x1D9 JUMPI PUSH1 0x0 DUP1 REVERT JUMPDEST PUSH1 0x0 PUSH32 0x7050C9E0F4CA769C69BD3A8EF740BC37934F8E2C036E5A723FD8EE048ED3F8C3 PUSH1 0x0 SHL SWAP1 POP DUP2 DUP2 SSTORE POP POP JUMP JUMPDEST PUSH1 0x0 DUP1 PUSH1 0x0 PUSH32 0xC5D2460186F7233C927E7DB2DCC703C0E500B653CA82273B7BFAD8045D85A470 PUSH1 0x0 SHL SWAP1 POP DUP4 EXTCODEHASH SWAP2 POP PUSH1 0x0 DUP1 SHL DUP3 EQ ISZERO DUP1 ISZERO PUSH2 0x24A JUMPI POP DUP1 DUP3 EQ ISZERO JUMPDEST SWAP3 POP POP POP SWAP2 SWAP1 POP JUMP JUMPDEST PUSH2 0x962 DUP1 PUSH2 0x262 PUSH1 0x0 CODECOPY PUSH1 0x0 RETURN INVALID PUSH1 0x80 PUSH1 0x40 MSTORE PUSH1 0x4 CALLDATASIZE LT PUSH2 0x91 JUMPI PUSH1 0x0 CALLDATALOAD PUSH1 0xE0 SHR DUP1 PUSH4 0x8DA5CB5B GT PUSH2 0x59 JUMPI DUP1 PUSH4 0x8DA5CB5B EQ PUSH2 0x208 JUMPI DUP1 PUSH4 0x9B2BDC20 EQ PUSH2 0x25F JUMPI DUP1 PUSH4 0xD9DD3D36 EQ PUSH2 0x276 JUMPI DUP1 PUSH4 0xE30C3978 EQ PUSH2 0x28D JUMPI DUP1 PUSH4 0xF2FDE38B EQ PUSH2 0x2E4 JUMPI PUSH2 0x91 JUMP JUMPDEST DUP1 PUSH4 0x3659CFE6 EQ PUSH2 0x9B JUMPI DUP1 PUSH4 0x3ED10B92 EQ PUSH2 0xEC JUMPI DUP1 PUSH4 0x5C60DA1B EQ PUSH2 0x143 JUMPI DUP1 PUSH4 0x7BB98A68 EQ PUSH2 0x19A JUMPI DUP1 PUSH4 0x8955ED7E EQ PUSH2 0x1F1 JUMPI JUMPDEST PUSH2 0x99 PUSH2 0x335 JUMP JUMPDEST STOP JUMPDEST CALLVALUE DUP1 ISZERO PUSH2 0xA7 JUMPI PUSH1 0x0 DUP1 REVERT JUMPDEST POP PUSH2 0xEA PUSH1 0x4 DUP1 CALLDATASIZE SUB PUSH1 0x20 DUP2 LT ISZERO PUSH2 0xBE JUMPI PUSH1 0x0 DUP1 REVERT JUMPDEST DUP2 ADD SWAP1 DUP1 DUP1 CALLDATALOAD PUSH20 0xFFFFFFFFFFFFFFFFFFFFFFFFFFFFFFFFFFFFFFFF AND SWAP1 PUSH1 0x20 ADD SWAP1 SWAP3 SWAP2 SWAP1 POP POP POP PUSH2 0x34F JUMP JUMPDEST STOP JUMPDEST CALLVALUE DUP1 ISZERO PUSH2 0xF8 JUMPI PUSH1 0x0 DUP1 REVERT JUMPDEST POP PUSH2 0x101 PUSH2 0x3B5 JUMP JUMPDEST PUSH1 0x40 MLOAD DUP1 DUP3 PUSH20 0xFFFFFFFFFFFFFFFFFFFFFFFFFFFFFFFFFFFFFFFF AND PUSH20 0xFFFFFFFFFFFFFFFFFFFFFFFFFFFFFFFFFFFFFFFF AND DUP2 MSTORE PUSH1 0x20 ADD SWAP2 POP POP PUSH1 0x40 MLOAD DUP1 SWAP2 SUB SWAP1 RETURN JUMPDEST CALLVALUE DUP1 ISZERO PUSH2 0x14F JUMPI PUSH1 0x0 DUP1 REVERT JUMPDEST POP PUSH2 0x158 PUSH2 0x3DB JUMP JUMPDEST PUSH1 0x40 MLOAD DUP1 DUP3 PUSH20 0xFFFFFFFFFFFFFFFFFFFFFFFFFFFFFFFFFFFFFFFF AND PUSH20 0xFFFFFFFFFFFFFFFFFFFFFFFFFFFFFFFFFFFFFFFF AND DUP2 MSTORE PUSH1 0x20 ADD SWAP2 POP POP PUSH1 0x40 MLOAD DUP1 SWAP2 SUB SWAP1 RETURN JUMPDEST CALLVALUE DUP1 ISZERO PUSH2 0x1A6 JUMPI PUSH1 0x0 DUP1 REVERT JUMPDEST POP PUSH2 0x1AF PUSH2 0x3EA JUMP JUMPDEST PUSH1 0x40 MLOAD DUP1 DUP3 PUSH20 0xFFFFFFFFFFFFFFFFFFFFFFFFFFFFFFFFFFFFFFFF AND PUSH20 0xFFFFFFFFFFFFFFFFFFFFFFFFFFFFFFFFFFFFFFFF AND DUP2 MSTORE PUSH1 0x20 ADD SWAP2 POP POP PUSH1 0x40 MLOAD DUP1 SWAP2 SUB SWAP1 RETURN JUMPDEST CALLVALUE DUP1 ISZERO PUSH2 0x1FD JUMPI PUSH1 0x0 DUP1 REVERT JUMPDEST POP PUSH2 0x206 PUSH2 0x40F JUMP JUMPDEST STOP JUMPDEST CALLVALUE DUP1 ISZERO PUSH2 0x214 JUMPI PUSH1 0x0 DUP1 REVERT JUMPDEST POP PUSH2 0x21D PUSH2 0x492 JUMP JUMPDEST PUSH1 0x40 MLOAD DUP1 DUP3 PUSH20 0xFFFFFFFFFFFFFFFFFFFFFFFFFFFFFFFFFFFFFFFF AND PUSH20 0xFFFFFFFFFFFFFFFFFFFFFFFFFFFFFFFFFFFFFFFF AND DUP2 MSTORE PUSH1 0x20 ADD SWAP2 POP POP PUSH1 0x40 MLOAD DUP1 SWAP2 SUB SWAP1 RETURN JUMPDEST CALLVALUE DUP1 ISZERO PUSH2 0x26B JUMPI PUSH1 0x0 DUP1 REVERT JUMPDEST POP PUSH2 0x274 PUSH2 0x4B8 JUMP JUMPDEST STOP JUMPDEST CALLVALUE DUP1 ISZERO PUSH2 0x282 JUMPI PUSH1 0x0 DUP1 REVERT JUMPDEST POP PUSH2 0x28B PUSH2 0x53C JUMP JUMPDEST STOP JUMPDEST CALLVALUE DUP1 ISZERO PUSH2 0x299 JUMPI PUSH1 0x0 DUP1 REVERT JUMPDEST POP PUSH2 0x2A2 PUSH2 0x6DB JUMP JUMPDEST PUSH1 0x40 MLOAD DUP1 DUP3 PUSH20 0xFFFFFFFFFFFFFFFFFFFFFFFFFFFFFFFFFFFFFFFF AND PUSH20 0xFFFFFFFFFFFFFFFFFFFFFFFFFFFFFFFFFFFFFFFF AND DUP2 MSTORE PUSH1 0x20 ADD SWAP2 POP POP PUSH1 0x40 MLOAD DUP1 SWAP2 SUB SWAP1 RETURN JUMPDEST CALLVALUE DUP1 ISZERO PUSH2 0x2F0 JUMPI PUSH1 0x0 DUP1 REVERT JUMPDEST POP PUSH2 0x333 PUSH1 0x4 DUP1 CALLDATASIZE SUB PUSH1 0x20 DUP2 LT ISZERO PUSH2 0x307 JUMPI PUSH1 0x0 DUP1 REVERT JUMPDEST DUP2 ADD SWAP1 DUP1 DUP1 CALLDATALOAD PUSH20 0xFFFFFFFFFFFFFFFFFFFFFFFFFFFFFFFFFFFFFFFF AND SWAP1 PUSH1 0x20 ADD SWAP1 SWAP3 SWAP2 SWAP1 POP POP POP PUSH2 0x701 JUMP JUMPDEST STOP JUMPDEST PUSH2 0x33D PUSH2 0x7D9 JUMP JUMPDEST PUSH2 0x34D PUSH2 0x348 PUSH2 0x7DB JUMP JUMPDEST PUSH2 0x80C JUMP JUMPDEST JUMP JUMPDEST PUSH1 0x2 PUSH1 0x0 SWAP1 SLOAD SWAP1 PUSH2 0x100 EXP SWAP1 DIV PUSH20 0xFFFFFFFFFFFFFFFFFFFFFFFFFFFFFFFFFFFFFFFF AND PUSH20 0xFFFFFFFFFFFFFFFFFFFFFFFFFFFFFFFFFFFFFFFF AND CALLER PUSH20 0xFFFFFFFFFFFFFFFFFFFFFFFFFFFFFFFFFFFFFFFF AND EQ PUSH2 0x3A9 JUMPI PUSH1 0x0 DUP1 REVERT JUMPDEST PUSH2 0x3B2 DUP2 PUSH2 0x832 JUMP JUMPDEST POP JUMP JUMPDEST PUSH1 0x1 PUSH1 0x0 SWAP1 SLOAD SWAP1 PUSH2 0x100 EXP SWAP1 DIV PUSH20 0xFFFFFFFFFFFFFFFFFFFFFFFFFFFFFFFFFFFFFFFF AND DUP2 JUMP JUMPDEST PUSH1 0x0 PUSH2 0x3E5 PUSH2 0x7DB JUMP JUMPDEST SWAP1 POP SWAP1 JUMP JUMPDEST PUSH1 0x0 DUP1 SWAP1 SLOAD SWAP1 PUSH2 0x100 EXP SWAP1 DIV PUSH20 0xFFFFFFFFFFFFFFFFFFFFFFFFFFFFFFFFFFFFFFFF AND DUP2 JUMP JUMPDEST PUSH1 0x0 DUP1 SWAP1 SLOAD SWAP1 PUSH2 0x100 EXP SWAP1 DIV PUSH20 0xFFFFFFFFFFFFFFFFFFFFFFFFFFFFFFFFFFFFFFFF AND PUSH20 0xFFFFFFFFFFFFFFFFFFFFFFFFFFFFFFFFFFFFFFFF AND PUSH4 0xD9DD3D36 PUSH1 0x40 MLOAD DUP2 PUSH4 0xFFFFFFFF AND PUSH1 0xE0 SHL DUP2 MSTORE PUSH1 0x4 ADD PUSH1 0x0 PUSH1 0x40 MLOAD DUP1 DUP4 SUB DUP2 PUSH1 0x0 DUP8 DUP1 EXTCODESIZE ISZERO DUP1 ISZERO PUSH2 0x478 JUMPI PUSH1 0x0 DUP1 REVERT JUMPDEST POP GAS CALL ISZERO DUP1 ISZERO PUSH2 0x48C JUMPI RETURNDATASIZE PUSH1 0x0 DUP1 RETURNDATACOPY RETURNDATASIZE PUSH1 0x0 REVERT JUMPDEST POP POP POP POP JUMP JUMPDEST PUSH1 0x2 PUSH1 0x0 SWAP1 SLOAD SWAP1 PUSH2 0x100 EXP SWAP1 DIV PUSH20 0xFFFFFFFFFFFFFFFFFFFFFFFFFFFFFFFFFFFFFFFF AND DUP2 JUMP JUMPDEST PUSH1 0x1 PUSH1 0x0 SWAP1 SLOAD SWAP1 PUSH2 0x100 EXP SWAP1 DIV PUSH20 0xFFFFFFFFFFFFFFFFFFFFFFFFFFFFFFFFFFFFFFFF AND PUSH20 0xFFFFFFFFFFFFFFFFFFFFFFFFFFFFFFFFFFFFFFFF AND PUSH4 0xD9DD3D36 PUSH1 0x40 MLOAD DUP2 PUSH4 0xFFFFFFFF AND PUSH1 0xE0 SHL DUP2 MSTORE PUSH1 0x4 ADD PUSH1 0x0 PUSH1 0x40 MLOAD DUP1 DUP4 SUB DUP2 PUSH1 0x0 DUP8 DUP1 EXTCODESIZE ISZERO DUP1 ISZERO PUSH2 0x522 JUMPI PUSH1 0x0 DUP1 REVERT JUMPDEST POP GAS CALL ISZERO DUP1 ISZERO PUSH2 0x536 JUMPI RETURNDATASIZE PUSH1 0x0 DUP1 RETURNDATACOPY RETURNDATASIZE PUSH1 0x0 REVERT JUMPDEST POP POP POP POP JUMP JUMPDEST PUSH1 0x3 PUSH1 0x0 SWAP1 SLOAD SWAP1 PUSH2 0x100 EXP SWAP1 DIV PUSH20 0xFFFFFFFFFFFFFFFFFFFFFFFFFFFFFFFFFFFFFFFF AND PUSH20 0xFFFFFFFFFFFFFFFFFFFFFFFFFFFFFFFFFFFFFFFF AND CALLER PUSH20 0xFFFFFFFFFFFFFFFFFFFFFFFFFFFFFFFFFFFFFFFF AND EQ PUSH2 0x596 JUMPI PUSH1 0x0 DUP1 REVERT JUMPDEST PUSH1 0x3 PUSH1 0x0 SWAP1 SLOAD SWAP1 PUSH2 0x100 EXP SWAP1 DIV PUSH20 0xFFFFFFFFFFFFFFFFFFFFFFFFFFFFFFFFFFFFFFFF AND PUSH20 0xFFFFFFFFFFFFFFFFFFFFFFFFFFFFFFFFFFFFFFFF AND PUSH1 0x2 PUSH1 0x0 SWAP1 SLOAD SWAP1 PUSH2 0x100 EXP SWAP1 DIV PUSH20 0xFFFFFFFFFFFFFFFFFFFFFFFFFFFFFFFFFFFFFFFF AND PUSH20 0xFFFFFFFFFFFFFFFFFFFFFFFFFFFFFFFFFFFFFFFF AND PUSH32 0x8BE0079C531659141344CD1FD0A4F28419497F9722A3DAAFE3B4186F6B6457E0 PUSH1 0x40 MLOAD PUSH1 0x40 MLOAD DUP1 SWAP2 SUB SWAP1 LOG3 PUSH1 0x3 PUSH1 0x0 SWAP1 SLOAD SWAP1 PUSH2 0x100 EXP SWAP1 DIV PUSH20 0xFFFFFFFFFFFFFFFFFFFFFFFFFFFFFFFFFFFFFFFF AND PUSH1 0x2 PUSH1 0x0 PUSH2 0x100 EXP DUP2 SLOAD DUP2 PUSH20 0xFFFFFFFFFFFFFFFFFFFFFFFFFFFFFFFFFFFFFFFF MUL NOT AND SWAP1 DUP4 PUSH20 0xFFFFFFFFFFFFFFFFFFFFFFFFFFFFFFFFFFFFFFFF AND MUL OR SWAP1 SSTORE POP PUSH1 0x0 PUSH1 0x3 PUSH1 0x0 PUSH2 0x100 EXP DUP2 SLOAD DUP2 PUSH20 0xFFFFFFFFFFFFFFFFFFFFFFFFFFFFFFFFFFFFFFFF MUL NOT AND SWAP1 DUP4 PUSH20 0xFFFFFFFFFFFFFFFFFFFFFFFFFFFFFFFFFFFFFFFF AND MUL OR SWAP1 SSTORE POP JUMP JUMPDEST PUSH1 0x3 PUSH1 0x0 SWAP1 SLOAD SWAP1 PUSH2 0x100 EXP SWAP1 DIV PUSH20 0xFFFFFFFFFFFFFFFFFFFFFFFFFFFFFFFFFFFFFFFF AND DUP2 JUMP JUMPDEST PUSH1 0x2 PUSH1 0x0 SWAP1 SLOAD SWAP1 PUSH2 0x100 EXP SWAP1 DIV PUSH20 0xFFFFFFFFFFFFFFFFFFFFFFFFFFFFFFFFFFFFFFFF AND PUSH20 0xFFFFFFFFFFFFFFFFFFFFFFFFFFFFFFFFFFFFFFFF AND CALLER PUSH20 0xFFFFFFFFFFFFFFFFFFFFFFFFFFFFFFFFFFFFFFFF AND EQ PUSH2 0x75B JUMPI PUSH1 0x0 DUP1 REVERT JUMPDEST PUSH1 0x0 PUSH20 0xFFFFFFFFFFFFFFFFFFFFFFFFFFFFFFFFFFFFFFFF AND DUP2 PUSH20 0xFFFFFFFFFFFFFFFFFFFFFFFFFFFFFFFFFFFFFFFF AND EQ ISZERO PUSH2 0x795 JUMPI PUSH1 0x0 DUP1 REVERT JUMPDEST DUP1 PUSH1 0x3 PUSH1 0x0 PUSH2 0x100 EXP DUP2 SLOAD DUP2 PUSH20 0xFFFFFFFFFFFFFFFFFFFFFFFFFFFFFFFFFFFFFFFF MUL NOT AND SWAP1 DUP4 PUSH20 0xFFFFFFFFFFFFFFFFFFFFFFFFFFFFFFFFFFFFFFFF AND MUL OR SWAP1 SSTORE POP POP JUMP JUMPDEST JUMP JUMPDEST PUSH1 0x0 DUP1 PUSH32 0x7050C9E0F4CA769C69BD3A8EF740BC37934F8E2C036E5A723FD8EE048ED3F8C3 PUSH1 0x0 SHL SWAP1 POP DUP1 SLOAD SWAP2 POP POP SWAP1 JUMP JUMPDEST CALLDATASIZE PUSH1 0x0 DUP1 CALLDATACOPY PUSH1 0x0 DUP1 CALLDATASIZE PUSH1 0x0 DUP5 GAS DELEGATECALL RETURNDATASIZE PUSH1 0x0 DUP1 RETURNDATACOPY DUP1 PUSH1 0x0 DUP2 EQ PUSH2 0x82D JUMPI RETURNDATASIZE PUSH1 0x0 RETURN JUMPDEST RETURNDATASIZE PUSH1 0x0 REVERT JUMPDEST PUSH2 0x83B DUP2 PUSH2 0x8A1 JUMP JUMPDEST PUSH32 0xBC7CD75A20EE27FD9ADEBAB32041F755214DBC6BFFA90CC0225B39DA2E5C2D3B DUP2 PUSH1 0x40 MLOAD DUP1 DUP3 PUSH20 0xFFFFFFFFFFFFFFFFFFFFFFFFFFFFFFFFFFFFFFFF AND PUSH20 0xFFFFFFFFFFFFFFFFFFFFFFFFFFFFFFFFFFFFFFFF AND DUP2 MSTORE PUSH1 0x20 ADD SWAP2 POP POP PUSH1 0x40 MLOAD DUP1 SWAP2 SUB SWAP1 LOG1 POP JUMP JUMPDEST PUSH2 0x8AA DUP2 PUSH2 0x8E2 JUMP JUMPDEST PUSH2 0x8B3 JUMPI PUSH1 0x0 DUP1 REVERT JUMPDEST PUSH1 0x0 PUSH32 0x7050C9E0F4CA769C69BD3A8EF740BC37934F8E2C036E5A723FD8EE048ED3F8C3 PUSH1 0x0 SHL SWAP1 POP DUP2 DUP2 SSTORE POP POP JUMP JUMPDEST PUSH1 0x0 DUP1 PUSH1 0x0 PUSH32 0xC5D2460186F7233C927E7DB2DCC703C0E500B653CA82273B7BFAD8045D85A470 PUSH1 0x0 SHL SWAP1 POP DUP4 EXTCODEHASH SWAP2 POP PUSH1 0x0 DUP1 SHL DUP3 EQ ISZERO DUP1 ISZERO PUSH2 0x924 JUMPI POP DUP1 DUP3 EQ ISZERO JUMPDEST SWAP3 POP POP POP SWAP2 SWAP1 POP JUMP INVALID LOG2 PUSH6 0x627A7A723158 KECCAK256 0xda LOG3 BYTE 0xc3 DUP3 SWAP9 SWAP4 SWAP11 0x24 0xab 0xcd SWAP8 COINBASE DUP11 CALLCODE 0x2b PUSH24 0x33719C5050680793933B16BE3627E564736F6C634300050B STOP ORIGIN PUSH16 0x72672E7A657070656C696E6F732E7072 PUSH16 0x78792E696D706C656D656E746174696F PUSH15 0x0 "},"gasEstimates":{"creation":{"codeDepositCost":"480400","executionCost":"infinite","totalCost":"infinite"},"external":{"":"infinite","allowances()":"476","balances()":"520","claimAllowanceOwnership()":"infinite","claimBalanceOwnership()":"infinite","claimOwnerShip()":"43245","implementation()":"524","owner()":"453","pendingOwner()":"519","transferOwnership(address)":"20897","upgradeTo(address)":"22208"}},"methodIdentifiers":{"allowances()":"3ed10b92","balances()":"7bb98a68","claimAllowanceOwnership()":"9b2bdc20","claimBalanceOwnership()":"8955ed7e","claimOwnerShip()":"d9dd3d36","implementation()":"5c60da1b","owner()":"8da5cb5b","pendingOwner()":"e30c3978","transferOwnership(address)":"f2fde38b","upgradeTo(address)":"3659cfe6"}},"userdoc":{"methods":{},"notice":"A proxy contract that serves the latest implementation of TokenProxy."}}