{"abi":[{"constant":false,"inputs":[{"internalType":"address","name":"_spender","type":"address"},{"internalType":"uint256","name":"_value","type":"uint256"}],"name":"approve","outputs":[{"internalType":"bool","name":"","type":"bool"}],"payable":false,"stateMutability":"nonpayable","type":"function"},{"constant":true,"inputs":[],"name":"totalSupply","outputs":[{"internalType":"uint256","name":"","type":"uint256"}],"payable":false,"stateMutability":"view","type":"function"},{"constant":true,"inputs":[{"internalType":"address","name":"","type":"address"},{"internalType":"address","name":"","type":"address"}],"name":"allowanceOf","outputs":[{"internalType":"uint256","name":"","type":"uint256"}],"payable":false,"stateMutability":"view","type":"function"},{"constant":false,"inputs":[{"internalType":"address","name":"_addr","type":"address"},{"internalType":"uint256","name":"_value","type":"uint256"}],"name":"addBalance","outputs":[],"payable":false,"stateMutability":"nonpayable","type":"function"},{"constant":false,"inputs":[{"internalType":"address","name":"_from","type":"address"},{"internalType":"address","name":"_to","type":"address"},{"internalType":"uint256","name":"_amount","type":"uint256"}],"name":"transferFrom","outputs":[{"internalType":"bool","name":"","type":"bool"}],"payable":false,"stateMutability":"nonpayable","type":"function"},{"constant":false,"inputs":[],"name":"unpause","outputs":[],"payable":false,"stateMutability":"nonpayable","type":"function"},{"constant":false,"inputs":[{"internalType":"address","name":"_to","type":"address"},{"internalType":"uint256","name":"_amount","type":"uint256"}],"name":"mint","outputs":[],"payable":false,"stateMutability":"nonpayable","type":"function"},{"constant":false,"inputs":[{"internalType":"uint256","name":"_amount","type":"uint256"}],"name":"burn","outputs":[],"payable":false,"stateMutability":"nonpayable","type":"function"},{"constant":true,"inputs":[],"name":"paused","outputs":[{"internalType":"bool","name":"","type":"bool"}],"payable":false,"stateMutability":"view","type":"function"},{"constant":false,"inputs":[{"internalType":"address","name":"_tokenHolder","type":"address"},{"internalType":"address","name":"_spender","type":"address"},{"internalType":"uint256","name":"_value","type":"uint256"}],"name":"addAllowance","outputs":[],"payable":false,"stateMutability":"nonpayable","type":"function"},{"constant":false,"inputs":[{"internalType":"address","name":"_spender","type":"address"},{"internalType":"uint256","name":"_substractedValue","type":"uint256"}],"name":"decreaseApproval","outputs":[{"internalType":"bool","name":"","type":"bool"}],"payable":false,"stateMutability":"nonpayable","type":"function"},{"constant":true,"inputs":[{"internalType":"address","name":"","type":"address"}],"name":"balanceOf","outputs":[{"internalType":"uint256","name":"","type":"uint256"}],"payable":false,"stateMutability":"view","type":"function"},{"constant":false,"inputs":[{"internalType":"uint256","name":"_value","type":"uint256"}],"name":"subTotalSupply","outputs":[],"payable":false,"stateMutability":"nonpayable","type":"function"},{"constant":false,"inputs":[],"name":"pause","outputs":[],"payable":false,"stateMutability":"nonpayable","type":"function"},{"constant":true,"inputs":[],"name":"isMethodEnabled","outputs":[{"internalType":"bool","name":"","type":"bool"}],"payable":false,"stateMutability":"view","type":"function"},{"constant":false,"inputs":[],"name":"claimBalanceOwnership","outputs":[],"payable":false,"stateMutability":"nonpayable","type":"function"},{"constant":true,"inputs":[],"name":"owner","outputs":[{"internalType":"address","name":"","type":"address"}],"payable":false,"stateMutability":"view","type":"function"},{"constant":false,"inputs":[{"internalType":"address","name":"_tokenHolder","type":"address"},{"internalType":"address","name":"_spender","type":"address"},{"internalType":"uint256","name":"_value","type":"uint256"}],"name":"subAllowance","outputs":[],"payable":false,"stateMutability":"nonpayable","type":"function"},{"constant":false,"inputs":[],"name":"claimAllowanceOwnership","outputs":[],"payable":false,"stateMutability":"nonpayable","type":"function"},{"constant":false,"inputs":[],"name":"unlock","outputs":[],"payable":false,"stateMutability":"nonpayable","type":"function"},{"constant":false,"inputs":[{"internalType":"address","name":"_to","type":"address"},{"internalType":"uint256","name":"_amount","type":"uint256"}],"name":"transfer","outputs":[{"internalType":"bool","name":"","type":"bool"}],"payable":false,"stateMutability":"nonpayable","type":"function"},{"constant":true,"inputs":[],"name":"getTotalSupply","outputs":[{"internalType":"uint256","name":"","type":"uint256"}],"payable":false,"stateMutability":"view","type":"function"},{"constant":false,"inputs":[{"internalType":"address","name":"_addr","type":"address"},{"internalType":"uint256","name":"_value","type":"uint256"}],"name":"subBalance","outputs":[],"payable":false,"stateMutability":"nonpayable","type":"function"},{"constant":false,"inputs":[{"internalType":"address","name":"_spender","type":"address"},{"internalType":"uint256","name":"_addedValue","type":"uint256"}],"name":"increaseApproval","outputs":[{"internalType":"bool","name":"","type":"bool"}],"payable":false,"stateMutability":"nonpayable","type":"function"},{"constant":false,"inputs":[],"name":"claimOwnerShip","outputs":[],"payable":false,"stateMutability":"nonpayable","type":"function"},{"constant":false,"inputs":[{"internalType":"address","name":"_tokenHolder","type":"address"},{"internalType":"address","name":"_spender","type":"address"},{"internalType":"uint256","name":"_value","type":"uint256"}],"name":"setAllowance","outputs":[],"payable":false,"stateMutability":"nonpayable","type":"function"},{"constant":true,"inputs":[{"internalType":"address","name":"owner","type":"address"},{"internalType":"address","name":"spender","type":"address"}],"name":"allowance","outputs":[{"internalType":"uint256","name":"","type":"uint256"}],"payable":false,"stateMutability":"view","type":"function"},{"constant":false,"inputs":[{"internalType":"address","name":"_addr","type":"address"},{"internalType":"uint256","name":"_value","type":"uint256"}],"name":"setBalance","outputs":[],"payable":false,"stateMutability":"nonpayable","type":"function"},{"constant":true,"inputs":[],"name":"pendingOwner","outputs":[{"internalType":"address","name":"","type":"address"}],"payable":false,"stateMutability":"view","type":"function"},{"constant":false,"inputs":[{"internalType":"uint256","name":"_value","type":"uint256"}],"name":"addTotalSupply","outputs":[],"payable":false,"stateMutability":"nonpayable","type":"function"},{"constant":false,"inputs":[{"internalType":"address","name":"_newOwner","type":"address"}],"name":"transferOwnership","outputs":[],"payable":false,"stateMutability":"nonpayable","type":"function"},{"constant":false,"inputs":[{"internalType":"uint256","name":"_value","type":"uint256"}],"name":"setTotalSupply","outputs":[],"payable":false,"stateMutability":"nonpayable","type":"function"},{"constant":false,"inputs":[],"name":"lock","outputs":[],"payable":false,"stateMutability":"nonpayable","type":"function"},{"constant":true,"inputs":[{"internalType":"address","name":"who","type":"address"}],"name":"getBalance","outputs":[{"internalType":"uint256","name":"","type":"uint256"}],"payable":false,"stateMutability":"view","type":"function"},{"anonymous":false,"inputs":[],"name":"Unlocked","type":"event"},{"anonymous":false,"inputs":[],"name":"Locked","type":"event"},{"anonymous":false,"inputs":[],"name":"Pause","type":"event"},{"anonymous":false,"inputs":[],"name":"Unpause","type":"event"},{"anonymous":false,"inputs":[{"indexed":true,"internalType":"address","name":"to","type":"address"},{"indexed":false,"internalType":"uint256","name":"value","type":"uint256"}],"name":"Mint","type":"event"},{"anonymous":false,"inputs":[{"indexed":true,"internalType":"address","name":"burner","type":"address"},{"indexed":false,"internalType":"uint256","name":"value","type":"uint256"}],"name":"Burn","type":"event"},{"anonymous":false,"inputs":[{"indexed":true,"internalType":"address","name":"from","type":"address"},{"indexed":true,"internalType":"address","name":"to","type":"address"},{"indexed":false,"internalType":"uint256","name":"value","type":"uint256"}],"name":"Transfer","type":"event"},{"anonymous":false,"inputs":[{"indexed":true,"internalType":"address","name":"owner","type":"address"},{"indexed":true,"internalType":"address","name":"spender","type":"address"},{"indexed":false,"internalType":"uint256","name":"value","type":"uint256"}],"name":"Approval","type":"event"},{"anonymous":false,"inputs":[{"indexed":true,"internalType":"address","name":"previousOwner","type":"address"},{"indexed":true,"internalType":"address","name":"newOwner","type":"address"}],"name":"OwnershipTransferred","type":"event"}],"devdoc":{"methods":{"claimAllowanceOwnership()":{"details":"claim ownership of balance shet passed into ctor."},"claimBalanceOwnership()":{"details":"claim ownership of balance sheet passed into ctor."},"claimOwnerShip()":{"details":"Allows the pendingOwner address to finalize the transfer."},"decreaseApproval(address,uint256)":{"details":"Decrease the amount of tokens that an owner allowed to a spender.   "},"increaseApproval(address,uint256)":{"details":"Increase the amount of tokens that an owner allowed to a spender.","params":{"_addedValue":"The amount of tokens to increase the allowance by","_spender":"The address which will spend the funds.."}},"lock()":{"details":"called by the owner to disable method, back to normal state"},"pause()":{"details":"called by the owner to pause, triggers stopped state"},"transferFrom(address,address,uint256)":{"details":"When implemented, it should use the transferFromConditionsRequired() modifier.","params":{"_amount":"The number of tokens to transfer","_from":"The address of the origin of funds. This address _could_ be blacklisted, because a regulator may want to transfer tokens out of a blacklisted account, for example. In order to do so, the regulator would have to add themselves as an approved spender on the account via `addBlacklistAddressSpender()`, and would then be able to transfer tokens out of it.","_to":"The address of the recipient. This address must not be blacklisted."},"return":"`true` if successful"},"transferOwnership(address)":{"details":"Allows the current owner to transfer control of the contract to a newOwner.","params":{"_newOwner":"The address to transfer ownership to."}},"unlock()":{"details":"called by the owner to enable method"},"unpause()":{"details":"called by the owner to unpause, returns to normal state"}}},"evm":{"assembly":"    /* \"Token_V1.sol\":127:3950  contract Token_V1 is Token_V0, Pausable, Lockable {... */\n  mstore(0x40, 0x80)\n    /* \"helpers/Pausable.sol\":151:156   */\n  0x00\n    /* \"helpers/Pausable.sol\":130:156   */\n  0x05\n  exp(0x0100, 0x00)\n  dup2\n  sload\n  dup2\n  0xff\n  mul\n  not\n  and\n  swap1\n  dup4\n  iszero\n  iszero\n  mul\n  or\n  swap1\n  sstore\n  pop\n    /* \"helpers/Lockable.sol\":453:458   */\n  0x00\n    /* \"helpers/Lockable.sol\":423:458   */\n  0x05\n  exp(0x0100, 0x01)\n  dup2\n  sload\n  dup2\n  0xff\n  mul\n  not\n  and\n  swap1\n  dup4\n  iszero\n  iszero\n  mul\n  or\n  swap1\n  sstore\n  pop\n    /* \"helpers/Ownable.sol\":778:788   */\n  caller\n    /* \"helpers/Ownable.sol\":770:775   */\n  0x00\n  dup1\n    /* \"helpers/Ownable.sol\":770:788   */\n  0x0100\n  exp\n  dup2\n  sload\n  dup2\n  0xffffffffffffffffffffffffffffffffffffffff\n  mul\n  not\n  and\n  swap1\n  dup4\n  0xffffffffffffffffffffffffffffffffffffffff\n  and\n  mul\n  or\n  swap1\n  sstore\n  pop\n    /* \"helpers/Ownable.sol\":817:818   */\n  0x00\n    /* \"helpers/Ownable.sol\":794:806   */\n  0x01\n  0x00\n    /* \"helpers/Ownable.sol\":794:819   */\n  0x0100\n  exp\n  dup2\n  sload\n  dup2\n  0xffffffffffffffffffffffffffffffffffffffff\n  mul\n  not\n  and\n  swap1\n  dup4\n  0xffffffffffffffffffffffffffffffffffffffff\n  and\n  mul\n  or\n  swap1\n  sstore\n  pop\n    /* \"Token_V1.sol\":127:3950  contract Token_V1 is Token_V0, Pausable, Lockable {... */\n  dataSize(sub_0)\n  dup1\n  dataOffset(sub_0)\n  0x00\n  codecopy\n  0x00\n  return\nstop\n\nsub_0: assembly {\n        /* \"Token_V1.sol\":127:3950  contract Token_V1 is Token_V0, Pausable, Lockable {... */\n      mstore(0x40, 0x80)\n      callvalue\n        /* \"--CODEGEN--\":8:17   */\n      dup1\n        /* \"--CODEGEN--\":5:7   */\n      iszero\n      tag_1\n      jumpi\n        /* \"--CODEGEN--\":30:31   */\n      0x00\n        /* \"--CODEGEN--\":27:28   */\n      dup1\n        /* \"--CODEGEN--\":20:32   */\n      revert\n        /* \"--CODEGEN--\":5:7   */\n    tag_1:\n        /* \"Token_V1.sol\":127:3950  contract Token_V1 is Token_V0, Pausable, Lockable {... */\n      pop\n      jumpi(tag_2, lt(calldatasize, 0x04))\n      shr(0xe0, calldataload(0x00))\n      dup1\n      0x97d88cd2\n      gt\n      tag_37\n      jumpi\n      dup1\n      0xda46098c\n      gt\n      tag_38\n      jumpi\n      dup1\n      0xe468688e\n      gt\n      tag_39\n      jumpi\n      dup1\n      0xe468688e\n      eq\n      tag_32\n      jumpi\n      dup1\n      0xf2fde38b\n      eq\n      tag_33\n      jumpi\n      dup1\n      0xf7ea7a3d\n      eq\n      tag_34\n      jumpi\n      dup1\n      0xf83d08ba\n      eq\n      tag_35\n      jumpi\n      dup1\n      0xf8b2cb4f\n      eq\n      tag_36\n      jumpi\n      jump(tag_2)\n    tag_39:\n      dup1\n      0xda46098c\n      eq\n      tag_28\n      jumpi\n      dup1\n      0xdd62ed3e\n      eq\n      tag_29\n      jumpi\n      dup1\n      0xe30443bc\n      eq\n      tag_30\n      jumpi\n      dup1\n      0xe30c3978\n      eq\n      tag_31\n      jumpi\n      jump(tag_2)\n    tag_38:\n      dup1\n      0xc4e41b22\n      gt\n      tag_40\n      jumpi\n      dup1\n      0xc4e41b22\n      eq\n      tag_24\n      jumpi\n      dup1\n      0xcf8eeb7e\n      eq\n      tag_25\n      jumpi\n      dup1\n      0xd73dd623\n      eq\n      tag_26\n      jumpi\n      dup1\n      0xd9dd3d36\n      eq\n      tag_27\n      jumpi\n      jump(tag_2)\n    tag_40:\n      dup1\n      0x97d88cd2\n      eq\n      tag_20\n      jumpi\n      dup1\n      0x9b2bdc20\n      eq\n      tag_21\n      jumpi\n      dup1\n      0xa69df4b5\n      eq\n      tag_22\n      jumpi\n      dup1\n      0xa9059cbb\n      eq\n      tag_23\n      jumpi\n      jump(tag_2)\n    tag_37:\n      dup1\n      0x5c975abb\n      gt\n      tag_41\n      jumpi\n      dup1\n      0x82838c76\n      gt\n      tag_42\n      jumpi\n      dup1\n      0x82838c76\n      eq\n      tag_15\n      jumpi\n      dup1\n      0x8456cb59\n      eq\n      tag_16\n      jumpi\n      dup1\n      0x88fa2617\n      eq\n      tag_17\n      jumpi\n      dup1\n      0x8955ed7e\n      eq\n      tag_18\n      jumpi\n      dup1\n      0x8da5cb5b\n      eq\n      tag_19\n      jumpi\n      jump(tag_2)\n    tag_42:\n      dup1\n      0x5c975abb\n      eq\n      tag_11\n      jumpi\n      dup1\n      0x5fd72d16\n      eq\n      tag_12\n      jumpi\n      dup1\n      0x66188463\n      eq\n      tag_13\n      jumpi\n      dup1\n      0x70a08231\n      eq\n      tag_14\n      jumpi\n      jump(tag_2)\n    tag_41:\n      dup1\n      0x23b872dd\n      gt\n      tag_43\n      jumpi\n      dup1\n      0x23b872dd\n      eq\n      tag_7\n      jumpi\n      dup1\n      0x3f4ba83a\n      eq\n      tag_8\n      jumpi\n      dup1\n      0x40c10f19\n      eq\n      tag_9\n      jumpi\n      dup1\n      0x42966c68\n      eq\n      tag_10\n      jumpi\n      jump(tag_2)\n    tag_43:\n      dup1\n      0x095ea7b3\n      eq\n      tag_3\n      jumpi\n      dup1\n      0x18160ddd\n      eq\n      tag_4\n      jumpi\n      dup1\n      0x1a46ec82\n      eq\n      tag_5\n      jumpi\n      dup1\n      0x21e5383a\n      eq\n      tag_6\n      jumpi\n    tag_2:\n      0x00\n      dup1\n      revert\n        /* \"Token_V1.sol\":787:950  function approve(address _spender, uint256 _value)... */\n    tag_3:\n      tag_44\n      0x04\n      dup1\n      calldatasize\n      sub\n        /* \"--CODEGEN--\":13:15   */\n      0x40\n        /* \"--CODEGEN--\":8:11   */\n      dup2\n        /* \"--CODEGEN--\":5:16   */\n      lt\n        /* \"--CODEGEN--\":2:4   */\n      iszero\n      tag_45\n      jumpi\n        /* \"--CODEGEN--\":29:30   */\n      0x00\n        /* \"--CODEGEN--\":26:27   */\n      dup1\n        /* \"--CODEGEN--\":19:31   */\n      revert\n        /* \"--CODEGEN--\":2:4   */\n    tag_45:\n        /* \"Token_V1.sol\":787:950  function approve(address _spender, uint256 _value)... */\n      dup2\n      add\n      swap1\n      dup1\n      dup1\n      calldataload\n      0xffffffffffffffffffffffffffffffffffffffff\n      and\n      swap1\n      0x20\n      add\n      swap1\n      swap3\n      swap2\n      swap1\n      dup1\n      calldataload\n      swap1\n      0x20\n      add\n      swap1\n      swap3\n      swap2\n      swap1\n      pop\n      pop\n      pop\n      tag_46\n      jump\t// in\n    tag_44:\n      mload(0x40)\n      dup1\n      dup3\n      iszero\n      iszero\n      iszero\n      iszero\n      dup2\n      mstore\n      0x20\n      add\n      swap2\n      pop\n      pop\n      mload(0x40)\n      dup1\n      swap2\n      sub\n      swap1\n      return\n        /* \"BalanceSheet.sol\":294:320   */\n    tag_4:\n      tag_47\n      tag_48\n      jump\t// in\n    tag_47:\n      mload(0x40)\n      dup1\n      dup3\n      dup2\n      mstore\n      0x20\n      add\n      swap2\n      pop\n      pop\n      mload(0x40)\n      dup1\n      swap2\n      sub\n      swap1\n      return\n        /* \"AllowanceSheet.sol\":251:319   */\n    tag_5:\n      tag_49\n      0x04\n      dup1\n      calldatasize\n      sub\n        /* \"--CODEGEN--\":13:15   */\n      0x40\n        /* \"--CODEGEN--\":8:11   */\n      dup2\n        /* \"--CODEGEN--\":5:16   */\n      lt\n        /* \"--CODEGEN--\":2:4   */\n      iszero\n      tag_50\n      jumpi\n        /* \"--CODEGEN--\":29:30   */\n      0x00\n        /* \"--CODEGEN--\":26:27   */\n      dup1\n        /* \"--CODEGEN--\":19:31   */\n      revert\n        /* \"--CODEGEN--\":2:4   */\n    tag_50:\n        /* \"AllowanceSheet.sol\":251:319   */\n      dup2\n      add\n      swap1\n      dup1\n      dup1\n      calldataload\n      0xffffffffffffffffffffffffffffffffffffffff\n      and\n      swap1\n      0x20\n      add\n      swap1\n      swap3\n      swap2\n      swap1\n      dup1\n      calldataload\n      0xffffffffffffffffffffffffffffffffffffffff\n      and\n      swap1\n      0x20\n      add\n      swap1\n      swap3\n      swap2\n      swap1\n      pop\n      pop\n      pop\n      tag_51\n      jump\t// in\n    tag_49:\n      mload(0x40)\n      dup1\n      dup3\n      dup2\n      mstore\n      0x20\n      add\n      swap2\n      pop\n      pop\n      mload(0x40)\n      dup1\n      swap2\n      sub\n      swap1\n      return\n        /* \"BalanceSheet.sol\":327:453   */\n    tag_6:\n      tag_52\n      0x04\n      dup1\n      calldatasize\n      sub\n        /* \"--CODEGEN--\":13:15   */\n      0x40\n        /* \"--CODEGEN--\":8:11   */\n      dup2\n        /* \"--CODEGEN--\":5:16   */\n      lt\n        /* \"--CODEGEN--\":2:4   */\n      iszero\n      tag_53\n      jumpi\n        /* \"--CODEGEN--\":29:30   */\n      0x00\n        /* \"--CODEGEN--\":26:27   */\n      dup1\n        /* \"--CODEGEN--\":19:31   */\n      revert\n        /* \"--CODEGEN--\":2:4   */\n    tag_53:\n        /* \"BalanceSheet.sol\":327:453   */\n      dup2\n      add\n      swap1\n      dup1\n      dup1\n      calldataload\n      0xffffffffffffffffffffffffffffffffffffffff\n      and\n      swap1\n      0x20\n      add\n      swap1\n      swap3\n      swap2\n      swap1\n      dup1\n      calldataload\n      swap1\n      0x20\n      add\n      swap1\n      swap3\n      swap2\n      swap1\n      pop\n      pop\n      pop\n      tag_54\n      jump\t// in\n    tag_52:\n      stop\n        /* \"Token_V1.sol\":3007:3180  function transferFrom(address _from, address _to, uint256 _amount)... */\n    tag_7:\n      tag_55\n      0x04\n      dup1\n      calldatasize\n      sub\n        /* \"--CODEGEN--\":13:15   */\n      0x60\n        /* \"--CODEGEN--\":8:11   */\n      dup2\n        /* \"--CODEGEN--\":5:16   */\n      lt\n        /* \"--CODEGEN--\":2:4   */\n      iszero\n      tag_56\n      jumpi\n        /* \"--CODEGEN--\":29:30   */\n      0x00\n        /* \"--CODEGEN--\":26:27   */\n      dup1\n        /* \"--CODEGEN--\":19:31   */\n      revert\n        /* \"--CODEGEN--\":2:4   */\n    tag_56:\n        /* \"Token_V1.sol\":3007:3180  function transferFrom(address _from, address _to, uint256 _amount)... */\n      dup2\n      add\n      swap1\n      dup1\n      dup1\n      calldataload\n      0xffffffffffffffffffffffffffffffffffffffff\n      and\n      swap1\n      0x20\n      add\n      swap1\n      swap3\n      swap2\n      swap1\n      dup1\n      calldataload\n      0xffffffffffffffffffffffffffffffffffffffff\n      and\n      swap1\n      0x20\n      add\n      swap1\n      swap3\n      swap2\n      swap1\n      dup1\n      calldataload\n      swap1\n      0x20\n      add\n      swap1\n      swap3\n      swap2\n      swap1\n      pop\n      pop\n      pop\n      tag_57\n      jump\t// in\n    tag_55:\n      mload(0x40)\n      dup1\n      dup3\n      iszero\n      iszero\n      iszero\n      iszero\n      dup2\n      mstore\n      0x20\n      add\n      swap2\n      pop\n      pop\n      mload(0x40)\n      dup1\n      swap2\n      sub\n      swap1\n      return\n        /* \"helpers/Pausable.sol\":722:814   */\n    tag_8:\n      tag_58\n      tag_59\n      jump\t// in\n    tag_58:\n      stop\n        /* \"Token_V1.sol\":239:339  function mint(address _to, uint256 _amount) public whenNotPaused {... */\n    tag_9:\n      tag_60\n      0x04\n      dup1\n      calldatasize\n      sub\n        /* \"--CODEGEN--\":13:15   */\n      0x40\n        /* \"--CODEGEN--\":8:11   */\n      dup2\n        /* \"--CODEGEN--\":5:16   */\n      lt\n        /* \"--CODEGEN--\":2:4   */\n      iszero\n      tag_61\n      jumpi\n        /* \"--CODEGEN--\":29:30   */\n      0x00\n        /* \"--CODEGEN--\":26:27   */\n      dup1\n        /* \"--CODEGEN--\":19:31   */\n      revert\n        /* \"--CODEGEN--\":2:4   */\n    tag_61:\n        /* \"Token_V1.sol\":239:339  function mint(address _to, uint256 _amount) public whenNotPaused {... */\n      dup2\n      add\n      swap1\n      dup1\n      dup1\n      calldataload\n      0xffffffffffffffffffffffffffffffffffffffff\n      and\n      swap1\n      0x20\n      add\n      swap1\n      swap3\n      swap2\n      swap1\n      dup1\n      calldataload\n      swap1\n      0x20\n      add\n      swap1\n      swap3\n      swap2\n      swap1\n      pop\n      pop\n      pop\n      tag_62\n      jump\t// in\n    tag_60:\n      stop\n        /* \"Token_V1.sol\":345:427  function burn(uint256 _amount) public whenNotPaused {... */\n    tag_10:\n      tag_63\n      0x04\n      dup1\n      calldatasize\n      sub\n        /* \"--CODEGEN--\":13:15   */\n      0x20\n        /* \"--CODEGEN--\":8:11   */\n      dup2\n        /* \"--CODEGEN--\":5:16   */\n      lt\n        /* \"--CODEGEN--\":2:4   */\n      iszero\n      tag_64\n      jumpi\n        /* \"--CODEGEN--\":29:30   */\n      0x00\n        /* \"--CODEGEN--\":26:27   */\n      dup1\n        /* \"--CODEGEN--\":19:31   */\n      revert\n        /* \"--CODEGEN--\":2:4   */\n    tag_64:\n        /* \"Token_V1.sol\":345:427  function burn(uint256 _amount) public whenNotPaused {... */\n      dup2\n      add\n      swap1\n      dup1\n      dup1\n      calldataload\n      swap1\n      0x20\n      add\n      swap1\n      swap3\n      swap2\n      swap1\n      pop\n      pop\n      pop\n      tag_65\n      jump\t// in\n    tag_63:\n      stop\n        /* \"helpers/Pausable.sol\":130:156   */\n    tag_11:\n      tag_66\n      tag_67\n      jump\t// in\n    tag_66:\n      mload(0x40)\n      dup1\n      dup3\n      iszero\n      iszero\n      iszero\n      iszero\n      dup2\n      mstore\n      0x20\n      add\n      swap2\n      pop\n      pop\n      mload(0x40)\n      dup1\n      swap2\n      sub\n      swap1\n      return\n        /* \"AllowanceSheet.sol\":326:517   */\n    tag_12:\n      tag_68\n      0x04\n      dup1\n      calldatasize\n      sub\n        /* \"--CODEGEN--\":13:15   */\n      0x60\n        /* \"--CODEGEN--\":8:11   */\n      dup2\n        /* \"--CODEGEN--\":5:16   */\n      lt\n        /* \"--CODEGEN--\":2:4   */\n      iszero\n      tag_69\n      jumpi\n        /* \"--CODEGEN--\":29:30   */\n      0x00\n        /* \"--CODEGEN--\":26:27   */\n      dup1\n        /* \"--CODEGEN--\":19:31   */\n      revert\n        /* \"--CODEGEN--\":2:4   */\n    tag_69:\n        /* \"AllowanceSheet.sol\":326:517   */\n      dup2\n      add\n      swap1\n      dup1\n      dup1\n      calldataload\n      0xffffffffffffffffffffffffffffffffffffffff\n      and\n      swap1\n      0x20\n      add\n      swap1\n      swap3\n      swap2\n      swap1\n      dup1\n      calldataload\n      0xffffffffffffffffffffffffffffffffffffffff\n      and\n      swap1\n      0x20\n      add\n      swap1\n      swap3\n      swap2\n      swap1\n      dup1\n      calldataload\n      swap1\n      0x20\n      add\n      swap1\n      swap3\n      swap2\n      swap1\n      pop\n      pop\n      pop\n      tag_70\n      jump\t// in\n    tag_68:\n      stop\n        /* \"Token_V1.sol\":1823:2026  function decreaseApproval(address _spender, uint256 _substractedValue)... */\n    tag_13:\n      tag_71\n      0x04\n      dup1\n      calldatasize\n      sub\n        /* \"--CODEGEN--\":13:15   */\n      0x40\n        /* \"--CODEGEN--\":8:11   */\n      dup2\n        /* \"--CODEGEN--\":5:16   */\n      lt\n        /* \"--CODEGEN--\":2:4   */\n      iszero\n      tag_72\n      jumpi\n        /* \"--CODEGEN--\":29:30   */\n      0x00\n        /* \"--CODEGEN--\":26:27   */\n      dup1\n        /* \"--CODEGEN--\":19:31   */\n      revert\n        /* \"--CODEGEN--\":2:4   */\n    tag_72:\n        /* \"Token_V1.sol\":1823:2026  function decreaseApproval(address _spender, uint256 _substractedValue)... */\n      dup2\n      add\n      swap1\n      dup1\n      dup1\n      calldataload\n      0xffffffffffffffffffffffffffffffffffffffff\n      and\n      swap1\n      0x20\n      add\n      swap1\n      swap3\n      swap2\n      swap1\n      dup1\n      calldataload\n      swap1\n      0x20\n      add\n      swap1\n      swap3\n      swap2\n      swap1\n      pop\n      pop\n      pop\n      tag_73\n      jump\t// in\n    tag_71:\n      mload(0x40)\n      dup1\n      dup3\n      iszero\n      iszero\n      iszero\n      iszero\n      dup2\n      mstore\n      0x20\n      add\n      swap2\n      pop\n      pop\n      mload(0x40)\n      dup1\n      swap2\n      sub\n      swap1\n      return\n        /* \"BalanceSheet.sol\":245:290   */\n    tag_14:\n      tag_74\n      0x04\n      dup1\n      calldatasize\n      sub\n        /* \"--CODEGEN--\":13:15   */\n      0x20\n        /* \"--CODEGEN--\":8:11   */\n      dup2\n        /* \"--CODEGEN--\":5:16   */\n      lt\n        /* \"--CODEGEN--\":2:4   */\n      iszero\n      tag_75\n      jumpi\n        /* \"--CODEGEN--\":29:30   */\n      0x00\n        /* \"--CODEGEN--\":26:27   */\n      dup1\n        /* \"--CODEGEN--\":19:31   */\n      revert\n        /* \"--CODEGEN--\":2:4   */\n    tag_75:\n        /* \"BalanceSheet.sol\":245:290   */\n      dup2\n      add\n      swap1\n      dup1\n      dup1\n      calldataload\n      0xffffffffffffffffffffffffffffffffffffffff\n      and\n      swap1\n      0x20\n      add\n      swap1\n      swap3\n      swap2\n      swap1\n      pop\n      pop\n      pop\n      tag_76\n      jump\t// in\n    tag_74:\n      mload(0x40)\n      dup1\n      dup3\n      dup2\n      mstore\n      0x20\n      add\n      swap2\n      pop\n      pop\n      mload(0x40)\n      dup1\n      swap2\n      sub\n      swap1\n      return\n        /* \"BalanceSheet.sol\":800:905   */\n    tag_15:\n      tag_77\n      0x04\n      dup1\n      calldatasize\n      sub\n        /* \"--CODEGEN--\":13:15   */\n      0x20\n        /* \"--CODEGEN--\":8:11   */\n      dup2\n        /* \"--CODEGEN--\":5:16   */\n      lt\n        /* \"--CODEGEN--\":2:4   */\n      iszero\n      tag_78\n      jumpi\n        /* \"--CODEGEN--\":29:30   */\n      0x00\n        /* \"--CODEGEN--\":26:27   */\n      dup1\n        /* \"--CODEGEN--\":19:31   */\n      revert\n        /* \"--CODEGEN--\":2:4   */\n    tag_78:\n        /* \"BalanceSheet.sol\":800:905   */\n      dup2\n      add\n      swap1\n      dup1\n      dup1\n      calldataload\n      swap1\n      0x20\n      add\n      swap1\n      swap3\n      swap2\n      swap1\n      pop\n      pop\n      pop\n      tag_79\n      jump\t// in\n    tag_77:\n      stop\n        /* \"helpers/Pausable.sol\":550:640   */\n    tag_16:\n      tag_80\n      tag_81\n      jump\t// in\n    tag_80:\n      stop\n        /* \"helpers/Lockable.sol\":423:458   */\n    tag_17:\n      tag_82\n      tag_83\n      jump\t// in\n    tag_82:\n      mload(0x40)\n      dup1\n      dup3\n      iszero\n      iszero\n      iszero\n      iszero\n      dup2\n      mstore\n      0x20\n      add\n      swap2\n      pop\n      pop\n      mload(0x40)\n      dup1\n      swap2\n      sub\n      swap1\n      return\n        /* \"TokenStorage.sol\":315:394   */\n    tag_18:\n      tag_84\n      tag_85\n      jump\t// in\n    tag_84:\n      stop\n        /* \"helpers/Ownable.sol\":487:507   */\n    tag_19:\n      tag_86\n      tag_87\n      jump\t// in\n    tag_86:\n      mload(0x40)\n      dup1\n      dup3\n      0xffffffffffffffffffffffffffffffffffffffff\n      and\n      0xffffffffffffffffffffffffffffffffffffffff\n      and\n      dup2\n      mstore\n      0x20\n      add\n      swap2\n      pop\n      pop\n      mload(0x40)\n      dup1\n      swap2\n      sub\n      swap1\n      return\n        /* \"AllowanceSheet.sol\":523:714   */\n    tag_20:\n      tag_88\n      0x04\n      dup1\n      calldatasize\n      sub\n        /* \"--CODEGEN--\":13:15   */\n      0x60\n        /* \"--CODEGEN--\":8:11   */\n      dup2\n        /* \"--CODEGEN--\":5:16   */\n      lt\n        /* \"--CODEGEN--\":2:4   */\n      iszero\n      tag_89\n      jumpi\n        /* \"--CODEGEN--\":29:30   */\n      0x00\n        /* \"--CODEGEN--\":26:27   */\n      dup1\n        /* \"--CODEGEN--\":19:31   */\n      revert\n        /* \"--CODEGEN--\":2:4   */\n    tag_89:\n        /* \"AllowanceSheet.sol\":523:714   */\n      dup2\n      add\n      swap1\n      dup1\n      dup1\n      calldataload\n      0xffffffffffffffffffffffffffffffffffffffff\n      and\n      swap1\n      0x20\n      add\n      swap1\n      swap3\n      swap2\n      swap1\n      dup1\n      calldataload\n      0xffffffffffffffffffffffffffffffffffffffff\n      and\n      swap1\n      0x20\n      add\n      swap1\n      swap3\n      swap2\n      swap1\n      dup1\n      calldataload\n      swap1\n      0x20\n      add\n      swap1\n      swap3\n      swap2\n      swap1\n      pop\n      pop\n      pop\n      tag_90\n      jump\t// in\n    tag_88:\n      stop\n        /* \"TokenStorage.sol\":482:563   */\n    tag_21:\n      tag_91\n      tag_92\n      jump\t// in\n    tag_91:\n      stop\n        /* \"helpers/Lockable.sol\":697:786   */\n    tag_22:\n      tag_93\n      tag_94\n      jump\t// in\n    tag_93:\n      stop\n        /* \"Token_V1.sol\":2032:2172  function transfer(address _to, uint256 _amount) public whenNotPaused returns (bool) {... */\n    tag_23:\n      tag_95\n      0x04\n      dup1\n      calldatasize\n      sub\n        /* \"--CODEGEN--\":13:15   */\n      0x40\n        /* \"--CODEGEN--\":8:11   */\n      dup2\n        /* \"--CODEGEN--\":5:16   */\n      lt\n        /* \"--CODEGEN--\":2:4   */\n      iszero\n      tag_96\n      jumpi\n        /* \"--CODEGEN--\":29:30   */\n      0x00\n        /* \"--CODEGEN--\":26:27   */\n      dup1\n        /* \"--CODEGEN--\":19:31   */\n      revert\n        /* \"--CODEGEN--\":2:4   */\n    tag_96:\n        /* \"Token_V1.sol\":2032:2172  function transfer(address _to, uint256 _amount) public whenNotPaused returns (bool) {... */\n      dup2\n      add\n      swap1\n      dup1\n      dup1\n      calldataload\n      0xffffffffffffffffffffffffffffffffffffffff\n      and\n      swap1\n      0x20\n      add\n      swap1\n      swap3\n      swap2\n      swap1\n      dup1\n      calldataload\n      swap1\n      0x20\n      add\n      swap1\n      swap3\n      swap2\n      swap1\n      pop\n      pop\n      pop\n      tag_97\n      jump\t// in\n    tag_95:\n      mload(0x40)\n      dup1\n      dup3\n      iszero\n      iszero\n      iszero\n      iszero\n      dup2\n      mstore\n      0x20\n      add\n      swap2\n      pop\n      pop\n      mload(0x40)\n      dup1\n      swap2\n      sub\n      swap1\n      return\n        /* \"Token_V0.sol\":2263:2348   */\n    tag_24:\n      tag_98\n      tag_99\n      jump\t// in\n    tag_98:\n      mload(0x40)\n      dup1\n      dup3\n      dup2\n      mstore\n      0x20\n      add\n      swap2\n      pop\n      pop\n      mload(0x40)\n      dup1\n      swap2\n      sub\n      swap1\n      return\n        /* \"BalanceSheet.sol\":456:582   */\n    tag_25:\n      tag_100\n      0x04\n      dup1\n      calldatasize\n      sub\n        /* \"--CODEGEN--\":13:15   */\n      0x40\n        /* \"--CODEGEN--\":8:11   */\n      dup2\n        /* \"--CODEGEN--\":5:16   */\n      lt\n        /* \"--CODEGEN--\":2:4   */\n      iszero\n      tag_101\n      jumpi\n        /* \"--CODEGEN--\":29:30   */\n      0x00\n        /* \"--CODEGEN--\":26:27   */\n      dup1\n        /* \"--CODEGEN--\":19:31   */\n      revert\n        /* \"--CODEGEN--\":2:4   */\n    tag_101:\n        /* \"BalanceSheet.sol\":456:582   */\n      dup2\n      add\n      swap1\n      dup1\n      dup1\n      calldataload\n      0xffffffffffffffffffffffffffffffffffffffff\n      and\n      swap1\n      0x20\n      add\n      swap1\n      swap3\n      swap2\n      swap1\n      dup1\n      calldataload\n      swap1\n      0x20\n      add\n      swap1\n      swap3\n      swap2\n      swap1\n      pop\n      pop\n      pop\n      tag_102\n      jump\t// in\n    tag_100:\n      stop\n        /* \"Token_V1.sol\":1533:1724  function increaseApproval(address _spender, uint256 _addedValue)... */\n    tag_26:\n      tag_103\n      0x04\n      dup1\n      calldatasize\n      sub\n        /* \"--CODEGEN--\":13:15   */\n      0x40\n        /* \"--CODEGEN--\":8:11   */\n      dup2\n        /* \"--CODEGEN--\":5:16   */\n      lt\n        /* \"--CODEGEN--\":2:4   */\n      iszero\n      tag_104\n      jumpi\n        /* \"--CODEGEN--\":29:30   */\n      0x00\n        /* \"--CODEGEN--\":26:27   */\n      dup1\n        /* \"--CODEGEN--\":19:31   */\n      revert\n        /* \"--CODEGEN--\":2:4   */\n    tag_104:\n        /* \"Token_V1.sol\":1533:1724  function increaseApproval(address _spender, uint256 _addedValue)... */\n      dup2\n      add\n      swap1\n      dup1\n      dup1\n      calldataload\n      0xffffffffffffffffffffffffffffffffffffffff\n      and\n      swap1\n      0x20\n      add\n      swap1\n      swap3\n      swap2\n      swap1\n      dup1\n      calldataload\n      swap1\n      0x20\n      add\n      swap1\n      swap3\n      swap2\n      swap1\n      pop\n      pop\n      pop\n      tag_105\n      jump\t// in\n    tag_103:\n      mload(0x40)\n      dup1\n      dup3\n      iszero\n      iszero\n      iszero\n      iszero\n      dup2\n      mstore\n      0x20\n      add\n      swap2\n      pop\n      pop\n      mload(0x40)\n      dup1\n      swap2\n      sub\n      swap1\n      return\n        /* \"helpers/Ownable.sol\":1520:1684   */\n    tag_27:\n      tag_106\n      tag_107\n      jump\t// in\n    tag_106:\n      stop\n        /* \"AllowanceSheet.sol\":720:870   */\n    tag_28:\n      tag_108\n      0x04\n      dup1\n      calldatasize\n      sub\n        /* \"--CODEGEN--\":13:15   */\n      0x60\n        /* \"--CODEGEN--\":8:11   */\n      dup2\n        /* \"--CODEGEN--\":5:16   */\n      lt\n        /* \"--CODEGEN--\":2:4   */\n      iszero\n      tag_109\n      jumpi\n        /* \"--CODEGEN--\":29:30   */\n      0x00\n        /* \"--CODEGEN--\":26:27   */\n      dup1\n        /* \"--CODEGEN--\":19:31   */\n      revert\n        /* \"--CODEGEN--\":2:4   */\n    tag_109:\n        /* \"AllowanceSheet.sol\":720:870   */\n      dup2\n      add\n      swap1\n      dup1\n      dup1\n      calldataload\n      0xffffffffffffffffffffffffffffffffffffffff\n      and\n      swap1\n      0x20\n      add\n      swap1\n      swap3\n      swap2\n      swap1\n      dup1\n      calldataload\n      0xffffffffffffffffffffffffffffffffffffffff\n      and\n      swap1\n      0x20\n      add\n      swap1\n      swap3\n      swap2\n      swap1\n      dup1\n      calldataload\n      swap1\n      0x20\n      add\n      swap1\n      swap3\n      swap2\n      swap1\n      pop\n      pop\n      pop\n      tag_110\n      jump\t// in\n    tag_108:\n      stop\n        /* \"Token_V0.sol\":2045:2171   */\n    tag_29:\n      tag_111\n      0x04\n      dup1\n      calldatasize\n      sub\n        /* \"--CODEGEN--\":13:15   */\n      0x40\n        /* \"--CODEGEN--\":8:11   */\n      dup2\n        /* \"--CODEGEN--\":5:16   */\n      lt\n        /* \"--CODEGEN--\":2:4   */\n      iszero\n      tag_112\n      jumpi\n        /* \"--CODEGEN--\":29:30   */\n      0x00\n        /* \"--CODEGEN--\":26:27   */\n      dup1\n        /* \"--CODEGEN--\":19:31   */\n      revert\n        /* \"--CODEGEN--\":2:4   */\n    tag_112:\n        /* \"Token_V0.sol\":2045:2171   */\n      dup2\n      add\n      swap1\n      dup1\n      dup1\n      calldataload\n      0xffffffffffffffffffffffffffffffffffffffff\n      and\n      swap1\n      0x20\n      add\n      swap1\n      swap3\n      swap2\n      swap1\n      dup1\n      calldataload\n      0xffffffffffffffffffffffffffffffffffffffff\n      and\n      swap1\n      0x20\n      add\n      swap1\n      swap3\n      swap2\n      swap1\n      pop\n      pop\n      pop\n      tag_113\n      jump\t// in\n    tag_111:\n      mload(0x40)\n      dup1\n      dup3\n      dup2\n      mstore\n      0x20\n      add\n      swap2\n      pop\n      pop\n      mload(0x40)\n      dup1\n      swap2\n      sub\n      swap1\n      return\n        /* \"BalanceSheet.sol\":585:689   */\n    tag_30:\n      tag_114\n      0x04\n      dup1\n      calldatasize\n      sub\n        /* \"--CODEGEN--\":13:15   */\n      0x40\n        /* \"--CODEGEN--\":8:11   */\n      dup2\n        /* \"--CODEGEN--\":5:16   */\n      lt\n        /* \"--CODEGEN--\":2:4   */\n      iszero\n      tag_115\n      jumpi\n        /* \"--CODEGEN--\":29:30   */\n      0x00\n        /* \"--CODEGEN--\":26:27   */\n      dup1\n        /* \"--CODEGEN--\":19:31   */\n      revert\n        /* \"--CODEGEN--\":2:4   */\n    tag_115:\n        /* \"BalanceSheet.sol\":585:689   */\n      dup2\n      add\n      swap1\n      dup1\n      dup1\n      calldataload\n      0xffffffffffffffffffffffffffffffffffffffff\n      and\n      swap1\n      0x20\n      add\n      swap1\n      swap3\n      swap2\n      swap1\n      dup1\n      calldataload\n      swap1\n      0x20\n      add\n      swap1\n      swap3\n      swap2\n      swap1\n      pop\n      pop\n      pop\n      tag_116\n      jump\t// in\n    tag_114:\n      stop\n        /* \"helpers/Ownable.sol\":511:538   */\n    tag_31:\n      tag_117\n      tag_118\n      jump\t// in\n    tag_117:\n      mload(0x40)\n      dup1\n      dup3\n      0xffffffffffffffffffffffffffffffffffffffff\n      and\n      0xffffffffffffffffffffffffffffffffffffffff\n      and\n      dup2\n      mstore\n      0x20\n      add\n      swap2\n      pop\n      pop\n      mload(0x40)\n      dup1\n      swap2\n      sub\n      swap1\n      return\n        /* \"BalanceSheet.sol\":692:797   */\n    tag_32:\n      tag_119\n      0x04\n      dup1\n      calldatasize\n      sub\n        /* \"--CODEGEN--\":13:15   */\n      0x20\n        /* \"--CODEGEN--\":8:11   */\n      dup2\n        /* \"--CODEGEN--\":5:16   */\n      lt\n        /* \"--CODEGEN--\":2:4   */\n      iszero\n      tag_120\n      jumpi\n        /* \"--CODEGEN--\":29:30   */\n      0x00\n        /* \"--CODEGEN--\":26:27   */\n      dup1\n        /* \"--CODEGEN--\":19:31   */\n      revert\n        /* \"--CODEGEN--\":2:4   */\n    tag_120:\n        /* \"BalanceSheet.sol\":692:797   */\n      dup2\n      add\n      swap1\n      dup1\n      dup1\n      calldataload\n      swap1\n      0x20\n      add\n      swap1\n      swap3\n      swap2\n      swap1\n      pop\n      pop\n      pop\n      tag_121\n      jump\t// in\n    tag_119:\n      stop\n        /* \"helpers/Ownable.sol\":1300:1436   */\n    tag_33:\n      tag_122\n      0x04\n      dup1\n      calldatasize\n      sub\n        /* \"--CODEGEN--\":13:15   */\n      0x20\n        /* \"--CODEGEN--\":8:11   */\n      dup2\n        /* \"--CODEGEN--\":5:16   */\n      lt\n        /* \"--CODEGEN--\":2:4   */\n      iszero\n      tag_123\n      jumpi\n        /* \"--CODEGEN--\":29:30   */\n      0x00\n        /* \"--CODEGEN--\":26:27   */\n      dup1\n        /* \"--CODEGEN--\":19:31   */\n      revert\n        /* \"--CODEGEN--\":2:4   */\n    tag_123:\n        /* \"helpers/Ownable.sol\":1300:1436   */\n      dup2\n      add\n      swap1\n      dup1\n      dup1\n      calldataload\n      0xffffffffffffffffffffffffffffffffffffffff\n      and\n      swap1\n      0x20\n      add\n      swap1\n      swap3\n      swap2\n      swap1\n      pop\n      pop\n      pop\n      tag_124\n      jump\t// in\n    tag_122:\n      stop\n        /* \"BalanceSheet.sol\":908:996   */\n    tag_34:\n      tag_125\n      0x04\n      dup1\n      calldatasize\n      sub\n        /* \"--CODEGEN--\":13:15   */\n      0x20\n        /* \"--CODEGEN--\":8:11   */\n      dup2\n        /* \"--CODEGEN--\":5:16   */\n      lt\n        /* \"--CODEGEN--\":2:4   */\n      iszero\n      tag_126\n      jumpi\n        /* \"--CODEGEN--\":29:30   */\n      0x00\n        /* \"--CODEGEN--\":26:27   */\n      dup1\n        /* \"--CODEGEN--\":19:31   */\n      revert\n        /* \"--CODEGEN--\":2:4   */\n    tag_126:\n        /* \"BalanceSheet.sol\":908:996   */\n      dup2\n      add\n      swap1\n      dup1\n      dup1\n      calldataload\n      swap1\n      0x20\n      add\n      swap1\n      swap3\n      swap2\n      swap1\n      pop\n      pop\n      pop\n      tag_127\n      jump\t// in\n    tag_125:\n      stop\n        /* \"helpers/Lockable.sol\":872:958   */\n    tag_35:\n      tag_128\n      tag_129\n      jump\t// in\n    tag_128:\n      stop\n        /* \"Token_V0.sol\":1860:1955   */\n    tag_36:\n      tag_130\n      0x04\n      dup1\n      calldatasize\n      sub\n        /* \"--CODEGEN--\":13:15   */\n      0x20\n        /* \"--CODEGEN--\":8:11   */\n      dup2\n        /* \"--CODEGEN--\":5:16   */\n      lt\n        /* \"--CODEGEN--\":2:4   */\n      iszero\n      tag_131\n      jumpi\n        /* \"--CODEGEN--\":29:30   */\n      0x00\n        /* \"--CODEGEN--\":26:27   */\n      dup1\n        /* \"--CODEGEN--\":19:31   */\n      revert\n        /* \"--CODEGEN--\":2:4   */\n    tag_131:\n        /* \"Token_V0.sol\":1860:1955   */\n      dup2\n      add\n      swap1\n      dup1\n      dup1\n      calldataload\n      0xffffffffffffffffffffffffffffffffffffffff\n      and\n      swap1\n      0x20\n      add\n      swap1\n      swap3\n      swap2\n      swap1\n      pop\n      pop\n      pop\n      tag_132\n      jump\t// in\n    tag_130:\n      mload(0x40)\n      dup1\n      dup3\n      dup2\n      mstore\n      0x20\n      add\n      swap2\n      pop\n      pop\n      mload(0x40)\n      dup1\n      swap2\n      sub\n      swap1\n      return\n        /* \"Token_V1.sol\":787:950  function approve(address _spender, uint256 _value)... */\n    tag_46:\n        /* \"Token_V1.sol\":885:889  bool */\n      0x00\n        /* \"helpers/Pausable.sol\":298:304   */\n      0x05\n      0x00\n      swap1\n      sload\n      swap1\n      0x0100\n      exp\n      swap1\n      div\n      0xff\n      and\n        /* \"helpers/Pausable.sol\":297:304   */\n      iszero\n        /* \"helpers/Pausable.sol\":289:305   */\n      tag_134\n      jumpi\n      0x00\n      dup1\n      revert\n    tag_134:\n        /* \"helpers/Lockable.sol\":604:619   */\n      0x05\n      0x01\n      swap1\n      sload\n      swap1\n      0x0100\n      exp\n      swap1\n      div\n      0xff\n      and\n        /* \"helpers/Lockable.sol\":596:620   */\n      tag_136\n      jumpi\n      0x00\n      dup1\n      revert\n    tag_136:\n        /* \"Token_V1.sol\":897:928  super.approve(_spender, _value) */\n      tag_138\n        /* \"Token_V1.sol\":911:919  _spender */\n      dup4\n        /* \"Token_V1.sol\":921:927  _value */\n      dup4\n        /* \"Token_V1.sol\":897:910  super.approve */\n      tag_139\n        /* \"Token_V1.sol\":897:928  super.approve(_spender, _value) */\n      jump\t// in\n    tag_138:\n      pop\n        /* \"Token_V1.sol\":941:945  true */\n      0x01\n        /* \"Token_V1.sol\":934:945  return true */\n      swap1\n      pop\n        /* \"Token_V1.sol\":787:950  function approve(address _spender, uint256 _value)... */\n      swap3\n      swap2\n      pop\n      pop\n      jump\t// out\n        /* \"BalanceSheet.sol\":294:320   */\n    tag_48:\n      sload(0x03)\n      dup2\n      jump\t// out\n        /* \"AllowanceSheet.sol\":251:319   */\n    tag_51:\n      mstore(0x20, 0x04)\n      dup2\n      0x00\n      mstore\n      mstore(0x20, keccak256(0x00, 0x40))\n      dup1\n      0x00\n      mstore\n      keccak256(0x00, 0x40)\n      0x00\n      swap2\n      pop\n      swap2\n      pop\n      pop\n      sload\n      dup2\n      jump\t// out\n        /* \"BalanceSheet.sol\":327:453   */\n    tag_54:\n        /* \"helpers/Ownable.sol\":955:960   */\n      0x00\n      dup1\n      swap1\n      sload\n      swap1\n      0x0100\n      exp\n      swap1\n      div\n      0xffffffffffffffffffffffffffffffffffffffff\n      and\n        /* \"helpers/Ownable.sol\":941:960   */\n      0xffffffffffffffffffffffffffffffffffffffff\n      and\n        /* \"helpers/Ownable.sol\":941:951   */\n      caller\n        /* \"helpers/Ownable.sol\":941:960   */\n      0xffffffffffffffffffffffffffffffffffffffff\n      and\n      eq\n        /* \"helpers/Ownable.sol\":933:961   */\n      tag_141\n      jumpi\n      0x00\n      dup1\n      revert\n    tag_141:\n        /* \"BalanceSheet.sol\":420:448   */\n      tag_143\n        /* \"BalanceSheet.sol\":441:447   */\n      dup2\n        /* \"BalanceSheet.sol\":420:429   */\n      0x02\n        /* \"BalanceSheet.sol\":420:436   */\n      0x00\n        /* \"BalanceSheet.sol\":430:435   */\n      dup6\n        /* \"BalanceSheet.sol\":420:436   */\n      0xffffffffffffffffffffffffffffffffffffffff\n      and\n      0xffffffffffffffffffffffffffffffffffffffff\n      and\n      dup2\n      mstore\n      0x20\n      add\n      swap1\n      dup2\n      mstore\n      0x20\n      add\n      0x00\n      keccak256\n      sload\n        /* \"BalanceSheet.sol\":420:440   */\n      tag_144\n      swap1\n        /* \"BalanceSheet.sol\":420:448   */\n      swap2\n      swap1\n      0xffffffff\n      and\n      jump\t// in\n    tag_143:\n        /* \"BalanceSheet.sol\":401:410   */\n      0x02\n        /* \"BalanceSheet.sol\":401:417   */\n      0x00\n        /* \"BalanceSheet.sol\":411:416   */\n      dup5\n        /* \"BalanceSheet.sol\":401:417   */\n      0xffffffffffffffffffffffffffffffffffffffff\n      and\n      0xffffffffffffffffffffffffffffffffffffffff\n      and\n      dup2\n      mstore\n      0x20\n      add\n      swap1\n      dup2\n      mstore\n      0x20\n      add\n      0x00\n      keccak256\n        /* \"BalanceSheet.sol\":401:448   */\n      dup2\n      swap1\n      sstore\n      pop\n        /* \"BalanceSheet.sol\":327:453   */\n      pop\n      pop\n      jump\t// out\n        /* \"Token_V1.sol\":3007:3180  function transferFrom(address _from, address _to, uint256 _amount)... */\n    tag_57:\n        /* \"Token_V1.sol\":3107:3111  bool */\n      0x00\n        /* \"helpers/Pausable.sol\":298:304   */\n      0x05\n      0x00\n      swap1\n      sload\n      swap1\n      0x0100\n      exp\n      swap1\n      div\n      0xff\n      and\n        /* \"helpers/Pausable.sol\":297:304   */\n      iszero\n        /* \"helpers/Pausable.sol\":289:305   */\n      tag_146\n      jumpi\n      0x00\n      dup1\n      revert\n    tag_146:\n        /* \"Token_V1.sol\":3119:3158  super.transferFrom(_from, _to, _amount) */\n      tag_148\n        /* \"Token_V1.sol\":3138:3143  _from */\n      dup5\n        /* \"Token_V1.sol\":3145:3148  _to */\n      dup5\n        /* \"Token_V1.sol\":3150:3157  _amount */\n      dup5\n        /* \"Token_V1.sol\":3119:3137  super.transferFrom */\n      tag_149\n        /* \"Token_V1.sol\":3119:3158  super.transferFrom(_from, _to, _amount) */\n      jump\t// in\n    tag_148:\n      pop\n        /* \"Token_V1.sol\":3171:3175  true */\n      0x01\n        /* \"Token_V1.sol\":3164:3175  return true */\n      swap1\n      pop\n        /* \"Token_V1.sol\":3007:3180  function transferFrom(address _from, address _to, uint256 _amount)... */\n      swap4\n      swap3\n      pop\n      pop\n      pop\n      jump\t// out\n        /* \"helpers/Pausable.sol\":722:814   */\n    tag_59:\n        /* \"helpers/Ownable.sol\":955:960   */\n      0x00\n      dup1\n      swap1\n      sload\n      swap1\n      0x0100\n      exp\n      swap1\n      div\n      0xffffffffffffffffffffffffffffffffffffffff\n      and\n        /* \"helpers/Ownable.sol\":941:960   */\n      0xffffffffffffffffffffffffffffffffffffffff\n      and\n        /* \"helpers/Ownable.sol\":941:951   */\n      caller\n        /* \"helpers/Ownable.sol\":941:960   */\n      0xffffffffffffffffffffffffffffffffffffffff\n      and\n      eq\n        /* \"helpers/Ownable.sol\":933:961   */\n      tag_151\n      jumpi\n      0x00\n      dup1\n      revert\n    tag_151:\n        /* \"helpers/Pausable.sol\":452:458   */\n      0x05\n      0x00\n      swap1\n      sload\n      swap1\n      0x0100\n      exp\n      swap1\n      div\n      0xff\n      and\n        /* \"helpers/Pausable.sol\":444:459   */\n      tag_153\n      jumpi\n      0x00\n      dup1\n      revert\n    tag_153:\n        /* \"helpers/Pausable.sol\":784:789   */\n      0x00\n        /* \"helpers/Pausable.sol\":775:781   */\n      0x05\n      0x00\n        /* \"helpers/Pausable.sol\":775:789   */\n      0x0100\n      exp\n      dup2\n      sload\n      dup2\n      0xff\n      mul\n      not\n      and\n      swap1\n      dup4\n      iszero\n      iszero\n      mul\n      or\n      swap1\n      sstore\n      pop\n        /* \"helpers/Pausable.sol\":800:809   */\n      0x7805862f689e2f13df9f062ff482ad3ad112aca9e0847911ed832e158c525b33\n      mload(0x40)\n      mload(0x40)\n      dup1\n      swap2\n      sub\n      swap1\n      log1\n        /* \"helpers/Pausable.sol\":722:814   */\n      jump\t// out\n        /* \"Token_V1.sol\":239:339  function mint(address _to, uint256 _amount) public whenNotPaused {... */\n    tag_62:\n        /* \"helpers/Pausable.sol\":298:304   */\n      0x05\n      0x00\n      swap1\n      sload\n      swap1\n      0x0100\n      exp\n      swap1\n      div\n      0xff\n      and\n        /* \"helpers/Pausable.sol\":297:304   */\n      iszero\n        /* \"helpers/Pausable.sol\":289:305   */\n      tag_156\n      jumpi\n      0x00\n      dup1\n      revert\n    tag_156:\n        /* \"Token_V1.sol\":310:334  super.mint(_to, _amount) */\n      tag_158\n        /* \"Token_V1.sol\":321:324  _to */\n      dup3\n        /* \"Token_V1.sol\":326:333  _amount */\n      dup3\n        /* \"Token_V1.sol\":310:320  super.mint */\n      tag_159\n        /* \"Token_V1.sol\":310:334  super.mint(_to, _amount) */\n      jump\t// in\n    tag_158:\n        /* \"Token_V1.sol\":239:339  function mint(address _to, uint256 _amount) public whenNotPaused {... */\n      pop\n      pop\n      jump\t// out\n        /* \"Token_V1.sol\":345:427  function burn(uint256 _amount) public whenNotPaused {... */\n    tag_65:\n        /* \"helpers/Pausable.sol\":298:304   */\n      0x05\n      0x00\n      swap1\n      sload\n      swap1\n      0x0100\n      exp\n      swap1\n      div\n      0xff\n      and\n        /* \"helpers/Pausable.sol\":297:304   */\n      iszero\n        /* \"helpers/Pausable.sol\":289:305   */\n      tag_161\n      jumpi\n      0x00\n      dup1\n      revert\n    tag_161:\n        /* \"Token_V1.sol\":403:422  super.burn(_amount) */\n      tag_163\n        /* \"Token_V1.sol\":414:421  _amount */\n      dup2\n        /* \"Token_V1.sol\":403:413  super.burn */\n      tag_164\n        /* \"Token_V1.sol\":403:422  super.burn(_amount) */\n      jump\t// in\n    tag_163:\n        /* \"Token_V1.sol\":345:427  function burn(uint256 _amount) public whenNotPaused {... */\n      pop\n      jump\t// out\n        /* \"helpers/Pausable.sol\":130:156   */\n    tag_67:\n      0x05\n      0x00\n      swap1\n      sload\n      swap1\n      0x0100\n      exp\n      swap1\n      div\n      0xff\n      and\n      dup2\n      jump\t// out\n        /* \"AllowanceSheet.sol\":326:517   */\n    tag_70:\n        /* \"helpers/Ownable.sol\":955:960   */\n      0x00\n      dup1\n      swap1\n      sload\n      swap1\n      0x0100\n      exp\n      swap1\n      div\n      0xffffffffffffffffffffffffffffffffffffffff\n      and\n        /* \"helpers/Ownable.sol\":941:960   */\n      0xffffffffffffffffffffffffffffffffffffffff\n      and\n        /* \"helpers/Ownable.sol\":941:951   */\n      caller\n        /* \"helpers/Ownable.sol\":941:960   */\n      0xffffffffffffffffffffffffffffffffffffffff\n      and\n      eq\n        /* \"helpers/Ownable.sol\":933:961   */\n      tag_166\n      jumpi\n      0x00\n      dup1\n      revert\n    tag_166:\n        /* \"AllowanceSheet.sol\":465:512   */\n      tag_168\n        /* \"AllowanceSheet.sol\":505:511   */\n      dup2\n        /* \"AllowanceSheet.sol\":465:476   */\n      0x04\n        /* \"AllowanceSheet.sol\":465:490   */\n      0x00\n        /* \"AllowanceSheet.sol\":477:489   */\n      dup7\n        /* \"AllowanceSheet.sol\":465:490   */\n      0xffffffffffffffffffffffffffffffffffffffff\n      and\n      0xffffffffffffffffffffffffffffffffffffffff\n      and\n      dup2\n      mstore\n      0x20\n      add\n      swap1\n      dup2\n      mstore\n      0x20\n      add\n      0x00\n      keccak256\n        /* \"AllowanceSheet.sol\":465:500   */\n      0x00\n        /* \"AllowanceSheet.sol\":491:499   */\n      dup6\n        /* \"AllowanceSheet.sol\":465:500   */\n      0xffffffffffffffffffffffffffffffffffffffff\n      and\n      0xffffffffffffffffffffffffffffffffffffffff\n      and\n      dup2\n      mstore\n      0x20\n      add\n      swap1\n      dup2\n      mstore\n      0x20\n      add\n      0x00\n      keccak256\n      sload\n        /* \"AllowanceSheet.sol\":465:504   */\n      tag_144\n      swap1\n        /* \"AllowanceSheet.sol\":465:512   */\n      swap2\n      swap1\n      0xffffffff\n      and\n      jump\t// in\n    tag_168:\n        /* \"AllowanceSheet.sol\":427:438   */\n      0x04\n        /* \"AllowanceSheet.sol\":427:452   */\n      0x00\n        /* \"AllowanceSheet.sol\":439:451   */\n      dup6\n        /* \"AllowanceSheet.sol\":427:452   */\n      0xffffffffffffffffffffffffffffffffffffffff\n      and\n      0xffffffffffffffffffffffffffffffffffffffff\n      and\n      dup2\n      mstore\n      0x20\n      add\n      swap1\n      dup2\n      mstore\n      0x20\n      add\n      0x00\n      keccak256\n        /* \"AllowanceSheet.sol\":427:462   */\n      0x00\n        /* \"AllowanceSheet.sol\":453:461   */\n      dup5\n        /* \"AllowanceSheet.sol\":427:462   */\n      0xffffffffffffffffffffffffffffffffffffffff\n      and\n      0xffffffffffffffffffffffffffffffffffffffff\n      and\n      dup2\n      mstore\n      0x20\n      add\n      swap1\n      dup2\n      mstore\n      0x20\n      add\n      0x00\n      keccak256\n        /* \"AllowanceSheet.sol\":427:512   */\n      dup2\n      swap1\n      sstore\n      pop\n        /* \"AllowanceSheet.sol\":326:517   */\n      pop\n      pop\n      pop\n      jump\t// out\n        /* \"Token_V1.sol\":1823:2026  function decreaseApproval(address _spender, uint256 _substractedValue)... */\n    tag_73:\n        /* \"Token_V1.sol\":1928:1932  bool */\n      0x00\n        /* \"helpers/Pausable.sol\":298:304   */\n      0x05\n      0x00\n      swap1\n      sload\n      swap1\n      0x0100\n      exp\n      swap1\n      div\n      0xff\n      and\n        /* \"helpers/Pausable.sol\":297:304   */\n      iszero\n        /* \"helpers/Pausable.sol\":289:305   */\n      tag_170\n      jumpi\n      0x00\n      dup1\n      revert\n    tag_170:\n        /* \"Token_V1.sol\":1940:2004  decreaseApprovalAllArgs(_spender, _substractedValue, msg.sender) */\n      tag_172\n        /* \"Token_V1.sol\":1964:1972  _spender */\n      dup4\n        /* \"Token_V1.sol\":1974:1991  _substractedValue */\n      dup4\n        /* \"Token_V1.sol\":1993:2003  msg.sender */\n      caller\n        /* \"Token_V1.sol\":1940:1963  decreaseApprovalAllArgs */\n      tag_173\n        /* \"Token_V1.sol\":1940:2004  decreaseApprovalAllArgs(_spender, _substractedValue, msg.sender) */\n      jump\t// in\n    tag_172:\n        /* \"Token_V1.sol\":2017:2021  true */\n      0x01\n        /* \"Token_V1.sol\":2010:2021  return true */\n      swap1\n      pop\n        /* \"Token_V1.sol\":1823:2026  function decreaseApproval(address _spender, uint256 _substractedValue)... */\n      swap3\n      swap2\n      pop\n      pop\n      jump\t// out\n        /* \"BalanceSheet.sol\":245:290   */\n    tag_76:\n      mstore(0x20, 0x02)\n      dup1\n      0x00\n      mstore\n      keccak256(0x00, 0x40)\n      0x00\n      swap2\n      pop\n      swap1\n      pop\n      sload\n      dup2\n      jump\t// out\n        /* \"BalanceSheet.sol\":800:905   */\n    tag_79:\n        /* \"helpers/Ownable.sol\":955:960   */\n      0x00\n      dup1\n      swap1\n      sload\n      swap1\n      0x0100\n      exp\n      swap1\n      div\n      0xffffffffffffffffffffffffffffffffffffffff\n      and\n        /* \"helpers/Ownable.sol\":941:960   */\n      0xffffffffffffffffffffffffffffffffffffffff\n      and\n        /* \"helpers/Ownable.sol\":941:951   */\n      caller\n        /* \"helpers/Ownable.sol\":941:960   */\n      0xffffffffffffffffffffffffffffffffffffffff\n      and\n      eq\n        /* \"helpers/Ownable.sol\":933:961   */\n      tag_175\n      jumpi\n      0x00\n      dup1\n      revert\n    tag_175:\n        /* \"BalanceSheet.sol\":877:900   */\n      tag_177\n        /* \"BalanceSheet.sol\":893:899   */\n      dup2\n        /* \"BalanceSheet.sol\":877:888   */\n      sload(0x03)\n        /* \"BalanceSheet.sol\":877:892   */\n      tag_178\n      swap1\n        /* \"BalanceSheet.sol\":877:900   */\n      swap2\n      swap1\n      0xffffffff\n      and\n      jump\t// in\n    tag_177:\n        /* \"BalanceSheet.sol\":863:874   */\n      0x03\n        /* \"BalanceSheet.sol\":863:900   */\n      dup2\n      swap1\n      sstore\n      pop\n        /* \"BalanceSheet.sol\":800:905   */\n      pop\n      jump\t// out\n        /* \"helpers/Pausable.sol\":550:640   */\n    tag_81:\n        /* \"helpers/Ownable.sol\":955:960   */\n      0x00\n      dup1\n      swap1\n      sload\n      swap1\n      0x0100\n      exp\n      swap1\n      div\n      0xffffffffffffffffffffffffffffffffffffffff\n      and\n        /* \"helpers/Ownable.sol\":941:960   */\n      0xffffffffffffffffffffffffffffffffffffffff\n      and\n        /* \"helpers/Ownable.sol\":941:951   */\n      caller\n        /* \"helpers/Ownable.sol\":941:960   */\n      0xffffffffffffffffffffffffffffffffffffffff\n      and\n      eq\n        /* \"helpers/Ownable.sol\":933:961   */\n      tag_180\n      jumpi\n      0x00\n      dup1\n      revert\n    tag_180:\n        /* \"helpers/Pausable.sol\":298:304   */\n      0x05\n      0x00\n      swap1\n      sload\n      swap1\n      0x0100\n      exp\n      swap1\n      div\n      0xff\n      and\n        /* \"helpers/Pausable.sol\":297:304   */\n      iszero\n        /* \"helpers/Pausable.sol\":289:305   */\n      tag_182\n      jumpi\n      0x00\n      dup1\n      revert\n    tag_182:\n        /* \"helpers/Pausable.sol\":613:617   */\n      0x01\n        /* \"helpers/Pausable.sol\":604:610   */\n      0x05\n      0x00\n        /* \"helpers/Pausable.sol\":604:617   */\n      0x0100\n      exp\n      dup2\n      sload\n      dup2\n      0xff\n      mul\n      not\n      and\n      swap1\n      dup4\n      iszero\n      iszero\n      mul\n      or\n      swap1\n      sstore\n      pop\n        /* \"helpers/Pausable.sol\":628:635   */\n      0x6985a02210a168e66602d3235cb6db0e70f92b3ba4d376a33c0f3d9434bff625\n      mload(0x40)\n      mload(0x40)\n      dup1\n      swap2\n      sub\n      swap1\n      log1\n        /* \"helpers/Pausable.sol\":550:640   */\n      jump\t// out\n        /* \"helpers/Lockable.sol\":423:458   */\n    tag_83:\n      0x05\n      0x01\n      swap1\n      sload\n      swap1\n      0x0100\n      exp\n      swap1\n      div\n      0xff\n      and\n      dup2\n      jump\t// out\n        /* \"TokenStorage.sol\":315:394   */\n    tag_85:\n        /* \"TokenStorage.sol\":365:387   */\n      tag_185\n        /* \"TokenStorage.sol\":365:385   */\n      tag_107\n        /* \"TokenStorage.sol\":365:387   */\n      jump\t// in\n    tag_185:\n        /* \"TokenStorage.sol\":315:394   */\n      jump\t// out\n        /* \"helpers/Ownable.sol\":487:507   */\n    tag_87:\n      0x00\n      dup1\n      swap1\n      sload\n      swap1\n      0x0100\n      exp\n      swap1\n      div\n      0xffffffffffffffffffffffffffffffffffffffff\n      and\n      dup2\n      jump\t// out\n        /* \"AllowanceSheet.sol\":523:714   */\n    tag_90:\n        /* \"helpers/Ownable.sol\":955:960   */\n      0x00\n      dup1\n      swap1\n      sload\n      swap1\n      0x0100\n      exp\n      swap1\n      div\n      0xffffffffffffffffffffffffffffffffffffffff\n      and\n        /* \"helpers/Ownable.sol\":941:960   */\n      0xffffffffffffffffffffffffffffffffffffffff\n      and\n        /* \"helpers/Ownable.sol\":941:951   */\n      caller\n        /* \"helpers/Ownable.sol\":941:960   */\n      0xffffffffffffffffffffffffffffffffffffffff\n      and\n      eq\n        /* \"helpers/Ownable.sol\":933:961   */\n      tag_187\n      jumpi\n      0x00\n      dup1\n      revert\n    tag_187:\n        /* \"AllowanceSheet.sol\":662:709   */\n      tag_189\n        /* \"AllowanceSheet.sol\":702:708   */\n      dup2\n        /* \"AllowanceSheet.sol\":662:673   */\n      0x04\n        /* \"AllowanceSheet.sol\":662:687   */\n      0x00\n        /* \"AllowanceSheet.sol\":674:686   */\n      dup7\n        /* \"AllowanceSheet.sol\":662:687   */\n      0xffffffffffffffffffffffffffffffffffffffff\n      and\n      0xffffffffffffffffffffffffffffffffffffffff\n      and\n      dup2\n      mstore\n      0x20\n      add\n      swap1\n      dup2\n      mstore\n      0x20\n      add\n      0x00\n      keccak256\n        /* \"AllowanceSheet.sol\":662:697   */\n      0x00\n        /* \"AllowanceSheet.sol\":688:696   */\n      dup6\n        /* \"AllowanceSheet.sol\":662:697   */\n      0xffffffffffffffffffffffffffffffffffffffff\n      and\n      0xffffffffffffffffffffffffffffffffffffffff\n      and\n      dup2\n      mstore\n      0x20\n      add\n      swap1\n      dup2\n      mstore\n      0x20\n      add\n      0x00\n      keccak256\n      sload\n        /* \"AllowanceSheet.sol\":662:701   */\n      tag_178\n      swap1\n        /* \"AllowanceSheet.sol\":662:709   */\n      swap2\n      swap1\n      0xffffffff\n      and\n      jump\t// in\n    tag_189:\n        /* \"AllowanceSheet.sol\":624:635   */\n      0x04\n        /* \"AllowanceSheet.sol\":624:649   */\n      0x00\n        /* \"AllowanceSheet.sol\":636:648   */\n      dup6\n        /* \"AllowanceSheet.sol\":624:649   */\n      0xffffffffffffffffffffffffffffffffffffffff\n      and\n      0xffffffffffffffffffffffffffffffffffffffff\n      and\n      dup2\n      mstore\n      0x20\n      add\n      swap1\n      dup2\n      mstore\n      0x20\n      add\n      0x00\n      keccak256\n        /* \"AllowanceSheet.sol\":624:659   */\n      0x00\n        /* \"AllowanceSheet.sol\":650:658   */\n      dup5\n        /* \"AllowanceSheet.sol\":624:659   */\n      0xffffffffffffffffffffffffffffffffffffffff\n      and\n      0xffffffffffffffffffffffffffffffffffffffff\n      and\n      dup2\n      mstore\n      0x20\n      add\n      swap1\n      dup2\n      mstore\n      0x20\n      add\n      0x00\n      keccak256\n        /* \"AllowanceSheet.sol\":624:709   */\n      dup2\n      swap1\n      sstore\n      pop\n        /* \"AllowanceSheet.sol\":523:714   */\n      pop\n      pop\n      pop\n      jump\t// out\n        /* \"TokenStorage.sol\":482:563   */\n    tag_92:\n        /* \"TokenStorage.sol\":534:556   */\n      tag_191\n        /* \"TokenStorage.sol\":534:554   */\n      tag_107\n        /* \"TokenStorage.sol\":534:556   */\n      jump\t// in\n    tag_191:\n        /* \"TokenStorage.sol\":482:563   */\n      jump\t// out\n        /* \"helpers/Lockable.sol\":697:786   */\n    tag_94:\n        /* \"helpers/Ownable.sol\":955:960   */\n      0x00\n      dup1\n      swap1\n      sload\n      swap1\n      0x0100\n      exp\n      swap1\n      div\n      0xffffffffffffffffffffffffffffffffffffffff\n      and\n        /* \"helpers/Ownable.sol\":941:960   */\n      0xffffffffffffffffffffffffffffffffffffffff\n      and\n        /* \"helpers/Ownable.sol\":941:951   */\n      caller\n        /* \"helpers/Ownable.sol\":941:960   */\n      0xffffffffffffffffffffffffffffffffffffffff\n      and\n      eq\n        /* \"helpers/Ownable.sol\":933:961   */\n      tag_193\n      jumpi\n      0x00\n      dup1\n      revert\n    tag_193:\n        /* \"helpers/Lockable.sol\":756:760   */\n      0x01\n        /* \"helpers/Lockable.sol\":738:753   */\n      0x05\n      0x01\n        /* \"helpers/Lockable.sol\":738:760   */\n      0x0100\n      exp\n      dup2\n      sload\n      dup2\n      0xff\n      mul\n      not\n      and\n      swap1\n      dup4\n      iszero\n      iszero\n      mul\n      or\n      swap1\n      sstore\n      pop\n        /* \"helpers/Lockable.sol\":771:781   */\n      0x19aad37188a1d3921e29eb3c66acf43d81975e107cb650d58cca878627955fd6\n      mload(0x40)\n      mload(0x40)\n      dup1\n      swap2\n      sub\n      swap1\n      log1\n        /* \"helpers/Lockable.sol\":697:786   */\n      jump\t// out\n        /* \"Token_V1.sol\":2032:2172  function transfer(address _to, uint256 _amount) public whenNotPaused returns (bool) {... */\n    tag_97:\n        /* \"Token_V1.sol\":2110:2114  bool */\n      0x00\n        /* \"helpers/Pausable.sol\":298:304   */\n      0x05\n      0x00\n      swap1\n      sload\n      swap1\n      0x0100\n      exp\n      swap1\n      div\n      0xff\n      and\n        /* \"helpers/Pausable.sol\":297:304   */\n      iszero\n        /* \"helpers/Pausable.sol\":289:305   */\n      tag_196\n      jumpi\n      0x00\n      dup1\n      revert\n    tag_196:\n        /* \"Token_V1.sol\":2122:2150  super.transfer(_to, _amount) */\n      tag_198\n        /* \"Token_V1.sol\":2137:2140  _to */\n      dup4\n        /* \"Token_V1.sol\":2142:2149  _amount */\n      dup4\n        /* \"Token_V1.sol\":2122:2136  super.transfer */\n      tag_199\n        /* \"Token_V1.sol\":2122:2150  super.transfer(_to, _amount) */\n      jump\t// in\n    tag_198:\n      pop\n        /* \"Token_V1.sol\":2163:2167  true */\n      0x01\n        /* \"Token_V1.sol\":2156:2167  return true */\n      swap1\n      pop\n        /* \"Token_V1.sol\":2032:2172  function transfer(address _to, uint256 _amount) public whenNotPaused returns (bool) {... */\n      swap3\n      swap2\n      pop\n      pop\n      jump\t// out\n        /* \"Token_V0.sol\":2263:2348   */\n    tag_99:\n        /* \"Token_V0.sol\":2310:2317   */\n      0x00\n        /* \"Token_V0.sol\":2332:2343   */\n      sload(0x03)\n        /* \"Token_V0.sol\":2325:2343   */\n      swap1\n      pop\n        /* \"Token_V0.sol\":2263:2348   */\n      swap1\n      jump\t// out\n        /* \"BalanceSheet.sol\":456:582   */\n    tag_102:\n        /* \"helpers/Ownable.sol\":955:960   */\n      0x00\n      dup1\n      swap1\n      sload\n      swap1\n      0x0100\n      exp\n      swap1\n      div\n      0xffffffffffffffffffffffffffffffffffffffff\n      and\n        /* \"helpers/Ownable.sol\":941:960   */\n      0xffffffffffffffffffffffffffffffffffffffff\n      and\n        /* \"helpers/Ownable.sol\":941:951   */\n      caller\n        /* \"helpers/Ownable.sol\":941:960   */\n      0xffffffffffffffffffffffffffffffffffffffff\n      and\n      eq\n        /* \"helpers/Ownable.sol\":933:961   */\n      tag_202\n      jumpi\n      0x00\n      dup1\n      revert\n    tag_202:\n        /* \"BalanceSheet.sol\":549:577   */\n      tag_204\n        /* \"BalanceSheet.sol\":570:576   */\n      dup2\n        /* \"BalanceSheet.sol\":549:558   */\n      0x02\n        /* \"BalanceSheet.sol\":549:565   */\n      0x00\n        /* \"BalanceSheet.sol\":559:564   */\n      dup6\n        /* \"BalanceSheet.sol\":549:565   */\n      0xffffffffffffffffffffffffffffffffffffffff\n      and\n      0xffffffffffffffffffffffffffffffffffffffff\n      and\n      dup2\n      mstore\n      0x20\n      add\n      swap1\n      dup2\n      mstore\n      0x20\n      add\n      0x00\n      keccak256\n      sload\n        /* \"BalanceSheet.sol\":549:569   */\n      tag_178\n      swap1\n        /* \"BalanceSheet.sol\":549:577   */\n      swap2\n      swap1\n      0xffffffff\n      and\n      jump\t// in\n    tag_204:\n        /* \"BalanceSheet.sol\":530:539   */\n      0x02\n        /* \"BalanceSheet.sol\":530:546   */\n      0x00\n        /* \"BalanceSheet.sol\":540:545   */\n      dup5\n        /* \"BalanceSheet.sol\":530:546   */\n      0xffffffffffffffffffffffffffffffffffffffff\n      and\n      0xffffffffffffffffffffffffffffffffffffffff\n      and\n      dup2\n      mstore\n      0x20\n      add\n      swap1\n      dup2\n      mstore\n      0x20\n      add\n      0x00\n      keccak256\n        /* \"BalanceSheet.sol\":530:577   */\n      dup2\n      swap1\n      sstore\n      pop\n        /* \"BalanceSheet.sol\":456:582   */\n      pop\n      pop\n      jump\t// out\n        /* \"Token_V1.sol\":1533:1724  function increaseApproval(address _spender, uint256 _addedValue)... */\n    tag_105:\n        /* \"Token_V1.sol\":1632:1636  bool */\n      0x00\n        /* \"helpers/Pausable.sol\":298:304   */\n      0x05\n      0x00\n      swap1\n      sload\n      swap1\n      0x0100\n      exp\n      swap1\n      div\n      0xff\n      and\n        /* \"helpers/Pausable.sol\":297:304   */\n      iszero\n        /* \"helpers/Pausable.sol\":289:305   */\n      tag_206\n      jumpi\n      0x00\n      dup1\n      revert\n    tag_206:\n        /* \"Token_V1.sol\":1644:1702  increaseApprovalAllArgs(_spender, _addedValue, msg.sender) */\n      tag_208\n        /* \"Token_V1.sol\":1668:1676  _spender */\n      dup4\n        /* \"Token_V1.sol\":1678:1689  _addedValue */\n      dup4\n        /* \"Token_V1.sol\":1691:1701  msg.sender */\n      caller\n        /* \"Token_V1.sol\":1644:1667  increaseApprovalAllArgs */\n      tag_209\n        /* \"Token_V1.sol\":1644:1702  increaseApprovalAllArgs(_spender, _addedValue, msg.sender) */\n      jump\t// in\n    tag_208:\n        /* \"Token_V1.sol\":1715:1719  true */\n      0x01\n        /* \"Token_V1.sol\":1708:1719  return true */\n      swap1\n      pop\n        /* \"Token_V1.sol\":1533:1724  function increaseApproval(address _spender, uint256 _addedValue)... */\n      swap3\n      swap2\n      pop\n      pop\n      jump\t// out\n        /* \"helpers/Ownable.sol\":1520:1684   */\n    tag_107:\n        /* \"helpers/Ownable.sol\":1111:1123   */\n      0x01\n      0x00\n      swap1\n      sload\n      swap1\n      0x0100\n      exp\n      swap1\n      div\n      0xffffffffffffffffffffffffffffffffffffffff\n      and\n        /* \"helpers/Ownable.sol\":1097:1123   */\n      0xffffffffffffffffffffffffffffffffffffffff\n      and\n        /* \"helpers/Ownable.sol\":1097:1107   */\n      caller\n        /* \"helpers/Ownable.sol\":1097:1123   */\n      0xffffffffffffffffffffffffffffffffffffffff\n      and\n      eq\n        /* \"helpers/Ownable.sol\":1089:1124   */\n      tag_211\n      jumpi\n      0x00\n      dup1\n      revert\n    tag_211:\n        /* \"helpers/Ownable.sol\":1609:1621   */\n      0x01\n      0x00\n      swap1\n      sload\n      swap1\n      0x0100\n      exp\n      swap1\n      div\n      0xffffffffffffffffffffffffffffffffffffffff\n      and\n        /* \"helpers/Ownable.sol\":1581:1622   */\n      0xffffffffffffffffffffffffffffffffffffffff\n      and\n        /* \"helpers/Ownable.sol\":1602:1607   */\n      0x00\n      dup1\n      swap1\n      sload\n      swap1\n      0x0100\n      exp\n      swap1\n      div\n      0xffffffffffffffffffffffffffffffffffffffff\n      and\n        /* \"helpers/Ownable.sol\":1581:1622   */\n      0xffffffffffffffffffffffffffffffffffffffff\n      and\n      0x8be0079c531659141344cd1fd0a4f28419497f9722a3daafe3b4186f6b6457e0\n      mload(0x40)\n      mload(0x40)\n      dup1\n      swap2\n      sub\n      swap1\n      log3\n        /* \"helpers/Ownable.sol\":1636:1648   */\n      0x01\n      0x00\n      swap1\n      sload\n      swap1\n      0x0100\n      exp\n      swap1\n      div\n      0xffffffffffffffffffffffffffffffffffffffff\n      and\n        /* \"helpers/Ownable.sol\":1628:1633   */\n      0x00\n      dup1\n        /* \"helpers/Ownable.sol\":1628:1648   */\n      0x0100\n      exp\n      dup2\n      sload\n      dup2\n      0xffffffffffffffffffffffffffffffffffffffff\n      mul\n      not\n      and\n      swap1\n      dup4\n      0xffffffffffffffffffffffffffffffffffffffff\n      and\n      mul\n      or\n      swap1\n      sstore\n      pop\n        /* \"helpers/Ownable.sol\":1677:1678   */\n      0x00\n        /* \"helpers/Ownable.sol\":1654:1666   */\n      0x01\n      0x00\n        /* \"helpers/Ownable.sol\":1654:1679   */\n      0x0100\n      exp\n      dup2\n      sload\n      dup2\n      0xffffffffffffffffffffffffffffffffffffffff\n      mul\n      not\n      and\n      swap1\n      dup4\n      0xffffffffffffffffffffffffffffffffffffffff\n      and\n      mul\n      or\n      swap1\n      sstore\n      pop\n        /* \"helpers/Ownable.sol\":1520:1684   */\n      jump\t// out\n        /* \"AllowanceSheet.sol\":720:870   */\n    tag_110:\n        /* \"helpers/Ownable.sol\":955:960   */\n      0x00\n      dup1\n      swap1\n      sload\n      swap1\n      0x0100\n      exp\n      swap1\n      div\n      0xffffffffffffffffffffffffffffffffffffffff\n      and\n        /* \"helpers/Ownable.sol\":941:960   */\n      0xffffffffffffffffffffffffffffffffffffffff\n      and\n        /* \"helpers/Ownable.sol\":941:951   */\n      caller\n        /* \"helpers/Ownable.sol\":941:960   */\n      0xffffffffffffffffffffffffffffffffffffffff\n      and\n      eq\n        /* \"helpers/Ownable.sol\":933:961   */\n      tag_214\n      jumpi\n      0x00\n      dup1\n      revert\n    tag_214:\n        /* \"AllowanceSheet.sol\":859:865   */\n      dup1\n        /* \"AllowanceSheet.sol\":821:832   */\n      0x04\n        /* \"AllowanceSheet.sol\":821:846   */\n      0x00\n        /* \"AllowanceSheet.sol\":833:845   */\n      dup6\n        /* \"AllowanceSheet.sol\":821:846   */\n      0xffffffffffffffffffffffffffffffffffffffff\n      and\n      0xffffffffffffffffffffffffffffffffffffffff\n      and\n      dup2\n      mstore\n      0x20\n      add\n      swap1\n      dup2\n      mstore\n      0x20\n      add\n      0x00\n      keccak256\n        /* \"AllowanceSheet.sol\":821:856   */\n      0x00\n        /* \"AllowanceSheet.sol\":847:855   */\n      dup5\n        /* \"AllowanceSheet.sol\":821:856   */\n      0xffffffffffffffffffffffffffffffffffffffff\n      and\n      0xffffffffffffffffffffffffffffffffffffffff\n      and\n      dup2\n      mstore\n      0x20\n      add\n      swap1\n      dup2\n      mstore\n      0x20\n      add\n      0x00\n      keccak256\n        /* \"AllowanceSheet.sol\":821:865   */\n      dup2\n      swap1\n      sstore\n      pop\n        /* \"AllowanceSheet.sol\":720:870   */\n      pop\n      pop\n      pop\n      jump\t// out\n        /* \"Token_V0.sol\":2045:2171   */\n    tag_113:\n        /* \"Token_V0.sol\":2117:2124   */\n      0x00\n        /* \"Token_V0.sol\":2139:2150   */\n      0x04\n        /* \"Token_V0.sol\":2139:2157   */\n      0x00\n        /* \"Token_V0.sol\":2151:2156   */\n      dup5\n        /* \"Token_V0.sol\":2139:2157   */\n      0xffffffffffffffffffffffffffffffffffffffff\n      and\n      0xffffffffffffffffffffffffffffffffffffffff\n      and\n      dup2\n      mstore\n      0x20\n      add\n      swap1\n      dup2\n      mstore\n      0x20\n      add\n      0x00\n      keccak256\n        /* \"Token_V0.sol\":2139:2166   */\n      0x00\n        /* \"Token_V0.sol\":2158:2165   */\n      dup4\n        /* \"Token_V0.sol\":2139:2166   */\n      0xffffffffffffffffffffffffffffffffffffffff\n      and\n      0xffffffffffffffffffffffffffffffffffffffff\n      and\n      dup2\n      mstore\n      0x20\n      add\n      swap1\n      dup2\n      mstore\n      0x20\n      add\n      0x00\n      keccak256\n      sload\n        /* \"Token_V0.sol\":2132:2166   */\n      swap1\n      pop\n        /* \"Token_V0.sol\":2045:2171   */\n      swap3\n      swap2\n      pop\n      pop\n      jump\t// out\n        /* \"BalanceSheet.sol\":585:689   */\n    tag_116:\n        /* \"helpers/Ownable.sol\":955:960   */\n      0x00\n      dup1\n      swap1\n      sload\n      swap1\n      0x0100\n      exp\n      swap1\n      div\n      0xffffffffffffffffffffffffffffffffffffffff\n      and\n        /* \"helpers/Ownable.sol\":941:960   */\n      0xffffffffffffffffffffffffffffffffffffffff\n      and\n        /* \"helpers/Ownable.sol\":941:951   */\n      caller\n        /* \"helpers/Ownable.sol\":941:960   */\n      0xffffffffffffffffffffffffffffffffffffffff\n      and\n      eq\n        /* \"helpers/Ownable.sol\":933:961   */\n      tag_218\n      jumpi\n      0x00\n      dup1\n      revert\n    tag_218:\n        /* \"BalanceSheet.sol\":678:684   */\n      dup1\n        /* \"BalanceSheet.sol\":659:668   */\n      0x02\n        /* \"BalanceSheet.sol\":659:675   */\n      0x00\n        /* \"BalanceSheet.sol\":669:674   */\n      dup5\n        /* \"BalanceSheet.sol\":659:675   */\n      0xffffffffffffffffffffffffffffffffffffffff\n      and\n      0xffffffffffffffffffffffffffffffffffffffff\n      and\n      dup2\n      mstore\n      0x20\n      add\n      swap1\n      dup2\n      mstore\n      0x20\n      add\n      0x00\n      keccak256\n        /* \"BalanceSheet.sol\":659:684   */\n      dup2\n      swap1\n      sstore\n      pop\n        /* \"BalanceSheet.sol\":585:689   */\n      pop\n      pop\n      jump\t// out\n        /* \"helpers/Ownable.sol\":511:538   */\n    tag_118:\n      0x01\n      0x00\n      swap1\n      sload\n      swap1\n      0x0100\n      exp\n      swap1\n      div\n      0xffffffffffffffffffffffffffffffffffffffff\n      and\n      dup2\n      jump\t// out\n        /* \"BalanceSheet.sol\":692:797   */\n    tag_121:\n        /* \"helpers/Ownable.sol\":955:960   */\n      0x00\n      dup1\n      swap1\n      sload\n      swap1\n      0x0100\n      exp\n      swap1\n      div\n      0xffffffffffffffffffffffffffffffffffffffff\n      and\n        /* \"helpers/Ownable.sol\":941:960   */\n      0xffffffffffffffffffffffffffffffffffffffff\n      and\n        /* \"helpers/Ownable.sol\":941:951   */\n      caller\n        /* \"helpers/Ownable.sol\":941:960   */\n      0xffffffffffffffffffffffffffffffffffffffff\n      and\n      eq\n        /* \"helpers/Ownable.sol\":933:961   */\n      tag_221\n      jumpi\n      0x00\n      dup1\n      revert\n    tag_221:\n        /* \"BalanceSheet.sol\":769:792   */\n      tag_223\n        /* \"BalanceSheet.sol\":785:791   */\n      dup2\n        /* \"BalanceSheet.sol\":769:780   */\n      sload(0x03)\n        /* \"BalanceSheet.sol\":769:784   */\n      tag_144\n      swap1\n        /* \"BalanceSheet.sol\":769:792   */\n      swap2\n      swap1\n      0xffffffff\n      and\n      jump\t// in\n    tag_223:\n        /* \"BalanceSheet.sol\":755:766   */\n      0x03\n        /* \"BalanceSheet.sol\":755:792   */\n      dup2\n      swap1\n      sstore\n      pop\n        /* \"BalanceSheet.sol\":692:797   */\n      pop\n      jump\t// out\n        /* \"helpers/Ownable.sol\":1300:1436   */\n    tag_124:\n        /* \"helpers/Ownable.sol\":955:960   */\n      0x00\n      dup1\n      swap1\n      sload\n      swap1\n      0x0100\n      exp\n      swap1\n      div\n      0xffffffffffffffffffffffffffffffffffffffff\n      and\n        /* \"helpers/Ownable.sol\":941:960   */\n      0xffffffffffffffffffffffffffffffffffffffff\n      and\n        /* \"helpers/Ownable.sol\":941:951   */\n      caller\n        /* \"helpers/Ownable.sol\":941:960   */\n      0xffffffffffffffffffffffffffffffffffffffff\n      and\n      eq\n        /* \"helpers/Ownable.sol\":933:961   */\n      tag_225\n      jumpi\n      0x00\n      dup1\n      revert\n    tag_225:\n        /* \"helpers/Ownable.sol\":1398:1399   */\n      0x00\n        /* \"helpers/Ownable.sol\":1377:1400   */\n      0xffffffffffffffffffffffffffffffffffffffff\n      and\n        /* \"helpers/Ownable.sol\":1377:1386   */\n      dup2\n        /* \"helpers/Ownable.sol\":1377:1400   */\n      0xffffffffffffffffffffffffffffffffffffffff\n      and\n      eq\n      iszero\n        /* \"helpers/Ownable.sol\":1369:1401   */\n      tag_227\n      jumpi\n      0x00\n      dup1\n      revert\n    tag_227:\n        /* \"helpers/Ownable.sol\":1422:1431   */\n      dup1\n        /* \"helpers/Ownable.sol\":1407:1419   */\n      0x01\n      0x00\n        /* \"helpers/Ownable.sol\":1407:1431   */\n      0x0100\n      exp\n      dup2\n      sload\n      dup2\n      0xffffffffffffffffffffffffffffffffffffffff\n      mul\n      not\n      and\n      swap1\n      dup4\n      0xffffffffffffffffffffffffffffffffffffffff\n      and\n      mul\n      or\n      swap1\n      sstore\n      pop\n        /* \"helpers/Ownable.sol\":1300:1436   */\n      pop\n      jump\t// out\n        /* \"BalanceSheet.sol\":908:996   */\n    tag_127:\n        /* \"helpers/Ownable.sol\":955:960   */\n      0x00\n      dup1\n      swap1\n      sload\n      swap1\n      0x0100\n      exp\n      swap1\n      div\n      0xffffffffffffffffffffffffffffffffffffffff\n      and\n        /* \"helpers/Ownable.sol\":941:960   */\n      0xffffffffffffffffffffffffffffffffffffffff\n      and\n        /* \"helpers/Ownable.sol\":941:951   */\n      caller\n        /* \"helpers/Ownable.sol\":941:960   */\n      0xffffffffffffffffffffffffffffffffffffffff\n      and\n      eq\n        /* \"helpers/Ownable.sol\":933:961   */\n      tag_229\n      jumpi\n      0x00\n      dup1\n      revert\n    tag_229:\n        /* \"BalanceSheet.sol\":985:991   */\n      dup1\n        /* \"BalanceSheet.sol\":971:982   */\n      0x03\n        /* \"BalanceSheet.sol\":971:991   */\n      dup2\n      swap1\n      sstore\n      pop\n        /* \"BalanceSheet.sol\":908:996   */\n      pop\n      jump\t// out\n        /* \"helpers/Lockable.sol\":872:958   */\n    tag_129:\n        /* \"helpers/Ownable.sol\":955:960   */\n      0x00\n      dup1\n      swap1\n      sload\n      swap1\n      0x0100\n      exp\n      swap1\n      div\n      0xffffffffffffffffffffffffffffffffffffffff\n      and\n        /* \"helpers/Ownable.sol\":941:960   */\n      0xffffffffffffffffffffffffffffffffffffffff\n      and\n        /* \"helpers/Ownable.sol\":941:951   */\n      caller\n        /* \"helpers/Ownable.sol\":941:960   */\n      0xffffffffffffffffffffffffffffffffffffffff\n      and\n      eq\n        /* \"helpers/Ownable.sol\":933:961   */\n      tag_232\n      jumpi\n      0x00\n      dup1\n      revert\n    tag_232:\n        /* \"helpers/Lockable.sol\":929:934   */\n      0x00\n        /* \"helpers/Lockable.sol\":911:926   */\n      0x05\n      0x01\n        /* \"helpers/Lockable.sol\":911:934   */\n      0x0100\n      exp\n      dup2\n      sload\n      dup2\n      0xff\n      mul\n      not\n      and\n      swap1\n      dup4\n      iszero\n      iszero\n      mul\n      or\n      swap1\n      sstore\n      pop\n        /* \"helpers/Lockable.sol\":945:953   */\n      0x0f2e5b6c72c6a4491efd919a9f9a409f324ef0708c11ee57d410c2cb06c0992b\n      mload(0x40)\n      mload(0x40)\n      dup1\n      swap2\n      sub\n      swap1\n      log1\n        /* \"helpers/Lockable.sol\":872:958   */\n      jump\t// out\n        /* \"Token_V0.sol\":1860:1955   */\n    tag_132:\n        /* \"Token_V0.sol\":1914:1921   */\n      0x00\n        /* \"Token_V0.sol\":1936:1945   */\n      0x02\n        /* \"Token_V0.sol\":1936:1950   */\n      0x00\n        /* \"Token_V0.sol\":1946:1949   */\n      dup4\n        /* \"Token_V0.sol\":1936:1950   */\n      0xffffffffffffffffffffffffffffffffffffffff\n      and\n      0xffffffffffffffffffffffffffffffffffffffff\n      and\n      dup2\n      mstore\n      0x20\n      add\n      swap1\n      dup2\n      mstore\n      0x20\n      add\n      0x00\n      keccak256\n      sload\n        /* \"Token_V0.sol\":1929:1950   */\n      swap1\n      pop\n        /* \"Token_V0.sol\":1860:1955   */\n      swap2\n      swap1\n      pop\n      jump\t// out\n        /* \"Token_V0.sol\":738:936   */\n    tag_139:\n        /* \"Token_V0.sol\":805:809   */\n      0x00\n        /* \"Token_V0.sol\":817:865   */\n      tag_236\n        /* \"Token_V0.sol\":836:846   */\n      caller\n        /* \"Token_V0.sol\":848:856   */\n      dup5\n        /* \"Token_V0.sol\":858:864   */\n      dup5\n        /* \"Token_V0.sol\":817:835   */\n      tag_110\n        /* \"Token_V0.sol\":817:865   */\n      jump\t// in\n    tag_236:\n        /* \"Token_V0.sol\":897:905   */\n      dup3\n        /* \"Token_V0.sol\":876:914   */\n      0xffffffffffffffffffffffffffffffffffffffff\n      and\n        /* \"Token_V0.sol\":885:895   */\n      caller\n        /* \"Token_V0.sol\":876:914   */\n      0xffffffffffffffffffffffffffffffffffffffff\n      and\n      0x8c5be1e5ebec7d5bd14f71427d1e84f3dd0314c0f7b2291e5b200ac8c7c3b925\n        /* \"Token_V0.sol\":907:913   */\n      dup5\n        /* \"Token_V0.sol\":876:914   */\n      mload(0x40)\n      dup1\n      dup3\n      dup2\n      mstore\n      0x20\n      add\n      swap2\n      pop\n      pop\n      mload(0x40)\n      dup1\n      swap2\n      sub\n      swap1\n      log3\n        /* \"Token_V0.sol\":927:931   */\n      0x01\n        /* \"Token_V0.sol\":920:931   */\n      swap1\n      pop\n        /* \"Token_V0.sol\":738:936   */\n      swap3\n      swap2\n      pop\n      pop\n      jump\t// out\n        /* \"libs/SafeMath.sol\":822:984   */\n    tag_144:\n        /* \"libs/SafeMath.sol\":880:887   */\n      0x00\n        /* \"libs/SafeMath.sol\":895:904   */\n      dup1\n        /* \"libs/SafeMath.sol\":911:912   */\n      dup3\n        /* \"libs/SafeMath.sol\":907:908   */\n      dup5\n        /* \"libs/SafeMath.sol\":907:912   */\n      add\n        /* \"libs/SafeMath.sol\":895:912   */\n      swap1\n      pop\n        /* \"libs/SafeMath.sol\":931:932   */\n      dup4\n        /* \"libs/SafeMath.sol\":926:927   */\n      dup2\n        /* \"libs/SafeMath.sol\":926:932   */\n      lt\n      iszero\n        /* \"libs/SafeMath.sol\":918:964   */\n      tag_238\n      jumpi\n      mload(0x40)\n      0x08c379a000000000000000000000000000000000000000000000000000000000\n      dup2\n      mstore\n      0x04\n      add\n      dup1\n      dup1\n      0x20\n      add\n      dup3\n      dup2\n      sub\n      dup3\n      mstore\n      0x1b\n      dup2\n      mstore\n      0x20\n      add\n      dup1\n      0x536166654d6174683a206164646974696f6e206f766572666c6f770000000000\n      dup2\n      mstore\n      pop\n      0x20\n      add\n      swap2\n      pop\n      pop\n      mload(0x40)\n      dup1\n      swap2\n      sub\n      swap1\n      revert\n    tag_238:\n        /* \"libs/SafeMath.sol\":978:979   */\n      dup1\n        /* \"libs/SafeMath.sol\":971:979   */\n      swap2\n      pop\n      pop\n        /* \"libs/SafeMath.sol\":822:984   */\n      swap3\n      swap2\n      pop\n      pop\n      jump\t// out\n        /* \"Token_V0.sol\":1261:1770   */\n    tag_149:\n        /* \"Token_V0.sol\":1344:1348   */\n      0x00\n        /* \"Token_V0.sol\":1375:1403   */\n      tag_240\n        /* \"Token_V0.sol\":1385:1390   */\n      dup5\n        /* \"Token_V0.sol\":1392:1402   */\n      caller\n        /* \"Token_V0.sol\":1375:1384   */\n      tag_113\n        /* \"Token_V0.sol\":1375:1403   */\n      jump\t// in\n    tag_240:\n        /* \"Token_V0.sol\":1364:1371   */\n      dup3\n        /* \"Token_V0.sol\":1364:1403   */\n      gt\n      iszero\n        /* \"Token_V0.sol\":1356:1440   */\n      tag_241\n      jumpi\n      mload(0x40)\n      0x08c379a000000000000000000000000000000000000000000000000000000000\n      dup2\n      mstore\n      0x04\n      add\n      dup1\n      dup1\n      0x20\n      add\n      dup3\n      dup2\n      sub\n      dup3\n      mstore\n      0x20\n      dup2\n      mstore\n      0x20\n      add\n      dup1\n      0x6e6f7420656e6f75676820616c6c6f77616e636520746f207472616e73666572\n      dup2\n      mstore\n      pop\n      0x20\n      add\n      swap2\n      pop\n      pop\n      mload(0x40)\n      dup1\n      swap2\n      sub\n      swap1\n      revert\n    tag_241:\n        /* \"Token_V0.sol\":1469:1470   */\n      0x00\n        /* \"Token_V0.sol\":1454:1471   */\n      0xffffffffffffffffffffffffffffffffffffffff\n      and\n        /* \"Token_V0.sol\":1454:1457   */\n      dup4\n        /* \"Token_V0.sol\":1454:1471   */\n      0xffffffffffffffffffffffffffffffffffffffff\n      and\n      eq\n      iszero\n        /* \"Token_V0.sol\":1446:1500   */\n      tag_242\n      jumpi\n      mload(0x40)\n      0x08c379a000000000000000000000000000000000000000000000000000000000\n      dup2\n      mstore\n      0x04\n      add\n      dup1\n      dup1\n      0x20\n      add\n      dup3\n      dup2\n      sub\n      dup3\n      mstore\n      0x18\n      dup2\n      mstore\n      0x20\n      add\n      dup1\n      0x746f20616464726573732063616e6e6f74206265203078300000000000000000\n      dup2\n      mstore\n      pop\n      0x20\n      add\n      swap2\n      pop\n      pop\n      mload(0x40)\n      dup1\n      swap2\n      sub\n      swap1\n      revert\n    tag_242:\n        /* \"Token_V0.sol\":1525:1542   */\n      tag_243\n        /* \"Token_V0.sol\":1536:1541   */\n      dup5\n        /* \"Token_V0.sol\":1525:1535   */\n      tag_132\n        /* \"Token_V0.sol\":1525:1542   */\n      jump\t// in\n    tag_243:\n        /* \"Token_V0.sol\":1514:1521   */\n      dup3\n        /* \"Token_V0.sol\":1514:1542   */\n      gt\n      iszero\n        /* \"Token_V0.sol\":1506:1577   */\n      tag_244\n      jumpi\n      mload(0x40)\n      0x08c379a000000000000000000000000000000000000000000000000000000000\n      dup2\n      mstore\n      0x04\n      add\n      dup1\n      dup1\n      0x20\n      add\n      dup3\n      dup2\n      sub\n      dup3\n      mstore\n      0x1e\n      dup2\n      mstore\n      0x20\n      add\n      dup1\n      0x6e6f7420656e6f7567682062616c616e636520746f207472616e736665720000\n      dup2\n      mstore\n      pop\n      0x20\n      add\n      swap2\n      pop\n      pop\n      mload(0x40)\n      dup1\n      swap2\n      sub\n      swap1\n      revert\n    tag_244:\n        /* \"Token_V0.sol\":1588:1634   */\n      tag_245\n        /* \"Token_V0.sol\":1607:1612   */\n      dup5\n        /* \"Token_V0.sol\":1614:1624   */\n      caller\n        /* \"Token_V0.sol\":1626:1633   */\n      dup5\n        /* \"Token_V0.sol\":1588:1606   */\n      tag_90\n        /* \"Token_V0.sol\":1588:1634   */\n      jump\t// in\n    tag_245:\n        /* \"Token_V0.sol\":1640:1670   */\n      tag_246\n        /* \"Token_V0.sol\":1657:1660   */\n      dup4\n        /* \"Token_V0.sol\":1662:1669   */\n      dup4\n        /* \"Token_V0.sol\":1640:1656   */\n      tag_54\n        /* \"Token_V0.sol\":1640:1670   */\n      jump\t// in\n    tag_246:\n        /* \"Token_V0.sol\":1676:1708   */\n      tag_247\n        /* \"Token_V0.sol\":1693:1698   */\n      dup5\n        /* \"Token_V0.sol\":1700:1707   */\n      dup4\n        /* \"Token_V0.sol\":1676:1692   */\n      tag_102\n        /* \"Token_V0.sol\":1676:1708   */\n      jump\t// in\n    tag_247:\n        /* \"Token_V0.sol\":1735:1738   */\n      dup3\n        /* \"Token_V0.sol\":1719:1748   */\n      0xffffffffffffffffffffffffffffffffffffffff\n      and\n        /* \"Token_V0.sol\":1728:1733   */\n      dup5\n        /* \"Token_V0.sol\":1719:1748   */\n      0xffffffffffffffffffffffffffffffffffffffff\n      and\n      0xddf252ad1be2c89b69c2b068fc378daa952ba7f163c4a11628f55a4df523b3ef\n        /* \"Token_V0.sol\":1740:1747   */\n      dup5\n        /* \"Token_V0.sol\":1719:1748   */\n      mload(0x40)\n      dup1\n      dup3\n      dup2\n      mstore\n      0x20\n      add\n      swap2\n      pop\n      pop\n      mload(0x40)\n      dup1\n      swap2\n      sub\n      swap1\n      log3\n        /* \"Token_V0.sol\":1761:1765   */\n      0x01\n        /* \"Token_V0.sol\":1754:1765   */\n      swap1\n      pop\n        /* \"Token_V0.sol\":1261:1770   */\n      swap4\n      swap3\n      pop\n      pop\n      pop\n      jump\t// out\n        /* \"Token_V0.sol\":553:651   */\n    tag_159:\n        /* \"helpers/Ownable.sol\":955:960   */\n      0x00\n      dup1\n      swap1\n      sload\n      swap1\n      0x0100\n      exp\n      swap1\n      div\n      0xffffffffffffffffffffffffffffffffffffffff\n      and\n        /* \"helpers/Ownable.sol\":941:960   */\n      0xffffffffffffffffffffffffffffffffffffffff\n      and\n        /* \"helpers/Ownable.sol\":941:951   */\n      caller\n        /* \"helpers/Ownable.sol\":941:960   */\n      0xffffffffffffffffffffffffffffffffffffffff\n      and\n      eq\n        /* \"helpers/Ownable.sol\":933:961   */\n      tag_249\n      jumpi\n      0x00\n      dup1\n      revert\n    tag_249:\n        /* \"Token_V0.sol\":627:646   */\n      tag_251\n        /* \"Token_V0.sol\":633:636   */\n      dup3\n        /* \"Token_V0.sol\":638:645   */\n      dup3\n        /* \"Token_V0.sol\":627:632   */\n      tag_252\n        /* \"Token_V0.sol\":627:646   */\n      jump\t// in\n    tag_251:\n        /* \"Token_V0.sol\":553:651   */\n      pop\n      pop\n      jump\t// out\n        /* \"Token_V0.sol\":657:732   */\n    tag_164:\n        /* \"Token_V0.sol\":701:727   */\n      tag_254\n        /* \"Token_V0.sol\":707:717   */\n      caller\n        /* \"Token_V0.sol\":719:726   */\n      dup3\n        /* \"Token_V0.sol\":701:706   */\n      tag_255\n        /* \"Token_V0.sol\":701:727   */\n      jump\t// in\n    tag_254:\n        /* \"Token_V0.sol\":657:732   */\n      pop\n      jump\t// out\n        /* \"Token_V1.sol\":3215:3673  function decreaseApprovalAllArgs(... */\n    tag_173:\n        /* \"Token_V1.sol\":3346:3362  uint256 oldValue */\n      0x00\n        /* \"Token_V1.sol\":3365:3404  super.allowance(_tokenHolder, _spender) */\n      tag_257\n        /* \"Token_V1.sol\":3381:3393  _tokenHolder */\n      dup3\n        /* \"Token_V1.sol\":3395:3403  _spender */\n      dup6\n        /* \"Token_V1.sol\":3365:3380  super.allowance */\n      tag_113\n        /* \"Token_V1.sol\":3365:3404  super.allowance(_tokenHolder, _spender) */\n      jump\t// in\n    tag_257:\n        /* \"Token_V1.sol\":3346:3404  uint256 oldValue = super.allowance(_tokenHolder, _spender) */\n      swap1\n      pop\n        /* \"Token_V1.sol\":3433:3441  oldValue */\n      dup1\n        /* \"Token_V1.sol\":3413:3430  _substractedValue */\n      dup4\n        /* \"Token_V1.sol\":3413:3441  _substractedValue > oldValue */\n      gt\n        /* \"Token_V1.sol\":3410:3585  if(_substractedValue > oldValue) {... */\n      iszero\n      tag_258\n      jumpi\n        /* \"Token_V1.sol\":3451:3496  super.setAllowance(_tokenHolder, _spender, 0) */\n      tag_259\n        /* \"Token_V1.sol\":3470:3482  _tokenHolder */\n      dup3\n        /* \"Token_V1.sol\":3484:3492  _spender */\n      dup6\n        /* \"Token_V1.sol\":3494:3495  0 */\n      0x00\n        /* \"Token_V1.sol\":3451:3469  super.setAllowance */\n      tag_110\n        /* \"Token_V1.sol\":3451:3496  super.setAllowance(_tokenHolder, _spender, 0) */\n      jump\t// in\n    tag_259:\n        /* \"Token_V1.sol\":3410:3585  if(_substractedValue > oldValue) {... */\n      jump(tag_260)\n    tag_258:\n        /* \"Token_V1.sol\":3517:3578  super.setAllowance(_tokenHolder, _spender, _substractedValue) */\n      tag_261\n        /* \"Token_V1.sol\":3536:3548  _tokenHolder */\n      dup3\n        /* \"Token_V1.sol\":3550:3558  _spender */\n      dup6\n        /* \"Token_V1.sol\":3560:3577  _substractedValue */\n      dup6\n        /* \"Token_V1.sol\":3517:3535  super.setAllowance */\n      tag_110\n        /* \"Token_V1.sol\":3517:3578  super.setAllowance(_tokenHolder, _spender, _substractedValue) */\n      jump\t// in\n    tag_261:\n        /* \"Token_V1.sol\":3410:3585  if(_substractedValue > oldValue) {... */\n    tag_260:\n        /* \"Token_V1.sol\":3618:3626  _spender */\n      dup4\n        /* \"Token_V1.sol\":3595:3668  Approval(_tokenHolder, _spender, super.allowance(_tokenHolder, _spender)) */\n      0xffffffffffffffffffffffffffffffffffffffff\n      and\n        /* \"Token_V1.sol\":3604:3616  _tokenHolder */\n      dup3\n        /* \"Token_V1.sol\":3595:3668  Approval(_tokenHolder, _spender, super.allowance(_tokenHolder, _spender)) */\n      0xffffffffffffffffffffffffffffffffffffffff\n      and\n      0x8c5be1e5ebec7d5bd14f71427d1e84f3dd0314c0f7b2291e5b200ac8c7c3b925\n        /* \"Token_V1.sol\":3628:3667  super.allowance(_tokenHolder, _spender) */\n      tag_262\n        /* \"Token_V1.sol\":3644:3656  _tokenHolder */\n      dup6\n        /* \"Token_V1.sol\":3658:3666  _spender */\n      dup9\n        /* \"Token_V1.sol\":3628:3643  super.allowance */\n      tag_113\n        /* \"Token_V1.sol\":3628:3667  super.allowance(_tokenHolder, _spender) */\n      jump\t// in\n    tag_262:\n        /* \"Token_V1.sol\":3595:3668  Approval(_tokenHolder, _spender, super.allowance(_tokenHolder, _spender)) */\n      mload(0x40)\n      dup1\n      dup3\n      dup2\n      mstore\n      0x20\n      add\n      swap2\n      pop\n      pop\n      mload(0x40)\n      dup1\n      swap2\n      sub\n      swap1\n      log3\n        /* \"Token_V1.sol\":3215:3673  function decreaseApprovalAllArgs(... */\n      pop\n      pop\n      pop\n      pop\n      jump\t// out\n        /* \"libs/SafeMath.sol\":1228:1356   */\n    tag_178:\n        /* \"libs/SafeMath.sol\":1286:1293   */\n      0x00\n        /* \"libs/SafeMath.sol\":1308:1351   */\n      tag_264\n        /* \"libs/SafeMath.sol\":1312:1313   */\n      dup4\n        /* \"libs/SafeMath.sol\":1315:1316   */\n      dup4\n        /* \"libs/SafeMath.sol\":1308:1351   */\n      mload(0x40)\n      dup1\n      0x40\n      add\n      0x40\n      mstore\n      dup1\n      0x1e\n      dup2\n      mstore\n      0x20\n      add\n      0x536166654d6174683a207375627472616374696f6e206f766572666c6f770000\n      dup2\n      mstore\n      pop\n        /* \"libs/SafeMath.sol\":1308:1311   */\n      tag_265\n        /* \"libs/SafeMath.sol\":1308:1351   */\n      jump\t// in\n    tag_264:\n        /* \"libs/SafeMath.sol\":1301:1351   */\n      swap1\n      pop\n        /* \"libs/SafeMath.sol\":1228:1356   */\n      swap3\n      swap2\n      pop\n      pop\n      jump\t// out\n        /* \"Token_V0.sol\":942:1255   */\n    tag_199:\n        /* \"Token_V0.sol\":1006:1010   */\n      0x00\n        /* \"Token_V0.sol\":1041:1042   */\n      dup1\n        /* \"Token_V0.sol\":1026:1043   */\n      0xffffffffffffffffffffffffffffffffffffffff\n      and\n        /* \"Token_V0.sol\":1026:1029   */\n      dup4\n        /* \"Token_V0.sol\":1026:1043   */\n      0xffffffffffffffffffffffffffffffffffffffff\n      and\n      eq\n      iszero\n        /* \"Token_V0.sol\":1018:1072   */\n      tag_267\n      jumpi\n      mload(0x40)\n      0x08c379a000000000000000000000000000000000000000000000000000000000\n      dup2\n      mstore\n      0x04\n      add\n      dup1\n      dup1\n      0x20\n      add\n      dup3\n      dup2\n      sub\n      dup3\n      mstore\n      0x18\n      dup2\n      mstore\n      0x20\n      add\n      dup1\n      0x746f20616464726573732063616e6e6f74206265203078300000000000000000\n      dup2\n      mstore\n      pop\n      0x20\n      add\n      swap2\n      pop\n      pop\n      mload(0x40)\n      dup1\n      swap2\n      sub\n      swap1\n      revert\n    tag_267:\n        /* \"Token_V0.sol\":1097:1119   */\n      tag_268\n        /* \"Token_V0.sol\":1108:1118   */\n      caller\n        /* \"Token_V0.sol\":1097:1107   */\n      tag_132\n        /* \"Token_V0.sol\":1097:1119   */\n      jump\t// in\n    tag_268:\n        /* \"Token_V0.sol\":1086:1093   */\n      dup3\n        /* \"Token_V0.sol\":1086:1119   */\n      gt\n      iszero\n        /* \"Token_V0.sol\":1078:1154   */\n      tag_269\n      jumpi\n      mload(0x40)\n      0x08c379a000000000000000000000000000000000000000000000000000000000\n      dup2\n      mstore\n      0x04\n      add\n      dup1\n      dup1\n      0x20\n      add\n      dup3\n      dup2\n      sub\n      dup3\n      mstore\n      0x1e\n      dup2\n      mstore\n      0x20\n      add\n      dup1\n      0x6e6f7420656e6f7567682062616c616e636520746f207472616e736665720000\n      dup2\n      mstore\n      pop\n      0x20\n      add\n      swap2\n      pop\n      pop\n      mload(0x40)\n      dup1\n      swap2\n      sub\n      swap1\n      revert\n    tag_269:\n        /* \"Token_V0.sol\":1160:1197   */\n      tag_270\n        /* \"Token_V0.sol\":1177:1187   */\n      caller\n        /* \"Token_V0.sol\":1189:1196   */\n      dup4\n        /* \"Token_V0.sol\":1160:1176   */\n      tag_102\n        /* \"Token_V0.sol\":1160:1197   */\n      jump\t// in\n    tag_270:\n        /* \"Token_V0.sol\":1203:1233   */\n      tag_271\n        /* \"Token_V0.sol\":1220:1223   */\n      dup4\n        /* \"Token_V0.sol\":1225:1232   */\n      dup4\n        /* \"Token_V0.sol\":1203:1219   */\n      tag_54\n        /* \"Token_V0.sol\":1203:1233   */\n      jump\t// in\n    tag_271:\n        /* \"Token_V0.sol\":1246:1250   */\n      0x01\n        /* \"Token_V0.sol\":1239:1250   */\n      swap1\n      pop\n        /* \"Token_V0.sol\":942:1255   */\n      swap3\n      swap2\n      pop\n      pop\n      jump\t// out\n        /* \"Token_V1.sol\":3679:3948  function increaseApprovalAllArgs(... */\n    tag_209:\n        /* \"Token_V1.sol\":3804:3859  super.addAllowance(_tokenHolder, _spender, _addedValue) */\n      tag_273\n        /* \"Token_V1.sol\":3823:3835  _tokenHolder */\n      dup2\n        /* \"Token_V1.sol\":3837:3845  _spender */\n      dup5\n        /* \"Token_V1.sol\":3847:3858  _addedValue */\n      dup5\n        /* \"Token_V1.sol\":3804:3822  super.addAllowance */\n      tag_70\n        /* \"Token_V1.sol\":3804:3859  super.addAllowance(_tokenHolder, _spender, _addedValue) */\n      jump\t// in\n    tag_273:\n        /* \"Token_V1.sol\":3893:3901  _spender */\n      dup3\n        /* \"Token_V1.sol\":3870:3943  Approval(_tokenHolder, _spender, super.allowance(_tokenHolder, _spender)) */\n      0xffffffffffffffffffffffffffffffffffffffff\n      and\n        /* \"Token_V1.sol\":3879:3891  _tokenHolder */\n      dup2\n        /* \"Token_V1.sol\":3870:3943  Approval(_tokenHolder, _spender, super.allowance(_tokenHolder, _spender)) */\n      0xffffffffffffffffffffffffffffffffffffffff\n      and\n      0x8c5be1e5ebec7d5bd14f71427d1e84f3dd0314c0f7b2291e5b200ac8c7c3b925\n        /* \"Token_V1.sol\":3903:3942  super.allowance(_tokenHolder, _spender) */\n      tag_274\n        /* \"Token_V1.sol\":3919:3931  _tokenHolder */\n      dup5\n        /* \"Token_V1.sol\":3933:3941  _spender */\n      dup8\n        /* \"Token_V1.sol\":3903:3918  super.allowance */\n      tag_113\n        /* \"Token_V1.sol\":3903:3942  super.allowance(_tokenHolder, _spender) */\n      jump\t// in\n    tag_274:\n        /* \"Token_V1.sol\":3870:3943  Approval(_tokenHolder, _spender, super.allowance(_tokenHolder, _spender)) */\n      mload(0x40)\n      dup1\n      dup3\n      dup2\n      mstore\n      0x20\n      add\n      swap2\n      pop\n      pop\n      mload(0x40)\n      dup1\n      swap2\n      sub\n      swap1\n      log3\n        /* \"Token_V1.sol\":3679:3948  function increaseApprovalAllArgs(... */\n      pop\n      pop\n      pop\n      jump\t// out\n        /* \"Token_V0.sol\":2865:3069   */\n    tag_252:\n        /* \"Token_V0.sol\":2925:2954   */\n      tag_276\n        /* \"Token_V0.sol\":2946:2953   */\n      dup2\n        /* \"Token_V0.sol\":2925:2945   */\n      tag_121\n        /* \"Token_V0.sol\":2925:2954   */\n      jump\t// in\n    tag_276:\n        /* \"Token_V0.sol\":2960:2990   */\n      tag_277\n        /* \"Token_V0.sol\":2977:2980   */\n      dup3\n        /* \"Token_V0.sol\":2982:2989   */\n      dup3\n        /* \"Token_V0.sol\":2960:2976   */\n      tag_54\n        /* \"Token_V0.sol\":2960:2990   */\n      jump\t// in\n    tag_277:\n        /* \"Token_V0.sol\":3006:3009   */\n      dup2\n        /* \"Token_V0.sol\":3001:3019   */\n      0xffffffffffffffffffffffffffffffffffffffff\n      and\n      0x0f6798a560793a54c3bcfe86a93cde1e73087d944c0ea20544137d4121396885\n        /* \"Token_V0.sol\":3011:3018   */\n      dup3\n        /* \"Token_V0.sol\":3001:3019   */\n      mload(0x40)\n      dup1\n      dup3\n      dup2\n      mstore\n      0x20\n      add\n      swap2\n      pop\n      pop\n      mload(0x40)\n      dup1\n      swap2\n      sub\n      swap1\n      log2\n        /* \"Token_V0.sol\":3051:3054   */\n      dup2\n        /* \"Token_V0.sol\":3030:3064   */\n      0xffffffffffffffffffffffffffffffffffffffff\n      and\n        /* \"Token_V0.sol\":3047:3048   */\n      0x00\n        /* \"Token_V0.sol\":3030:3064   */\n      0xffffffffffffffffffffffffffffffffffffffff\n      and\n      0xddf252ad1be2c89b69c2b068fc378daa952ba7f163c4a11628f55a4df523b3ef\n        /* \"Token_V0.sol\":3056:3063   */\n      dup4\n        /* \"Token_V0.sol\":3030:3064   */\n      mload(0x40)\n      dup1\n      dup3\n      dup2\n      mstore\n      0x20\n      add\n      swap2\n      pop\n      pop\n      mload(0x40)\n      dup1\n      swap2\n      sub\n      swap1\n      log3\n        /* \"Token_V0.sol\":2865:3069   */\n      pop\n      pop\n      jump\t// out\n        /* \"Token_V0.sol\":2383:2859   */\n    tag_255:\n        /* \"Token_V0.sol\":2468:2489   */\n      tag_279\n        /* \"Token_V0.sol\":2479:2488   */\n      dup3\n        /* \"Token_V0.sol\":2468:2478   */\n      tag_132\n        /* \"Token_V0.sol\":2468:2489   */\n      jump\t// in\n    tag_279:\n        /* \"Token_V0.sol\":2457:2464   */\n      dup2\n        /* \"Token_V0.sol\":2457:2489   */\n      gt\n      iszero\n        /* \"Token_V0.sol\":2449:2520   */\n      tag_280\n      jumpi\n      mload(0x40)\n      0x08c379a000000000000000000000000000000000000000000000000000000000\n      dup2\n      mstore\n      0x04\n      add\n      dup1\n      dup1\n      0x20\n      add\n      dup3\n      dup2\n      sub\n      dup3\n      mstore\n      0x1a\n      dup2\n      mstore\n      0x20\n      add\n      dup1\n      0x6e6f7420656e6f7567682062616c616e636520746f206275726e000000000000\n      dup2\n      mstore\n      pop\n      0x20\n      add\n      swap2\n      pop\n      pop\n      mload(0x40)\n      dup1\n      swap2\n      sub\n      swap1\n      revert\n    tag_280:\n        /* \"Token_V0.sol\":2697:2733   */\n      tag_281\n        /* \"Token_V0.sol\":2714:2723   */\n      dup3\n        /* \"Token_V0.sol\":2725:2732   */\n      dup3\n        /* \"Token_V0.sol\":2697:2713   */\n      tag_102\n        /* \"Token_V0.sol\":2697:2733   */\n      jump\t// in\n    tag_281:\n        /* \"Token_V0.sol\":2739:2768   */\n      tag_282\n        /* \"Token_V0.sol\":2760:2767   */\n      dup2\n        /* \"Token_V0.sol\":2739:2759   */\n      tag_79\n        /* \"Token_V0.sol\":2739:2768   */\n      jump\t// in\n    tag_282:\n        /* \"Token_V0.sol\":2784:2793   */\n      dup2\n        /* \"Token_V0.sol\":2779:2803   */\n      0xffffffffffffffffffffffffffffffffffffffff\n      and\n      0xcc16f5dbb4873280815c1ee09dbd06736cffcc184412cf7a71a0fdb75d397ca5\n        /* \"Token_V0.sol\":2795:2802   */\n      dup3\n        /* \"Token_V0.sol\":2779:2803   */\n      mload(0x40)\n      dup1\n      dup3\n      dup2\n      mstore\n      0x20\n      add\n      swap2\n      pop\n      pop\n      mload(0x40)\n      dup1\n      swap2\n      sub\n      swap1\n      log2\n        /* \"Token_V0.sol\":2842:2843   */\n      0x00\n        /* \"Token_V0.sol\":2814:2854   */\n      0xffffffffffffffffffffffffffffffffffffffff\n      and\n        /* \"Token_V0.sol\":2823:2832   */\n      dup3\n        /* \"Token_V0.sol\":2814:2854   */\n      0xffffffffffffffffffffffffffffffffffffffff\n      and\n      0xddf252ad1be2c89b69c2b068fc378daa952ba7f163c4a11628f55a4df523b3ef\n        /* \"Token_V0.sol\":2846:2853   */\n      dup4\n        /* \"Token_V0.sol\":2814:2854   */\n      mload(0x40)\n      dup1\n      dup3\n      dup2\n      mstore\n      0x20\n      add\n      swap2\n      pop\n      pop\n      mload(0x40)\n      dup1\n      swap2\n      sub\n      swap1\n      log3\n        /* \"Token_V0.sol\":2383:2859   */\n      pop\n      pop\n      jump\t// out\n        /* \"libs/SafeMath.sol\":1766:1939   */\n    tag_265:\n        /* \"libs/SafeMath.sol\":1852:1859   */\n      0x00\n        /* \"libs/SafeMath.sol\":1880:1881   */\n      dup4\n        /* \"libs/SafeMath.sol\":1875:1876   */\n      dup4\n        /* \"libs/SafeMath.sol\":1875:1881   */\n      gt\n      iszero\n        /* \"libs/SafeMath.sol\":1883:1895   */\n      dup3\n        /* \"libs/SafeMath.sol\":1867:1896   */\n      swap1\n      tag_284\n      jumpi\n      mload(0x40)\n      0x08c379a000000000000000000000000000000000000000000000000000000000\n      dup2\n      mstore\n      0x04\n      add\n      dup1\n      dup1\n      0x20\n      add\n      dup3\n      dup2\n      sub\n      dup3\n      mstore\n      dup4\n      dup2\n      dup2\n      mload\n      dup2\n      mstore\n      0x20\n      add\n      swap2\n      pop\n      dup1\n      mload\n      swap1\n      0x20\n      add\n      swap1\n      dup1\n      dup4\n      dup4\n        /* \"--CODEGEN--\":23:24   */\n      0x00\n        /* \"--CODEGEN--\":8:108   */\n    tag_285:\n        /* \"--CODEGEN--\":33:36   */\n      dup4\n        /* \"--CODEGEN--\":30:31   */\n      dup2\n        /* \"--CODEGEN--\":27:37   */\n      lt\n        /* \"--CODEGEN--\":8:108   */\n      iszero\n      tag_287\n      jumpi\n        /* \"--CODEGEN--\":99:100   */\n      dup1\n        /* \"--CODEGEN--\":94:97   */\n      dup3\n        /* \"--CODEGEN--\":90:101   */\n      add\n        /* \"--CODEGEN--\":84:102   */\n      mload\n        /* \"--CODEGEN--\":80:81   */\n      dup2\n        /* \"--CODEGEN--\":75:78   */\n      dup5\n        /* \"--CODEGEN--\":71:82   */\n      add\n        /* \"--CODEGEN--\":64:103   */\n      mstore\n        /* \"--CODEGEN--\":52:54   */\n      0x20\n        /* \"--CODEGEN--\":49:50   */\n      dup2\n        /* \"--CODEGEN--\":45:55   */\n      add\n        /* \"--CODEGEN--\":40:55   */\n      swap1\n      pop\n        /* \"--CODEGEN--\":8:108   */\n      jump(tag_285)\n    tag_287:\n        /* \"--CODEGEN--\":12:26   */\n      pop\n        /* \"libs/SafeMath.sol\":1867:1896   */\n      pop\n      pop\n      pop\n      swap1\n      pop\n      swap1\n      dup2\n      add\n      swap1\n      0x1f\n      and\n      dup1\n      iszero\n      tag_288\n      jumpi\n      dup1\n      dup3\n      sub\n      dup1\n      mload\n      0x01\n      dup4\n      0x20\n      sub\n      0x0100\n      exp\n      sub\n      not\n      and\n      dup2\n      mstore\n      0x20\n      add\n      swap2\n      pop\n    tag_288:\n      pop\n      swap3\n      pop\n      pop\n      pop\n      mload(0x40)\n      dup1\n      swap2\n      sub\n      swap1\n      revert\n    tag_284:\n      pop\n        /* \"libs/SafeMath.sol\":1902:1911   */\n      0x00\n        /* \"libs/SafeMath.sol\":1918:1919   */\n      dup4\n        /* \"libs/SafeMath.sol\":1914:1915   */\n      dup6\n        /* \"libs/SafeMath.sol\":1914:1919   */\n      sub\n        /* \"libs/SafeMath.sol\":1902:1919   */\n      swap1\n      pop\n        /* \"libs/SafeMath.sol\":1933:1934   */\n      dup1\n        /* \"libs/SafeMath.sol\":1926:1934   */\n      swap2\n      pop\n      pop\n        /* \"libs/SafeMath.sol\":1766:1939   */\n      swap4\n      swap3\n      pop\n      pop\n      pop\n      jump\t// out\n\n    auxdata: 0xa265627a7a723158204cdb8fcb4f614e965ce9a0662f2869137f583ee3956db7a9da04bc29d2fdc92564736f6c634300050b0032\n}\n","bytecode":{"linkReferences":{},"object":"60806040526000600560006101000a81548160ff0219169083151502179055506000600560016101000a81548160ff021916908315150217905550336000806101000a81548173ffffffffffffffffffffffffffffffffffffffff021916908373ffffffffffffffffffffffffffffffffffffffff1602179055506000600160006101000a81548173ffffffffffffffffffffffffffffffffffffffff021916908373ffffffffffffffffffffffffffffffffffffffff1602179055506123c0806100cb6000396000f3fe608060405234801561001057600080fd5b50600436106102065760003560e01c806397d88cd21161011a578063da46098c116100ad578063e468688e1161007c578063e468688e1461099f578063f2fde38b146109cd578063f7ea7a3d14610a11578063f83d08ba14610a3f578063f8b2cb4f14610a4957610206565b8063da46098c14610821578063dd62ed3e1461088f578063e30443bc14610907578063e30c39781461095557610206565b8063c4e41b22116100e9578063c4e41b2214610745578063cf8eeb7e14610763578063d73dd623146107b1578063d9dd3d361461081757610206565b806397d88cd21461065d5780639b2bdc20146106cb578063a69df4b5146106d5578063a9059cbb146106df57610206565b80635c975abb1161019d57806382838c761161016c57806382838c76146105af5780638456cb59146105dd57806388fa2617146105e75780638955ed7e146106095780638da5cb5b1461061357610206565b80635c975abb146104615780635fd72d161461048357806366188463146104f157806370a082311461055757610206565b806323b872dd116101d957806323b872dd146103555780633f4ba83a146103db57806340c10f19146103e557806342966c681461043357610206565b8063095ea7b31461020b57806318160ddd146102715780631a46ec821461028f57806321e5383a14610307575b600080fd5b6102576004803603604081101561022157600080fd5b81019080803573ffffffffffffffffffffffffffffffffffffffff16906020019092919080359060200190929190505050610aa1565b604051808215151515815260200191505060405180910390f35b610279610aeb565b6040518082815260200191505060405180910390f35b6102f1600480360360408110156102a557600080fd5b81019080803573ffffffffffffffffffffffffffffffffffffffff169060200190929190803573ffffffffffffffffffffffffffffffffffffffff169060200190929190505050610af1565b6040518082815260200191505060405180910390f35b6103536004803603604081101561031d57600080fd5b81019080803573ffffffffffffffffffffffffffffffffffffffff16906020019092919080359060200190929190505050610b16565b005b6103c16004803603606081101561036b57600080fd5b81019080803573ffffffffffffffffffffffffffffffffffffffff169060200190929190803573ffffffffffffffffffffffffffffffffffffffff16906020019092919080359060200190929190505050610c08565b604051808215151515815260200191505060405180910390f35b6103e3610c3b565b005b610431600480360360408110156103fb57600080fd5b81019080803573ffffffffffffffffffffffffffffffffffffffff16906020019092919080359060200190929190505050610cf6565b005b61045f6004803603602081101561044957600080fd5b8101908080359060200190929190505050610d1e565b005b610469610d44565b604051808215151515815260200191505060405180910390f35b6104ef6004803603606081101561049957600080fd5b81019080803573ffffffffffffffffffffffffffffffffffffffff169060200190929190803573ffffffffffffffffffffffffffffffffffffffff16906020019092919080359060200190929190505050610d57565b005b61053d6004803603604081101561050757600080fd5b81019080803573ffffffffffffffffffffffffffffffffffffffff16906020019092919080359060200190929190505050610ec4565b604051808215151515815260200191505060405180910390f35b6105996004803603602081101561056d57600080fd5b81019080803573ffffffffffffffffffffffffffffffffffffffff169060200190929190505050610ef5565b6040518082815260200191505060405180910390f35b6105db600480360360208110156105c557600080fd5b8101908080359060200190929190505050610f0d565b005b6105e5610f84565b005b6105ef611040565b604051808215151515815260200191505060405180910390f35b610611611053565b005b61061b61105d565b604051808273ffffffffffffffffffffffffffffffffffffffff1673ffffffffffffffffffffffffffffffffffffffff16815260200191505060405180910390f35b6106c96004803603606081101561067357600080fd5b81019080803573ffffffffffffffffffffffffffffffffffffffff169060200190929190803573ffffffffffffffffffffffffffffffffffffffff16906020019092919080359060200190929190505050611082565b005b6106d36111ef565b005b6106dd6111f9565b005b61072b600480360360408110156106f557600080fd5b81019080803573ffffffffffffffffffffffffffffffffffffffff1690602001909291908035906020019092919050505061129b565b604051808215151515815260200191505060405180910390f35b61074d6112cc565b6040518082815260200191505060405180910390f35b6107af6004803603604081101561077957600080fd5b81019080803573ffffffffffffffffffffffffffffffffffffffff169060200190929190803590602001909291905050506112d6565b005b6107fd600480360360408110156107c757600080fd5b81019080803573ffffffffffffffffffffffffffffffffffffffff169060200190929190803590602001909291905050506113c8565b604051808215151515815260200191505060405180910390f35b61081f6113f9565b005b61088d6004803603606081101561083757600080fd5b81019080803573ffffffffffffffffffffffffffffffffffffffff169060200190929190803573ffffffffffffffffffffffffffffffffffffffff16906020019092919080359060200190929190505050611596565b005b6108f1600480360360408110156108a557600080fd5b81019080803573ffffffffffffffffffffffffffffffffffffffff169060200190929190803573ffffffffffffffffffffffffffffffffffffffff169060200190929190505050611675565b6040518082815260200191505060405180910390f35b6109536004803603604081101561091d57600080fd5b81019080803573ffffffffffffffffffffffffffffffffffffffff169060200190929190803590602001909291905050506116fc565b005b61095d61179d565b604051808273ffffffffffffffffffffffffffffffffffffffff1673ffffffffffffffffffffffffffffffffffffffff16815260200191505060405180910390f35b6109cb600480360360208110156109b557600080fd5b81019080803590602001909291905050506117c3565b005b610a0f600480360360208110156109e357600080fd5b81019080803573ffffffffffffffffffffffffffffffffffffffff16906020019092919050505061183a565b005b610a3d60048036036020811015610a2757600080fd5b8101908080359060200190929190505050611911565b005b610a47611974565b005b610a8b60048036036020811015610a5f57600080fd5b81019080803573ffffffffffffffffffffffffffffffffffffffff169060200190929190505050611a16565b6040518082815260200191505060405180910390f35b6000600560009054906101000a900460ff1615610abd57600080fd5b600560019054906101000a900460ff16610ad657600080fd5b610ae08383611a5f565b506001905092915050565b60035481565b6004602052816000526040600020602052806000526040600020600091509150505481565b6000809054906101000a900473ffffffffffffffffffffffffffffffffffffffff1673ffffffffffffffffffffffffffffffffffffffff163373ffffffffffffffffffffffffffffffffffffffff1614610b6f57600080fd5b610bc181600260008573ffffffffffffffffffffffffffffffffffffffff1673ffffffffffffffffffffffffffffffffffffffff16815260200190815260200160002054611adb90919063ffffffff16565b600260008473ffffffffffffffffffffffffffffffffffffffff1673ffffffffffffffffffffffffffffffffffffffff168152602001908152602001600020819055505050565b6000600560009054906101000a900460ff1615610c2457600080fd5b610c2f848484611b63565b50600190509392505050565b6000809054906101000a900473ffffffffffffffffffffffffffffffffffffffff1673ffffffffffffffffffffffffffffffffffffffff163373ffffffffffffffffffffffffffffffffffffffff1614610c9457600080fd5b600560009054906101000a900460ff16610cad57600080fd5b6000600560006101000a81548160ff0219169083151502179055507f7805862f689e2f13df9f062ff482ad3ad112aca9e0847911ed832e158c525b3360405160405180910390a1565b600560009054906101000a900460ff1615610d1057600080fd5b610d1a8282611d94565b5050565b600560009054906101000a900460ff1615610d3857600080fd5b610d4181611dfb565b50565b600560009054906101000a900460ff1681565b6000809054906101000a900473ffffffffffffffffffffffffffffffffffffffff1673ffffffffffffffffffffffffffffffffffffffff163373ffffffffffffffffffffffffffffffffffffffff1614610db057600080fd5b610e3f81600460008673ffffffffffffffffffffffffffffffffffffffff1673ffffffffffffffffffffffffffffffffffffffff16815260200190815260200160002060008573ffffffffffffffffffffffffffffffffffffffff1673ffffffffffffffffffffffffffffffffffffffff16815260200190815260200160002054611adb90919063ffffffff16565b600460008573ffffffffffffffffffffffffffffffffffffffff1673ffffffffffffffffffffffffffffffffffffffff16815260200190815260200160002060008473ffffffffffffffffffffffffffffffffffffffff1673ffffffffffffffffffffffffffffffffffffffff16815260200190815260200160002081905550505050565b6000600560009054906101000a900460ff1615610ee057600080fd5b610eeb838333611e08565b6001905092915050565b60026020528060005260406000206000915090505481565b6000809054906101000a900473ffffffffffffffffffffffffffffffffffffffff1673ffffffffffffffffffffffffffffffffffffffff163373ffffffffffffffffffffffffffffffffffffffff1614610f6657600080fd5b610f7b81600354611eaf90919063ffffffff16565b60038190555050565b6000809054906101000a900473ffffffffffffffffffffffffffffffffffffffff1673ffffffffffffffffffffffffffffffffffffffff163373ffffffffffffffffffffffffffffffffffffffff1614610fdd57600080fd5b600560009054906101000a900460ff1615610ff757600080fd5b6001600560006101000a81548160ff0219169083151502179055507f6985a02210a168e66602d3235cb6db0e70f92b3ba4d376a33c0f3d9434bff62560405160405180910390a1565b600560019054906101000a900460ff1681565b61105b6113f9565b565b6000809054906101000a900473ffffffffffffffffffffffffffffffffffffffff1681565b6000809054906101000a900473ffffffffffffffffffffffffffffffffffffffff1673ffffffffffffffffffffffffffffffffffffffff163373ffffffffffffffffffffffffffffffffffffffff16146110db57600080fd5b61116a81600460008673ffffffffffffffffffffffffffffffffffffffff1673ffffffffffffffffffffffffffffffffffffffff16815260200190815260200160002060008573ffffffffffffffffffffffffffffffffffffffff1673ffffffffffffffffffffffffffffffffffffffff16815260200190815260200160002054611eaf90919063ffffffff16565b600460008573ffffffffffffffffffffffffffffffffffffffff1673ffffffffffffffffffffffffffffffffffffffff16815260200190815260200160002060008473ffffffffffffffffffffffffffffffffffffffff1673ffffffffffffffffffffffffffffffffffffffff16815260200190815260200160002081905550505050565b6111f76113f9565b565b6000809054906101000a900473ffffffffffffffffffffffffffffffffffffffff1673ffffffffffffffffffffffffffffffffffffffff163373ffffffffffffffffffffffffffffffffffffffff161461125257600080fd5b6001600560016101000a81548160ff0219169083151502179055507f19aad37188a1d3921e29eb3c66acf43d81975e107cb650d58cca878627955fd660405160405180910390a1565b6000600560009054906101000a900460ff16156112b757600080fd5b6112c18383611ef9565b506001905092915050565b6000600354905090565b6000809054906101000a900473ffffffffffffffffffffffffffffffffffffffff1673ffffffffffffffffffffffffffffffffffffffff163373ffffffffffffffffffffffffffffffffffffffff161461132f57600080fd5b61138181600260008573ffffffffffffffffffffffffffffffffffffffff1673ffffffffffffffffffffffffffffffffffffffff16815260200190815260200160002054611eaf90919063ffffffff16565b600260008473ffffffffffffffffffffffffffffffffffffffff1673ffffffffffffffffffffffffffffffffffffffff168152602001908152602001600020819055505050565b6000600560009054906101000a900460ff16156113e457600080fd5b6113ef838333612039565b6001905092915050565b600160009054906101000a900473ffffffffffffffffffffffffffffffffffffffff1673ffffffffffffffffffffffffffffffffffffffff163373ffffffffffffffffffffffffffffffffffffffff161461145357600080fd5b600160009054906101000a900473ffffffffffffffffffffffffffffffffffffffff1673ffffffffffffffffffffffffffffffffffffffff166000809054906101000a900473ffffffffffffffffffffffffffffffffffffffff1673ffffffffffffffffffffffffffffffffffffffff167f8be0079c531659141344cd1fd0a4f28419497f9722a3daafe3b4186f6b6457e060405160405180910390a3600160009054906101000a900473ffffffffffffffffffffffffffffffffffffffff166000806101000a81548173ffffffffffffffffffffffffffffffffffffffff021916908373ffffffffffffffffffffffffffffffffffffffff1602179055506000600160006101000a81548173ffffffffffffffffffffffffffffffffffffffff021916908373ffffffffffffffffffffffffffffffffffffffff160217905550565b6000809054906101000a900473ffffffffffffffffffffffffffffffffffffffff1673ffffffffffffffffffffffffffffffffffffffff163373ffffffffffffffffffffffffffffffffffffffff16146115ef57600080fd5b80600460008573ffffffffffffffffffffffffffffffffffffffff1673ffffffffffffffffffffffffffffffffffffffff16815260200190815260200160002060008473ffffffffffffffffffffffffffffffffffffffff1673ffffffffffffffffffffffffffffffffffffffff16815260200190815260200160002081905550505050565b6000600460008473ffffffffffffffffffffffffffffffffffffffff1673ffffffffffffffffffffffffffffffffffffffff16815260200190815260200160002060008373ffffffffffffffffffffffffffffffffffffffff1673ffffffffffffffffffffffffffffffffffffffff16815260200190815260200160002054905092915050565b6000809054906101000a900473ffffffffffffffffffffffffffffffffffffffff1673ffffffffffffffffffffffffffffffffffffffff163373ffffffffffffffffffffffffffffffffffffffff161461175557600080fd5b80600260008473ffffffffffffffffffffffffffffffffffffffff1673ffffffffffffffffffffffffffffffffffffffff168152602001908152602001600020819055505050565b600160009054906101000a900473ffffffffffffffffffffffffffffffffffffffff1681565b6000809054906101000a900473ffffffffffffffffffffffffffffffffffffffff1673ffffffffffffffffffffffffffffffffffffffff163373ffffffffffffffffffffffffffffffffffffffff161461181c57600080fd5b61183181600354611adb90919063ffffffff16565b60038190555050565b6000809054906101000a900473ffffffffffffffffffffffffffffffffffffffff1673ffffffffffffffffffffffffffffffffffffffff163373ffffffffffffffffffffffffffffffffffffffff161461189357600080fd5b600073ffffffffffffffffffffffffffffffffffffffff168173ffffffffffffffffffffffffffffffffffffffff1614156118cd57600080fd5b80600160006101000a81548173ffffffffffffffffffffffffffffffffffffffff021916908373ffffffffffffffffffffffffffffffffffffffff16021790555050565b6000809054906101000a900473ffffffffffffffffffffffffffffffffffffffff1673ffffffffffffffffffffffffffffffffffffffff163373ffffffffffffffffffffffffffffffffffffffff161461196a57600080fd5b8060038190555050565b6000809054906101000a900473ffffffffffffffffffffffffffffffffffffffff1673ffffffffffffffffffffffffffffffffffffffff163373ffffffffffffffffffffffffffffffffffffffff16146119cd57600080fd5b6000600560016101000a81548160ff0219169083151502179055507f0f2e5b6c72c6a4491efd919a9f9a409f324ef0708c11ee57d410c2cb06c0992b60405160405180910390a1565b6000600260008373ffffffffffffffffffffffffffffffffffffffff1673ffffffffffffffffffffffffffffffffffffffff168152602001908152602001600020549050919050565b6000611a6c338484611596565b8273ffffffffffffffffffffffffffffffffffffffff163373ffffffffffffffffffffffffffffffffffffffff167f8c5be1e5ebec7d5bd14f71427d1e84f3dd0314c0f7b2291e5b200ac8c7c3b925846040518082815260200191505060405180910390a36001905092915050565b600080828401905083811015611b59576040517f08c379a000000000000000000000000000000000000000000000000000000000815260040180806020018281038252601b8152602001807f536166654d6174683a206164646974696f6e206f766572666c6f77000000000081525060200191505060405180910390fd5b8091505092915050565b6000611b6f8433611675565b821115611be4576040517f08c379a00000000000000000000000000000000000000000000000000000000081526004018080602001828103825260208152602001807f6e6f7420656e6f75676820616c6c6f77616e636520746f207472616e7366657281525060200191505060405180910390fd5b600073ffffffffffffffffffffffffffffffffffffffff168373ffffffffffffffffffffffffffffffffffffffff161415611c87576040517f08c379a00000000000000000000000000000000000000000000000000000000081526004018080602001828103825260188152602001807f746f20616464726573732063616e6e6f7420626520307830000000000000000081525060200191505060405180910390fd5b611c9084611a16565b821115611d05576040517f08c379a000000000000000000000000000000000000000000000000000000000815260040180806020018281038252601e8152602001807f6e6f7420656e6f7567682062616c616e636520746f207472616e73666572000081525060200191505060405180910390fd5b611d10843384611082565b611d1a8383610b16565b611d2484836112d6565b8273ffffffffffffffffffffffffffffffffffffffff168473ffffffffffffffffffffffffffffffffffffffff167fddf252ad1be2c89b69c2b068fc378daa952ba7f163c4a11628f55a4df523b3ef846040518082815260200191505060405180910390a3600190509392505050565b6000809054906101000a900473ffffffffffffffffffffffffffffffffffffffff1673ffffffffffffffffffffffffffffffffffffffff163373ffffffffffffffffffffffffffffffffffffffff1614611ded57600080fd5b611df782826120b7565b5050565b611e053382612182565b50565b6000611e148285611675565b905080831115611e2f57611e2a82856000611596565b611e3b565b611e3a828585611596565b5b8373ffffffffffffffffffffffffffffffffffffffff168273ffffffffffffffffffffffffffffffffffffffff167f8c5be1e5ebec7d5bd14f71427d1e84f3dd0314c0f7b2291e5b200ac8c7c3b925611e948588611675565b6040518082815260200191505060405180910390a350505050565b6000611ef183836040518060400160405280601e81526020017f536166654d6174683a207375627472616374696f6e206f766572666c6f7700008152506122cb565b905092915050565b60008073ffffffffffffffffffffffffffffffffffffffff168373ffffffffffffffffffffffffffffffffffffffff161415611f9d576040517f08c379a00000000000000000000000000000000000000000000000000000000081526004018080602001828103825260188152602001807f746f20616464726573732063616e6e6f7420626520307830000000000000000081525060200191505060405180910390fd5b611fa633611a16565b82111561201b576040517f08c379a000000000000000000000000000000000000000000000000000000000815260040180806020018281038252601e8152602001807f6e6f7420656e6f7567682062616c616e636520746f207472616e73666572000081525060200191505060405180910390fd5b61202533836112d6565b61202f8383610b16565b6001905092915050565b612044818484610d57565b8273ffffffffffffffffffffffffffffffffffffffff168173ffffffffffffffffffffffffffffffffffffffff167f8c5be1e5ebec7d5bd14f71427d1e84f3dd0314c0f7b2291e5b200ac8c7c3b92561209d8487611675565b6040518082815260200191505060405180910390a3505050565b6120c0816117c3565b6120ca8282610b16565b8173ffffffffffffffffffffffffffffffffffffffff167f0f6798a560793a54c3bcfe86a93cde1e73087d944c0ea20544137d4121396885826040518082815260200191505060405180910390a28173ffffffffffffffffffffffffffffffffffffffff16600073ffffffffffffffffffffffffffffffffffffffff167fddf252ad1be2c89b69c2b068fc378daa952ba7f163c4a11628f55a4df523b3ef836040518082815260200191505060405180910390a35050565b61218b82611a16565b811115612200576040517f08c379a000000000000000000000000000000000000000000000000000000000815260040180806020018281038252601a8152602001807f6e6f7420656e6f7567682062616c616e636520746f206275726e00000000000081525060200191505060405180910390fd5b61220a82826112d6565b61221381610f0d565b8173ffffffffffffffffffffffffffffffffffffffff167fcc16f5dbb4873280815c1ee09dbd06736cffcc184412cf7a71a0fdb75d397ca5826040518082815260200191505060405180910390a2600073ffffffffffffffffffffffffffffffffffffffff168273ffffffffffffffffffffffffffffffffffffffff167fddf252ad1be2c89b69c2b068fc378daa952ba7f163c4a11628f55a4df523b3ef836040518082815260200191505060405180910390a35050565b6000838311158290612378576040517f08c379a00000000000000000000000000000000000000000000000000000000081526004018080602001828103825283818151815260200191508051906020019080838360005b8381101561233d578082015181840152602081019050612322565b50505050905090810190601f16801561236a5780820380516001836020036101000a031916815260200191505b509250505060405180910390fd5b506000838503905080915050939250505056fea265627a7a723158204cdb8fcb4f614e965ce9a0662f2869137f583ee3956db7a9da04bc29d2fdc92564736f6c634300050b0032","opcodes":"PUSH1 0x80 PUSH1 0x40 MSTORE PUSH1 0x0 PUSH1 0x5 PUSH1 0x0 PUSH2 0x100 EXP DUP2 SLOAD DUP2 PUSH1 0xFF MUL NOT AND SWAP1 DUP4 ISZERO ISZERO MUL OR SWAP1 SSTORE POP PUSH1 0x0 PUSH1 0x5 PUSH1 0x1 PUSH2 0x100 EXP DUP2 SLOAD DUP2 PUSH1 0xFF MUL NOT AND SWAP1 DUP4 ISZERO ISZERO MUL OR SWAP1 SSTORE POP CALLER PUSH1 0x0 DUP1 PUSH2 0x100 EXP DUP2 SLOAD DUP2 PUSH20 0xFFFFFFFFFFFFFFFFFFFFFFFFFFFFFFFFFFFFFFFF MUL NOT AND SWAP1 DUP4 PUSH20 0xFFFFFFFFFFFFFFFFFFFFFFFFFFFFFFFFFFFFFFFF AND MUL OR SWAP1 SSTORE POP PUSH1 0x0 PUSH1 0x1 PUSH1 0x0 PUSH2 0x100 EXP DUP2 SLOAD DUP2 PUSH20 0xFFFFFFFFFFFFFFFFFFFFFFFFFFFFFFFFFFFFFFFF MUL NOT AND SWAP1 DUP4 PUSH20 0xFFFFFFFFFFFFFFFFFFFFFFFFFFFFFFFFFFFFFFFF AND MUL OR SWAP1 SSTORE POP PUSH2 0x23C0 DUP1 PUSH2 0xCB PUSH1 0x0 CODECOPY PUSH1 0x0 RETURN INVALID PUSH1 0x80 PUSH1 0x40 MSTORE CALLVALUE DUP1 ISZERO PUSH2 0x10 JUMPI PUSH1 0x0 DUP1 REVERT JUMPDEST POP PUSH1 0x4 CALLDATASIZE LT PUSH2 0x206 JUMPI PUSH1 0x0 CALLDATALOAD PUSH1 0xE0 SHR DUP1 PUSH4 0x97D88CD2 GT PUSH2 0x11A JUMPI DUP1 PUSH4 0xDA46098C GT PUSH2 0xAD JUMPI DUP1 PUSH4 0xE468688E GT PUSH2 0x7C JUMPI DUP1 PUSH4 0xE468688E EQ PUSH2 0x99F JUMPI DUP1 PUSH4 0xF2FDE38B EQ PUSH2 0x9CD JUMPI DUP1 PUSH4 0xF7EA7A3D EQ PUSH2 0xA11 JUMPI DUP1 PUSH4 0xF83D08BA EQ PUSH2 0xA3F JUMPI DUP1 PUSH4 0xF8B2CB4F EQ PUSH2 0xA49 JUMPI PUSH2 0x206 JUMP JUMPDEST DUP1 PUSH4 0xDA46098C EQ PUSH2 0x821 JUMPI DUP1 PUSH4 0xDD62ED3E EQ PUSH2 0x88F JUMPI DUP1 PUSH4 0xE30443BC EQ PUSH2 0x907 JUMPI DUP1 PUSH4 0xE30C3978 EQ PUSH2 0x955 JUMPI PUSH2 0x206 JUMP JUMPDEST DUP1 PUSH4 0xC4E41B22 GT PUSH2 0xE9 JUMPI DUP1 PUSH4 0xC4E41B22 EQ PUSH2 0x745 JUMPI DUP1 PUSH4 0xCF8EEB7E EQ PUSH2 0x763 JUMPI DUP1 PUSH4 0xD73DD623 EQ PUSH2 0x7B1 JUMPI DUP1 PUSH4 0xD9DD3D36 EQ PUSH2 0x817 JUMPI PUSH2 0x206 JUMP JUMPDEST DUP1 PUSH4 0x97D88CD2 EQ PUSH2 0x65D JUMPI DUP1 PUSH4 0x9B2BDC20 EQ PUSH2 0x6CB JUMPI DUP1 PUSH4 0xA69DF4B5 EQ PUSH2 0x6D5 JUMPI DUP1 PUSH4 0xA9059CBB EQ PUSH2 0x6DF JUMPI PUSH2 0x206 JUMP JUMPDEST DUP1 PUSH4 0x5C975ABB GT PUSH2 0x19D JUMPI DUP1 PUSH4 0x82838C76 GT PUSH2 0x16C JUMPI DUP1 PUSH4 0x82838C76 EQ PUSH2 0x5AF JUMPI DUP1 PUSH4 0x8456CB59 EQ PUSH2 0x5DD JUMPI DUP1 PUSH4 0x88FA2617 EQ PUSH2 0x5E7 JUMPI DUP1 PUSH4 0x8955ED7E EQ PUSH2 0x609 JUMPI DUP1 PUSH4 0x8DA5CB5B EQ PUSH2 0x613 JUMPI PUSH2 0x206 JUMP JUMPDEST DUP1 PUSH4 0x5C975ABB EQ PUSH2 0x461 JUMPI DUP1 PUSH4 0x5FD72D16 EQ PUSH2 0x483 JUMPI DUP1 PUSH4 0x66188463 EQ PUSH2 0x4F1 JUMPI DUP1 PUSH4 0x70A08231 EQ PUSH2 0x557 JUMPI PUSH2 0x206 JUMP JUMPDEST DUP1 PUSH4 0x23B872DD GT PUSH2 0x1D9 JUMPI DUP1 PUSH4 0x23B872DD EQ PUSH2 0x355 JUMPI DUP1 PUSH4 0x3F4BA83A EQ PUSH2 0x3DB JUMPI DUP1 PUSH4 0x40C10F19 EQ PUSH2 0x3E5 JUMPI DUP1 PUSH4 0x42966C68 EQ PUSH2 0x433 JUMPI PUSH2 0x206 JUMP JUMPDEST DUP1 PUSH4 0x95EA7B3 EQ PUSH2 0x20B JUMPI DUP1 PUSH4 0x18160DDD EQ PUSH2 0x271 JUMPI DUP1 PUSH4 0x1A46EC82 EQ PUSH2 0x28F JUMPI DUP1 PUSH4 0x21E5383A EQ PUSH2 0x307 JUMPI JUMPDEST PUSH1 0x0 DUP1 REVERT JUMPDEST PUSH2 0x257 PUSH1 0x4 DUP1 CALLDATASIZE SUB PUSH1 0x40 DUP2 LT ISZERO PUSH2 0x221 JUMPI PUSH1 0x0 DUP1 REVERT JUMPDEST DUP2 ADD SWAP1 DUP1 DUP1 CALLDATALOAD PUSH20 0xFFFFFFFFFFFFFFFFFFFFFFFFFFFFFFFFFFFFFFFF AND SWAP1 PUSH1 0x20 ADD SWAP1 SWAP3 SWAP2 SWAP1 DUP1 CALLDATALOAD SWAP1 PUSH1 0x20 ADD SWAP1 SWAP3 SWAP2 SWAP1 POP POP POP PUSH2 0xAA1 JUMP JUMPDEST PUSH1 0x40 MLOAD DUP1 DUP3 ISZERO ISZERO ISZERO ISZERO DUP2 MSTORE PUSH1 0x20 ADD SWAP2 POP POP PUSH1 0x40 MLOAD DUP1 SWAP2 SUB SWAP1 RETURN JUMPDEST PUSH2 0x279 PUSH2 0xAEB JUMP JUMPDEST PUSH1 0x40 MLOAD DUP1 DUP3 DUP2 MSTORE PUSH1 0x20 ADD SWAP2 POP POP PUSH1 0x40 MLOAD DUP1 SWAP2 SUB SWAP1 RETURN JUMPDEST PUSH2 0x2F1 PUSH1 0x4 DUP1 CALLDATASIZE SUB PUSH1 0x40 DUP2 LT ISZERO PUSH2 0x2A5 JUMPI PUSH1 0x0 DUP1 REVERT JUMPDEST DUP2 ADD SWAP1 DUP1 DUP1 CALLDATALOAD PUSH20 0xFFFFFFFFFFFFFFFFFFFFFFFFFFFFFFFFFFFFFFFF AND SWAP1 PUSH1 0x20 ADD SWAP1 SWAP3 SWAP2 SWAP1 DUP1 CALLDATALOAD PUSH20 0xFFFFFFFFFFFFFFFFFFFFFFFFFFFFFFFFFFFFFFFF AND SWAP1 PUSH1 0x20 ADD SWAP1 SWAP3 SWAP2 SWAP1 POP POP POP PUSH2 0xAF1 JUMP JUMPDEST PUSH1 0x40 MLOAD DUP1 DUP3 DUP2 MSTORE PUSH1 0x20 ADD SWAP2 POP POP PUSH1 0x40 MLOAD DUP1 SWAP2 SUB SWAP1 RETURN JUMPDEST PUSH2 0x353 PUSH1 0x4 DUP1 CALLDATASIZE SUB PUSH1 0x40 DUP2 LT ISZERO PUSH2 0x31D JUMPI PUSH1 0x0 DUP1 REVERT JUMPDEST DUP2 ADD SWAP1 DUP1 DUP1 CALLDATALOAD PUSH20 0xFFFFFFFFFFFFFFFFFFFFFFFFFFFFFFFFFFFFFFFF AND SWAP1 PUSH1 0x20 ADD SWAP1 SWAP3 SWAP2 SWAP1 DUP1 CALLDATALOAD SWAP1 PUSH1 0x20 ADD SWAP1 SWAP3 SWAP2 SWAP1 POP POP POP PUSH2 0xB16 JUMP JUMPDEST STOP JUMPDEST PUSH2 0x3C1 PUSH1 0x4 DUP1 CALLDATASIZE SUB PUSH1 0x60 DUP2 LT ISZERO PUSH2 0x36B JUMPI PUSH1 0x0 DUP1 REVERT JUMPDEST DUP2 ADD SWAP1 DUP1 DUP1 CALLDATALOAD PUSH20 0xFFFFFFFFFFFFFFFFFFFFFFFFFFFFFFFFFFFFFFFF AND SWAP1 PUSH1 0x20 ADD SWAP1 SWAP3 SWAP2 SWAP1 DUP1 CALLDATALOAD PUSH20 0xFFFFFFFFFFFFFFFFFFFFFFFFFFFFFFFFFFFFFFFF AND SWAP1 PUSH1 0x20 ADD SWAP1 SWAP3 SWAP2 SWAP1 DUP1 CALLDATALOAD SWAP1 PUSH1 0x20 ADD SWAP1 SWAP3 SWAP2 SWAP1 POP POP POP PUSH2 0xC08 JUMP JUMPDEST PUSH1 0x40 MLOAD DUP1 DUP3 ISZERO ISZERO ISZERO ISZERO DUP2 MSTORE PUSH1 0x20 ADD SWAP2 POP POP PUSH1 0x40 MLOAD DUP1 SWAP2 SUB SWAP1 RETURN JUMPDEST PUSH2 0x3E3 PUSH2 0xC3B JUMP JUMPDEST STOP JUMPDEST PUSH2 0x431 PUSH1 0x4 DUP1 CALLDATASIZE SUB PUSH1 0x40 DUP2 LT ISZERO PUSH2 0x3FB JUMPI PUSH1 0x0 DUP1 REVERT JUMPDEST DUP2 ADD SWAP1 DUP1 DUP1 CALLDATALOAD PUSH20 0xFFFFFFFFFFFFFFFFFFFFFFFFFFFFFFFFFFFFFFFF AND SWAP1 PUSH1 0x20 ADD SWAP1 SWAP3 SWAP2 SWAP1 DUP1 CALLDATALOAD SWAP1 PUSH1 0x20 ADD SWAP1 SWAP3 SWAP2 SWAP1 POP POP POP PUSH2 0xCF6 JUMP JUMPDEST STOP JUMPDEST PUSH2 0x45F PUSH1 0x4 DUP1 CALLDATASIZE SUB PUSH1 0x20 DUP2 LT ISZERO PUSH2 0x449 JUMPI PUSH1 0x0 DUP1 REVERT JUMPDEST DUP2 ADD SWAP1 DUP1 DUP1 CALLDATALOAD SWAP1 PUSH1 0x20 ADD SWAP1 SWAP3 SWAP2 SWAP1 POP POP POP PUSH2 0xD1E JUMP JUMPDEST STOP JUMPDEST PUSH2 0x469 PUSH2 0xD44 JUMP JUMPDEST PUSH1 0x40 MLOAD DUP1 DUP3 ISZERO ISZERO ISZERO ISZERO DUP2 MSTORE PUSH1 0x20 ADD SWAP2 POP POP PUSH1 0x40 MLOAD DUP1 SWAP2 SUB SWAP1 RETURN JUMPDEST PUSH2 0x4EF PUSH1 0x4 DUP1 CALLDATASIZE SUB PUSH1 0x60 DUP2 LT ISZERO PUSH2 0x499 JUMPI PUSH1 0x0 DUP1 REVERT JUMPDEST DUP2 ADD SWAP1 DUP1 DUP1 CALLDATALOAD PUSH20 0xFFFFFFFFFFFFFFFFFFFFFFFFFFFFFFFFFFFFFFFF AND SWAP1 PUSH1 0x20 ADD SWAP1 SWAP3 SWAP2 SWAP1 DUP1 CALLDATALOAD PUSH20 0xFFFFFFFFFFFFFFFFFFFFFFFFFFFFFFFFFFFFFFFF AND SWAP1 PUSH1 0x20 ADD SWAP1 SWAP3 SWAP2 SWAP1 DUP1 CALLDATALOAD SWAP1 PUSH1 0x20 ADD SWAP1 SWAP3 SWAP2 SWAP1 POP POP POP PUSH2 0xD57 JUMP JUMPDEST STOP JUMPDEST PUSH2 0x53D PUSH1 0x4 DUP1 CALLDATASIZE SUB PUSH1 0x40 DUP2 LT ISZERO PUSH2 0x507 JUMPI PUSH1 0x0 DUP1 REVERT JUMPDEST DUP2 ADD SWAP1 DUP1 DUP1 CALLDATALOAD PUSH20 0xFFFFFFFFFFFFFFFFFFFFFFFFFFFFFFFFFFFFFFFF AND SWAP1 PUSH1 0x20 ADD SWAP1 SWAP3 SWAP2 SWAP1 DUP1 CALLDATALOAD SWAP1 PUSH1 0x20 ADD SWAP1 SWAP3 SWAP2 SWAP1 POP POP POP PUSH2 0xEC4 JUMP JUMPDEST PUSH1 0x40 MLOAD DUP1 DUP3 ISZERO ISZERO ISZERO ISZERO DUP2 MSTORE PUSH1 0x20 ADD SWAP2 POP POP PUSH1 0x40 MLOAD DUP1 SWAP2 SUB SWAP1 RETURN JUMPDEST PUSH2 0x599 PUSH1 0x4 DUP1 CALLDATASIZE SUB PUSH1 0x20 DUP2 LT ISZERO PUSH2 0x56D JUMPI PUSH1 0x0 DUP1 REVERT JUMPDEST DUP2 ADD SWAP1 DUP1 DUP1 CALLDATALOAD PUSH20 0xFFFFFFFFFFFFFFFFFFFFFFFFFFFFFFFFFFFFFFFF AND SWAP1 PUSH1 0x20 ADD SWAP1 SWAP3 SWAP2 SWAP1 POP POP POP PUSH2 0xEF5 JUMP JUMPDEST PUSH1 0x40 MLOAD DUP1 DUP3 DUP2 MSTORE PUSH1 0x20 ADD SWAP2 POP POP PUSH1 0x40 MLOAD DUP1 SWAP2 SUB SWAP1 RETURN JUMPDEST PUSH2 0x5DB PUSH1 0x4 DUP1 CALLDATASIZE SUB PUSH1 0x20 DUP2 LT ISZERO PUSH2 0x5C5 JUMPI PUSH1 0x0 DUP1 REVERT JUMPDEST DUP2 ADD SWAP1 DUP1 DUP1 CALLDATALOAD SWAP1 PUSH1 0x20 ADD SWAP1 SWAP3 SWAP2 SWAP1 POP POP POP PUSH2 0xF0D JUMP JUMPDEST STOP JUMPDEST PUSH2 0x5E5 PUSH2 0xF84 JUMP JUMPDEST STOP JUMPDEST PUSH2 0x5EF PUSH2 0x1040 JUMP JUMPDEST PUSH1 0x40 MLOAD DUP1 DUP3 ISZERO ISZERO ISZERO ISZERO DUP2 MSTORE PUSH1 0x20 ADD SWAP2 POP POP PUSH1 0x40 MLOAD DUP1 SWAP2 SUB SWAP1 RETURN JUMPDEST PUSH2 0x611 PUSH2 0x1053 JUMP JUMPDEST STOP JUMPDEST PUSH2 0x61B PUSH2 0x105D JUMP JUMPDEST PUSH1 0x40 MLOAD DUP1 DUP3 PUSH20 0xFFFFFFFFFFFFFFFFFFFFFFFFFFFFFFFFFFFFFFFF AND PUSH20 0xFFFFFFFFFFFFFFFFFFFFFFFFFFFFFFFFFFFFFFFF AND DUP2 MSTORE PUSH1 0x20 ADD SWAP2 POP POP PUSH1 0x40 MLOAD DUP1 SWAP2 SUB SWAP1 RETURN JUMPDEST PUSH2 0x6C9 PUSH1 0x4 DUP1 CALLDATASIZE SUB PUSH1 0x60 DUP2 LT ISZERO PUSH2 0x673 JUMPI PUSH1 0x0 DUP1 REVERT JUMPDEST DUP2 ADD SWAP1 DUP1 DUP1 CALLDATALOAD PUSH20 0xFFFFFFFFFFFFFFFFFFFFFFFFFFFFFFFFFFFFFFFF AND SWAP1 PUSH1 0x20 ADD SWAP1 SWAP3 SWAP2 SWAP1 DUP1 CALLDATALOAD PUSH20 0xFFFFFFFFFFFFFFFFFFFFFFFFFFFFFFFFFFFFFFFF AND SWAP1 PUSH1 0x20 ADD SWAP1 SWAP3 SWAP2 SWAP1 DUP1 CALLDATALOAD SWAP1 PUSH1 0x20 ADD SWAP1 SWAP3 SWAP2 SWAP1 POP POP POP PUSH2 0x1082 JUMP JUMPDEST STOP JUMPDEST PUSH2 0x6D3 PUSH2 0x11EF JUMP JUMPDEST STOP JUMPDEST PUSH2 0x6DD PUSH2 0x11F9 JUMP JUMPDEST STOP JUMPDEST PUSH2 0x72B PUSH1 0x4 DUP1 CALLDATASIZE SUB PUSH1 0x40 DUP2 LT ISZERO PUSH2 0x6F5 JUMPI PUSH1 0x0 DUP1 REVERT JUMPDEST DUP2 ADD SWAP1 DUP1 DUP1 CALLDATALOAD PUSH20 0xFFFFFFFFFFFFFFFFFFFFFFFFFFFFFFFFFFFFFFFF AND SWAP1 PUSH1 0x20 ADD SWAP1 SWAP3 SWAP2 SWAP1 DUP1 CALLDATALOAD SWAP1 PUSH1 0x20 ADD SWAP1 SWAP3 SWAP2 SWAP1 POP POP POP PUSH2 0x129B JUMP JUMPDEST PUSH1 0x40 MLOAD DUP1 DUP3 ISZERO ISZERO ISZERO ISZERO DUP2 MSTORE PUSH1 0x20 ADD SWAP2 POP POP PUSH1 0x40 MLOAD DUP1 SWAP2 SUB SWAP1 RETURN JUMPDEST PUSH2 0x74D PUSH2 0x12CC JUMP JUMPDEST PUSH1 0x40 MLOAD DUP1 DUP3 DUP2 MSTORE PUSH1 0x20 ADD SWAP2 POP POP PUSH1 0x40 MLOAD DUP1 SWAP2 SUB SWAP1 RETURN JUMPDEST PUSH2 0x7AF PUSH1 0x4 DUP1 CALLDATASIZE SUB PUSH1 0x40 DUP2 LT ISZERO PUSH2 0x779 JUMPI PUSH1 0x0 DUP1 REVERT JUMPDEST DUP2 ADD SWAP1 DUP1 DUP1 CALLDATALOAD PUSH20 0xFFFFFFFFFFFFFFFFFFFFFFFFFFFFFFFFFFFFFFFF AND SWAP1 PUSH1 0x20 ADD SWAP1 SWAP3 SWAP2 SWAP1 DUP1 CALLDATALOAD SWAP1 PUSH1 0x20 ADD SWAP1 SWAP3 SWAP2 SWAP1 POP POP POP PUSH2 0x12D6 JUMP JUMPDEST STOP JUMPDEST PUSH2 0x7FD PUSH1 0x4 DUP1 CALLDATASIZE SUB PUSH1 0x40 DUP2 LT ISZERO PUSH2 0x7C7 JUMPI PUSH1 0x0 DUP1 REVERT JUMPDEST DUP2 ADD SWAP1 DUP1 DUP1 CALLDATALOAD PUSH20 0xFFFFFFFFFFFFFFFFFFFFFFFFFFFFFFFFFFFFFFFF AND SWAP1 PUSH1 0x20 ADD SWAP1 SWAP3 SWAP2 SWAP1 DUP1 CALLDATALOAD SWAP1 PUSH1 0x20 ADD SWAP1 SWAP3 SWAP2 SWAP1 POP POP POP PUSH2 0x13C8 JUMP JUMPDEST PUSH1 0x40 MLOAD DUP1 DUP3 ISZERO ISZERO ISZERO ISZERO DUP2 MSTORE PUSH1 0x20 ADD SWAP2 POP POP PUSH1 0x40 MLOAD DUP1 SWAP2 SUB SWAP1 RETURN JUMPDEST PUSH2 0x81F PUSH2 0x13F9 JUMP JUMPDEST STOP JUMPDEST PUSH2 0x88D PUSH1 0x4 DUP1 CALLDATASIZE SUB PUSH1 0x60 DUP2 LT ISZERO PUSH2 0x837 JUMPI PUSH1 0x0 DUP1 REVERT JUMPDEST DUP2 ADD SWAP1 DUP1 DUP1 CALLDATALOAD PUSH20 0xFFFFFFFFFFFFFFFFFFFFFFFFFFFFFFFFFFFFFFFF AND SWAP1 PUSH1 0x20 ADD SWAP1 SWAP3 SWAP2 SWAP1 DUP1 CALLDATALOAD PUSH20 0xFFFFFFFFFFFFFFFFFFFFFFFFFFFFFFFFFFFFFFFF AND SWAP1 PUSH1 0x20 ADD SWAP1 SWAP3 SWAP2 SWAP1 DUP1 CALLDATALOAD SWAP1 PUSH1 0x20 ADD SWAP1 SWAP3 SWAP2 SWAP1 POP POP POP PUSH2 0x1596 JUMP JUMPDEST STOP JUMPDEST PUSH2 0x8F1 PUSH1 0x4 DUP1 CALLDATASIZE SUB PUSH1 0x40 DUP2 LT ISZERO PUSH2 0x8A5 JUMPI PUSH1 0x0 DUP1 REVERT JUMPDEST DUP2 ADD SWAP1 DUP1 DUP1 CALLDATALOAD PUSH20 0xFFFFFFFFFFFFFFFFFFFFFFFFFFFFFFFFFFFFFFFF AND SWAP1 PUSH1 0x20 ADD SWAP1 SWAP3 SWAP2 SWAP1 DUP1 CALLDATALOAD PUSH20 0xFFFFFFFFFFFFFFFFFFFFFFFFFFFFFFFFFFFFFFFF AND SWAP1 PUSH1 0x20 ADD SWAP1 SWAP3 SWAP2 SWAP1 POP POP POP PUSH2 0x1675 JUMP JUMPDEST PUSH1 0x40 MLOAD DUP1 DUP3 DUP2 MSTORE PUSH1 0x20 ADD SWAP2 POP POP PUSH1 0x40 MLOAD DUP1 SWAP2 SUB SWAP1 RETURN JUMPDEST PUSH2 0x953 PUSH1 0x4 DUP1 CALLDATASIZE SUB PUSH1 0x40 DUP2 LT ISZERO PUSH2 0x91D JUMPI PUSH1 0x0 DUP1 REVERT JUMPDEST DUP2 ADD SWAP1 DUP1 DUP1 CALLDATALOAD PUSH20 0xFFFFFFFFFFFFFFFFFFFFFFFFFFFFFFFFFFFFFFFF AND SWAP1 PUSH1 0x20 ADD SWAP1 SWAP3 SWAP2 SWAP1 DUP1 CALLDATALOAD SWAP1 PUSH1 0x20 ADD SWAP1 SWAP3 SWAP2 SWAP1 POP POP POP PUSH2 0x16FC JUMP JUMPDEST STOP JUMPDEST PUSH2 0x95D PUSH2 0x179D JUMP JUMPDEST PUSH1 0x40 MLOAD DUP1 DUP3 PUSH20 0xFFFFFFFFFFFFFFFFFFFFFFFFFFFFFFFFFFFFFFFF AND PUSH20 0xFFFFFFFFFFFFFFFFFFFFFFFFFFFFFFFFFFFFFFFF AND DUP2 MSTORE PUSH1 0x20 ADD SWAP2 POP POP PUSH1 0x40 MLOAD DUP1 SWAP2 SUB SWAP1 RETURN JUMPDEST PUSH2 0x9CB PUSH1 0x4 DUP1 CALLDATASIZE SUB PUSH1 0x20 DUP2 LT ISZERO PUSH2 0x9B5 JUMPI PUSH1 0x0 DUP1 REVERT JUMPDEST DUP2 ADD SWAP1 DUP1 DUP1 CALLDATALOAD SWAP1 PUSH1 0x20 ADD SWAP1 SWAP3 SWAP2 SWAP1 POP POP POP PUSH2 0x17C3 JUMP JUMPDEST STOP JUMPDEST PUSH2 0xA0F PUSH1 0x4 DUP1 CALLDATASIZE SUB PUSH1 0x20 DUP2 LT ISZERO PUSH2 0x9E3 JUMPI PUSH1 0x0 DUP1 REVERT JUMPDEST DUP2 ADD SWAP1 DUP1 DUP1 CALLDATALOAD PUSH20 0xFFFFFFFFFFFFFFFFFFFFFFFFFFFFFFFFFFFFFFFF AND SWAP1 PUSH1 0x20 ADD SWAP1 SWAP3 SWAP2 SWAP1 POP POP POP PUSH2 0x183A JUMP JUMPDEST STOP JUMPDEST PUSH2 0xA3D PUSH1 0x4 DUP1 CALLDATASIZE SUB PUSH1 0x20 DUP2 LT ISZERO PUSH2 0xA27 JUMPI PUSH1 0x0 DUP1 REVERT JUMPDEST DUP2 ADD SWAP1 DUP1 DUP1 CALLDATALOAD SWAP1 PUSH1 0x20 ADD SWAP1 SWAP3 SWAP2 SWAP1 POP POP POP PUSH2 0x1911 JUMP JUMPDEST STOP JUMPDEST PUSH2 0xA47 PUSH2 0x1974 JUMP JUMPDEST STOP JUMPDEST PUSH2 0xA8B PUSH1 0x4 DUP1 CALLDATASIZE SUB PUSH1 0x20 DUP2 LT ISZERO PUSH2 0xA5F JUMPI PUSH1 0x0 DUP1 REVERT JUMPDEST DUP2 ADD SWAP1 DUP1 DUP1 CALLDATALOAD PUSH20 0xFFFFFFFFFFFFFFFFFFFFFFFFFFFFFFFFFFFFFFFF AND SWAP1 PUSH1 0x20 ADD SWAP1 SWAP3 SWAP2 SWAP1 POP POP POP PUSH2 0x1A16 JUMP JUMPDEST PUSH1 0x40 MLOAD DUP1 DUP3 DUP2 MSTORE PUSH1 0x20 ADD SWAP2 POP POP PUSH1 0x40 MLOAD DUP1 SWAP2 SUB SWAP1 RETURN JUMPDEST PUSH1 0x0 PUSH1 0x5 PUSH1 0x0 SWAP1 SLOAD SWAP1 PUSH2 0x100 EXP SWAP1 DIV PUSH1 0xFF AND ISZERO PUSH2 0xABD JUMPI PUSH1 0x0 DUP1 REVERT JUMPDEST PUSH1 0x5 PUSH1 0x1 SWAP1 SLOAD SWAP1 PUSH2 0x100 EXP SWAP1 DIV PUSH1 0xFF AND PUSH2 0xAD6 JUMPI PUSH1 0x0 DUP1 REVERT JUMPDEST PUSH2 0xAE0 DUP4 DUP4 PUSH2 0x1A5F JUMP JUMPDEST POP PUSH1 0x1 SWAP1 POP SWAP3 SWAP2 POP POP JUMP JUMPDEST PUSH1 0x3 SLOAD DUP2 JUMP JUMPDEST PUSH1 0x4 PUSH1 0x20 MSTORE DUP2 PUSH1 0x0 MSTORE PUSH1 0x40 PUSH1 0x0 KECCAK256 PUSH1 0x20 MSTORE DUP1 PUSH1 0x0 MSTORE PUSH1 0x40 PUSH1 0x0 KECCAK256 PUSH1 0x0 SWAP2 POP SWAP2 POP POP SLOAD DUP2 JUMP JUMPDEST PUSH1 0x0 DUP1 SWAP1 SLOAD SWAP1 PUSH2 0x100 EXP SWAP1 DIV PUSH20 0xFFFFFFFFFFFFFFFFFFFFFFFFFFFFFFFFFFFFFFFF AND PUSH20 0xFFFFFFFFFFFFFFFFFFFFFFFFFFFFFFFFFFFFFFFF AND CALLER PUSH20 0xFFFFFFFFFFFFFFFFFFFFFFFFFFFFFFFFFFFFFFFF AND EQ PUSH2 0xB6F JUMPI PUSH1 0x0 DUP1 REVERT JUMPDEST PUSH2 0xBC1 DUP2 PUSH1 0x2 PUSH1 0x0 DUP6 PUSH20 0xFFFFFFFFFFFFFFFFFFFFFFFFFFFFFFFFFFFFFFFF AND PUSH20 0xFFFFFFFFFFFFFFFFFFFFFFFFFFFFFFFFFFFFFFFF AND DUP2 MSTORE PUSH1 0x20 ADD SWAP1 DUP2 MSTORE PUSH1 0x20 ADD PUSH1 0x0 KECCAK256 SLOAD PUSH2 0x1ADB SWAP1 SWAP2 SWAP1 PUSH4 0xFFFFFFFF AND JUMP JUMPDEST PUSH1 0x2 PUSH1 0x0 DUP5 PUSH20 0xFFFFFFFFFFFFFFFFFFFFFFFFFFFFFFFFFFFFFFFF AND PUSH20 0xFFFFFFFFFFFFFFFFFFFFFFFFFFFFFFFFFFFFFFFF AND DUP2 MSTORE PUSH1 0x20 ADD SWAP1 DUP2 MSTORE PUSH1 0x20 ADD PUSH1 0x0 KECCAK256 DUP2 SWAP1 SSTORE POP POP POP JUMP JUMPDEST PUSH1 0x0 PUSH1 0x5 PUSH1 0x0 SWAP1 SLOAD SWAP1 PUSH2 0x100 EXP SWAP1 DIV PUSH1 0xFF AND ISZERO PUSH2 0xC24 JUMPI PUSH1 0x0 DUP1 REVERT JUMPDEST PUSH2 0xC2F DUP5 DUP5 DUP5 PUSH2 0x1B63 JUMP JUMPDEST POP PUSH1 0x1 SWAP1 POP SWAP4 SWAP3 POP POP POP JUMP JUMPDEST PUSH1 0x0 DUP1 SWAP1 SLOAD SWAP1 PUSH2 0x100 EXP SWAP1 DIV PUSH20 0xFFFFFFFFFFFFFFFFFFFFFFFFFFFFFFFFFFFFFFFF AND PUSH20 0xFFFFFFFFFFFFFFFFFFFFFFFFFFFFFFFFFFFFFFFF AND CALLER PUSH20 0xFFFFFFFFFFFFFFFFFFFFFFFFFFFFFFFFFFFFFFFF AND EQ PUSH2 0xC94 JUMPI PUSH1 0x0 DUP1 REVERT JUMPDEST PUSH1 0x5 PUSH1 0x0 SWAP1 SLOAD SWAP1 PUSH2 0x100 EXP SWAP1 DIV PUSH1 0xFF AND PUSH2 0xCAD JUMPI PUSH1 0x0 DUP1 REVERT JUMPDEST PUSH1 0x0 PUSH1 0x5 PUSH1 0x0 PUSH2 0x100 EXP DUP2 SLOAD DUP2 PUSH1 0xFF MUL NOT AND SWAP1 DUP4 ISZERO ISZERO MUL OR SWAP1 SSTORE POP PUSH32 0x7805862F689E2F13DF9F062FF482AD3AD112ACA9E0847911ED832E158C525B33 PUSH1 0x40 MLOAD PUSH1 0x40 MLOAD DUP1 SWAP2 SUB SWAP1 LOG1 JUMP JUMPDEST PUSH1 0x5 PUSH1 0x0 SWAP1 SLOAD SWAP1 PUSH2 0x100 EXP SWAP1 DIV PUSH1 0xFF AND ISZERO PUSH2 0xD10 JUMPI PUSH1 0x0 DUP1 REVERT JUMPDEST PUSH2 0xD1A DUP3 DUP3 PUSH2 0x1D94 JUMP JUMPDEST POP POP JUMP JUMPDEST PUSH1 0x5 PUSH1 0x0 SWAP1 SLOAD SWAP1 PUSH2 0x100 EXP SWAP1 DIV PUSH1 0xFF AND ISZERO PUSH2 0xD38 JUMPI PUSH1 0x0 DUP1 REVERT JUMPDEST PUSH2 0xD41 DUP2 PUSH2 0x1DFB JUMP JUMPDEST POP JUMP JUMPDEST PUSH1 0x5 PUSH1 0x0 SWAP1 SLOAD SWAP1 PUSH2 0x100 EXP SWAP1 DIV PUSH1 0xFF AND DUP2 JUMP JUMPDEST PUSH1 0x0 DUP1 SWAP1 SLOAD SWAP1 PUSH2 0x100 EXP SWAP1 DIV PUSH20 0xFFFFFFFFFFFFFFFFFFFFFFFFFFFFFFFFFFFFFFFF AND PUSH20 0xFFFFFFFFFFFFFFFFFFFFFFFFFFFFFFFFFFFFFFFF AND CALLER PUSH20 0xFFFFFFFFFFFFFFFFFFFFFFFFFFFFFFFFFFFFFFFF AND EQ PUSH2 0xDB0 JUMPI PUSH1 0x0 DUP1 REVERT JUMPDEST PUSH2 0xE3F DUP2 PUSH1 0x4 PUSH1 0x0 DUP7 PUSH20 0xFFFFFFFFFFFFFFFFFFFFFFFFFFFFFFFFFFFFFFFF AND PUSH20 0xFFFFFFFFFFFFFFFFFFFFFFFFFFFFFFFFFFFFFFFF AND DUP2 MSTORE PUSH1 0x20 ADD SWAP1 DUP2 MSTORE PUSH1 0x20 ADD PUSH1 0x0 KECCAK256 PUSH1 0x0 DUP6 PUSH20 0xFFFFFFFFFFFFFFFFFFFFFFFFFFFFFFFFFFFFFFFF AND PUSH20 0xFFFFFFFFFFFFFFFFFFFFFFFFFFFFFFFFFFFFFFFF AND DUP2 MSTORE PUSH1 0x20 ADD SWAP1 DUP2 MSTORE PUSH1 0x20 ADD PUSH1 0x0 KECCAK256 SLOAD PUSH2 0x1ADB SWAP1 SWAP2 SWAP1 PUSH4 0xFFFFFFFF AND JUMP JUMPDEST PUSH1 0x4 PUSH1 0x0 DUP6 PUSH20 0xFFFFFFFFFFFFFFFFFFFFFFFFFFFFFFFFFFFFFFFF AND PUSH20 0xFFFFFFFFFFFFFFFFFFFFFFFFFFFFFFFFFFFFFFFF AND DUP2 MSTORE PUSH1 0x20 ADD SWAP1 DUP2 MSTORE PUSH1 0x20 ADD PUSH1 0x0 KECCAK256 PUSH1 0x0 DUP5 PUSH20 0xFFFFFFFFFFFFFFFFFFFFFFFFFFFFFFFFFFFFFFFF AND PUSH20 0xFFFFFFFFFFFFFFFFFFFFFFFFFFFFFFFFFFFFFFFF AND DUP2 MSTORE PUSH1 0x20 ADD SWAP1 DUP2 MSTORE PUSH1 0x20 ADD PUSH1 0x0 KECCAK256 DUP2 SWAP1 SSTORE POP POP POP POP JUMP JUMPDEST PUSH1 0x0 PUSH1 0x5 PUSH1 0x0 SWAP1 SLOAD SWAP1 PUSH2 0x100 EXP SWAP1 DIV PUSH1 0xFF AND ISZERO PUSH2 0xEE0 JUMPI PUSH1 0x0 DUP1 REVERT JUMPDEST PUSH2 0xEEB DUP4 DUP4 CALLER PUSH2 0x1E08 JUMP JUMPDEST PUSH1 0x1 SWAP1 POP SWAP3 SWAP2 POP POP JUMP JUMPDEST PUSH1 0x2 PUSH1 0x20 MSTORE DUP1 PUSH1 0x0 MSTORE PUSH1 0x40 PUSH1 0x0 KECCAK256 PUSH1 0x0 SWAP2 POP SWAP1 POP SLOAD DUP2 JUMP JUMPDEST PUSH1 0x0 DUP1 SWAP1 SLOAD SWAP1 PUSH2 0x100 EXP SWAP1 DIV PUSH20 0xFFFFFFFFFFFFFFFFFFFFFFFFFFFFFFFFFFFFFFFF AND PUSH20 0xFFFFFFFFFFFFFFFFFFFFFFFFFFFFFFFFFFFFFFFF AND CALLER PUSH20 0xFFFFFFFFFFFFFFFFFFFFFFFFFFFFFFFFFFFFFFFF AND EQ PUSH2 0xF66 JUMPI PUSH1 0x0 DUP1 REVERT JUMPDEST PUSH2 0xF7B DUP2 PUSH1 0x3 SLOAD PUSH2 0x1EAF SWAP1 SWAP2 SWAP1 PUSH4 0xFFFFFFFF AND JUMP JUMPDEST PUSH1 0x3 DUP2 SWAP1 SSTORE POP POP JUMP JUMPDEST PUSH1 0x0 DUP1 SWAP1 SLOAD SWAP1 PUSH2 0x100 EXP SWAP1 DIV PUSH20 0xFFFFFFFFFFFFFFFFFFFFFFFFFFFFFFFFFFFFFFFF AND PUSH20 0xFFFFFFFFFFFFFFFFFFFFFFFFFFFFFFFFFFFFFFFF AND CALLER PUSH20 0xFFFFFFFFFFFFFFFFFFFFFFFFFFFFFFFFFFFFFFFF AND EQ PUSH2 0xFDD JUMPI PUSH1 0x0 DUP1 REVERT JUMPDEST PUSH1 0x5 PUSH1 0x0 SWAP1 SLOAD SWAP1 PUSH2 0x100 EXP SWAP1 DIV PUSH1 0xFF AND ISZERO PUSH2 0xFF7 JUMPI PUSH1 0x0 DUP1 REVERT JUMPDEST PUSH1 0x1 PUSH1 0x5 PUSH1 0x0 PUSH2 0x100 EXP DUP2 SLOAD DUP2 PUSH1 0xFF MUL NOT AND SWAP1 DUP4 ISZERO ISZERO MUL OR SWAP1 SSTORE POP PUSH32 0x6985A02210A168E66602D3235CB6DB0E70F92B3BA4D376A33C0F3D9434BFF625 PUSH1 0x40 MLOAD PUSH1 0x40 MLOAD DUP1 SWAP2 SUB SWAP1 LOG1 JUMP JUMPDEST PUSH1 0x5 PUSH1 0x1 SWAP1 SLOAD SWAP1 PUSH2 0x100 EXP SWAP1 DIV PUSH1 0xFF AND DUP2 JUMP JUMPDEST PUSH2 0x105B PUSH2 0x13F9 JUMP JUMPDEST JUMP JUMPDEST PUSH1 0x0 DUP1 SWAP1 SLOAD SWAP1 PUSH2 0x100 EXP SWAP1 DIV PUSH20 0xFFFFFFFFFFFFFFFFFFFFFFFFFFFFFFFFFFFFFFFF AND DUP2 JUMP JUMPDEST PUSH1 0x0 DUP1 SWAP1 SLOAD SWAP1 PUSH2 0x100 EXP SWAP1 DIV PUSH20 0xFFFFFFFFFFFFFFFFFFFFFFFFFFFFFFFFFFFFFFFF AND PUSH20 0xFFFFFFFFFFFFFFFFFFFFFFFFFFFFFFFFFFFFFFFF AND CALLER PUSH20 0xFFFFFFFFFFFFFFFFFFFFFFFFFFFFFFFFFFFFFFFF AND EQ PUSH2 0x10DB JUMPI PUSH1 0x0 DUP1 REVERT JUMPDEST PUSH2 0x116A DUP2 PUSH1 0x4 PUSH1 0x0 DUP7 PUSH20 0xFFFFFFFFFFFFFFFFFFFFFFFFFFFFFFFFFFFFFFFF AND PUSH20 0xFFFFFFFFFFFFFFFFFFFFFFFFFFFFFFFFFFFFFFFF AND DUP2 MSTORE PUSH1 0x20 ADD SWAP1 DUP2 MSTORE PUSH1 0x20 ADD PUSH1 0x0 KECCAK256 PUSH1 0x0 DUP6 PUSH20 0xFFFFFFFFFFFFFFFFFFFFFFFFFFFFFFFFFFFFFFFF AND PUSH20 0xFFFFFFFFFFFFFFFFFFFFFFFFFFFFFFFFFFFFFFFF AND DUP2 MSTORE PUSH1 0x20 ADD SWAP1 DUP2 MSTORE PUSH1 0x20 ADD PUSH1 0x0 KECCAK256 SLOAD PUSH2 0x1EAF SWAP1 SWAP2 SWAP1 PUSH4 0xFFFFFFFF AND JUMP JUMPDEST PUSH1 0x4 PUSH1 0x0 DUP6 PUSH20 0xFFFFFFFFFFFFFFFFFFFFFFFFFFFFFFFFFFFFFFFF AND PUSH20 0xFFFFFFFFFFFFFFFFFFFFFFFFFFFFFFFFFFFFFFFF AND DUP2 MSTORE PUSH1 0x20 ADD SWAP1 DUP2 MSTORE PUSH1 0x20 ADD PUSH1 0x0 KECCAK256 PUSH1 0x0 DUP5 PUSH20 0xFFFFFFFFFFFFFFFFFFFFFFFFFFFFFFFFFFFFFFFF AND PUSH20 0xFFFFFFFFFFFFFFFFFFFFFFFFFFFFFFFFFFFFFFFF AND DUP2 MSTORE PUSH1 0x20 ADD SWAP1 DUP2 MSTORE PUSH1 0x20 ADD PUSH1 0x0 KECCAK256 DUP2 SWAP1 SSTORE POP POP POP POP JUMP JUMPDEST PUSH2 0x11F7 PUSH2 0x13F9 JUMP JUMPDEST JUMP JUMPDEST PUSH1 0x0 DUP1 SWAP1 SLOAD SWAP1 PUSH2 0x100 EXP SWAP1 DIV PUSH20 0xFFFFFFFFFFFFFFFFFFFFFFFFFFFFFFFFFFFFFFFF AND PUSH20 0xFFFFFFFFFFFFFFFFFFFFFFFFFFFFFFFFFFFFFFFF AND CALLER PUSH20 0xFFFFFFFFFFFFFFFFFFFFFFFFFFFFFFFFFFFFFFFF AND EQ PUSH2 0x1252 JUMPI PUSH1 0x0 DUP1 REVERT JUMPDEST PUSH1 0x1 PUSH1 0x5 PUSH1 0x1 PUSH2 0x100 EXP DUP2 SLOAD DUP2 PUSH1 0xFF MUL NOT AND SWAP1 DUP4 ISZERO ISZERO MUL OR SWAP1 SSTORE POP PUSH32 0x19AAD37188A1D3921E29EB3C66ACF43D81975E107CB650D58CCA878627955FD6 PUSH1 0x40 MLOAD PUSH1 0x40 MLOAD DUP1 SWAP2 SUB SWAP1 LOG1 JUMP JUMPDEST PUSH1 0x0 PUSH1 0x5 PUSH1 0x0 SWAP1 SLOAD SWAP1 PUSH2 0x100 EXP SWAP1 DIV PUSH1 0xFF AND ISZERO PUSH2 0x12B7 JUMPI PUSH1 0x0 DUP1 REVERT JUMPDEST PUSH2 0x12C1 DUP4 DUP4 PUSH2 0x1EF9 JUMP JUMPDEST POP PUSH1 0x1 SWAP1 POP SWAP3 SWAP2 POP POP JUMP JUMPDEST PUSH1 0x0 PUSH1 0x3 SLOAD SWAP1 POP SWAP1 JUMP JUMPDEST PUSH1 0x0 DUP1 SWAP1 SLOAD SWAP1 PUSH2 0x100 EXP SWAP1 DIV PUSH20 0xFFFFFFFFFFFFFFFFFFFFFFFFFFFFFFFFFFFFFFFF AND PUSH20 0xFFFFFFFFFFFFFFFFFFFFFFFFFFFFFFFFFFFFFFFF AND CALLER PUSH20 0xFFFFFFFFFFFFFFFFFFFFFFFFFFFFFFFFFFFFFFFF AND EQ PUSH2 0x132F JUMPI PUSH1 0x0 DUP1 REVERT JUMPDEST PUSH2 0x1381 DUP2 PUSH1 0x2 PUSH1 0x0 DUP6 PUSH20 0xFFFFFFFFFFFFFFFFFFFFFFFFFFFFFFFFFFFFFFFF AND PUSH20 0xFFFFFFFFFFFFFFFFFFFFFFFFFFFFFFFFFFFFFFFF AND DUP2 MSTORE PUSH1 0x20 ADD SWAP1 DUP2 MSTORE PUSH1 0x20 ADD PUSH1 0x0 KECCAK256 SLOAD PUSH2 0x1EAF SWAP1 SWAP2 SWAP1 PUSH4 0xFFFFFFFF AND JUMP JUMPDEST PUSH1 0x2 PUSH1 0x0 DUP5 PUSH20 0xFFFFFFFFFFFFFFFFFFFFFFFFFFFFFFFFFFFFFFFF AND PUSH20 0xFFFFFFFFFFFFFFFFFFFFFFFFFFFFFFFFFFFFFFFF AND DUP2 MSTORE PUSH1 0x20 ADD SWAP1 DUP2 MSTORE PUSH1 0x20 ADD PUSH1 0x0 KECCAK256 DUP2 SWAP1 SSTORE POP POP POP JUMP JUMPDEST PUSH1 0x0 PUSH1 0x5 PUSH1 0x0 SWAP1 SLOAD SWAP1 PUSH2 0x100 EXP SWAP1 DIV PUSH1 0xFF AND ISZERO PUSH2 0x13E4 JUMPI PUSH1 0x0 DUP1 REVERT JUMPDEST PUSH2 0x13EF DUP4 DUP4 CALLER PUSH2 0x2039 JUMP JUMPDEST PUSH1 0x1 SWAP1 POP SWAP3 SWAP2 POP POP JUMP JUMPDEST PUSH1 0x1 PUSH1 0x0 SWAP1 SLOAD SWAP1 PUSH2 0x100 EXP SWAP1 DIV PUSH20 0xFFFFFFFFFFFFFFFFFFFFFFFFFFFFFFFFFFFFFFFF AND PUSH20 0xFFFFFFFFFFFFFFFFFFFFFFFFFFFFFFFFFFFFFFFF AND CALLER PUSH20 0xFFFFFFFFFFFFFFFFFFFFFFFFFFFFFFFFFFFFFFFF AND EQ PUSH2 0x1453 JUMPI PUSH1 0x0 DUP1 REVERT JUMPDEST PUSH1 0x1 PUSH1 0x0 SWAP1 SLOAD SWAP1 PUSH2 0x100 EXP SWAP1 DIV PUSH20 0xFFFFFFFFFFFFFFFFFFFFFFFFFFFFFFFFFFFFFFFF AND PUSH20 0xFFFFFFFFFFFFFFFFFFFFFFFFFFFFFFFFFFFFFFFF AND PUSH1 0x0 DUP1 SWAP1 SLOAD SWAP1 PUSH2 0x100 EXP SWAP1 DIV PUSH20 0xFFFFFFFFFFFFFFFFFFFFFFFFFFFFFFFFFFFFFFFF AND PUSH20 0xFFFFFFFFFFFFFFFFFFFFFFFFFFFFFFFFFFFFFFFF AND PUSH32 0x8BE0079C531659141344CD1FD0A4F28419497F9722A3DAAFE3B4186F6B6457E0 PUSH1 0x40 MLOAD PUSH1 0x40 MLOAD DUP1 SWAP2 SUB SWAP1 LOG3 PUSH1 0x1 PUSH1 0x0 SWAP1 SLOAD SWAP1 PUSH2 0x100 EXP SWAP1 DIV PUSH20 0xFFFFFFFFFFFFFFFFFFFFFFFFFFFFFFFFFFFFFFFF AND PUSH1 0x0 DUP1 PUSH2 0x100 EXP DUP2 SLOAD DUP2 PUSH20 0xFFFFFFFFFFFFFFFFFFFFFFFFFFFFFFFFFFFFFFFF MUL NOT AND SWAP1 DUP4 PUSH20 0xFFFFFFFFFFFFFFFFFFFFFFFFFFFFFFFFFFFFFFFF AND MUL OR SWAP1 SSTORE POP PUSH1 0x0 PUSH1 0x1 PUSH1 0x0 PUSH2 0x100 EXP DUP2 SLOAD DUP2 PUSH20 0xFFFFFFFFFFFFFFFFFFFFFFFFFFFFFFFFFFFFFFFF MUL NOT AND SWAP1 DUP4 PUSH20 0xFFFFFFFFFFFFFFFFFFFFFFFFFFFFFFFFFFFFFFFF AND MUL OR SWAP1 SSTORE POP JUMP JUMPDEST PUSH1 0x0 DUP1 SWAP1 SLOAD SWAP1 PUSH2 0x100 EXP SWAP1 DIV PUSH20 0xFFFFFFFFFFFFFFFFFFFFFFFFFFFFFFFFFFFFFFFF AND PUSH20 0xFFFFFFFFFFFFFFFFFFFFFFFFFFFFFFFFFFFFFFFF AND CALLER PUSH20 0xFFFFFFFFFFFFFFFFFFFFFFFFFFFFFFFFFFFFFFFF AND EQ PUSH2 0x15EF JUMPI PUSH1 0x0 DUP1 REVERT JUMPDEST DUP1 PUSH1 0x4 PUSH1 0x0 DUP6 PUSH20 0xFFFFFFFFFFFFFFFFFFFFFFFFFFFFFFFFFFFFFFFF AND PUSH20 0xFFFFFFFFFFFFFFFFFFFFFFFFFFFFFFFFFFFFFFFF AND DUP2 MSTORE PUSH1 0x20 ADD SWAP1 DUP2 MSTORE PUSH1 0x20 ADD PUSH1 0x0 KECCAK256 PUSH1 0x0 DUP5 PUSH20 0xFFFFFFFFFFFFFFFFFFFFFFFFFFFFFFFFFFFFFFFF AND PUSH20 0xFFFFFFFFFFFFFFFFFFFFFFFFFFFFFFFFFFFFFFFF AND DUP2 MSTORE PUSH1 0x20 ADD SWAP1 DUP2 MSTORE PUSH1 0x20 ADD PUSH1 0x0 KECCAK256 DUP2 SWAP1 SSTORE POP POP POP POP JUMP JUMPDEST PUSH1 0x0 PUSH1 0x4 PUSH1 0x0 DUP5 PUSH20 0xFFFFFFFFFFFFFFFFFFFFFFFFFFFFFFFFFFFFFFFF AND PUSH20 0xFFFFFFFFFFFFFFFFFFFFFFFFFFFFFFFFFFFFFFFF AND DUP2 MSTORE PUSH1 0x20 ADD SWAP1 DUP2 MSTORE PUSH1 0x20 ADD PUSH1 0x0 KECCAK256 PUSH1 0x0 DUP4 PUSH20 0xFFFFFFFFFFFFFFFFFFFFFFFFFFFFFFFFFFFFFFFF AND PUSH20 0xFFFFFFFFFFFFFFFFFFFFFFFFFFFFFFFFFFFFFFFF AND DUP2 MSTORE PUSH1 0x20 ADD SWAP1 DUP2 MSTORE PUSH1 0x20 ADD PUSH1 0x0 KECCAK256 SLOAD SWAP1 POP SWAP3 SWAP2 POP POP JUMP JUMPDEST PUSH1 0x0 DUP1 SWAP1 SLOAD SWAP1 PUSH2 0x100 EXP SWAP1 DIV PUSH20 0xFFFFFFFFFFFFFFFFFFFFFFFFFFFFFFFFFFFFFFFF AND PUSH20 0xFFFFFFFFFFFFFFFFFFFFFFFFFFFFFFFFFFFFFFFF AND CALLER PUSH20 0xFFFFFFFFFFFFFFFFFFFFFFFFFFFFFFFFFFFFFFFF AND EQ PUSH2 0x1755 JUMPI PUSH1 0x0 DUP1 REVERT JUMPDEST DUP1 PUSH1 0x2 PUSH1 0x0 DUP5 PUSH20 0xFFFFFFFFFFFFFFFFFFFFFFFFFFFFFFFFFFFFFFFF AND PUSH20 0xFFFFFFFFFFFFFFFFFFFFFFFFFFFFFFFFFFFFFFFF AND DUP2 MSTORE PUSH1 0x20 ADD SWAP1 DUP2 MSTORE PUSH1 0x20 ADD PUSH1 0x0 KECCAK256 DUP2 SWAP1 SSTORE POP POP POP JUMP JUMPDEST PUSH1 0x1 PUSH1 0x0 SWAP1 SLOAD SWAP1 PUSH2 0x100 EXP SWAP1 DIV PUSH20 0xFFFFFFFFFFFFFFFFFFFFFFFFFFFFFFFFFFFFFFFF AND DUP2 JUMP JUMPDEST PUSH1 0x0 DUP1 SWAP1 SLOAD SWAP1 PUSH2 0x100 EXP SWAP1 DIV PUSH20 0xFFFFFFFFFFFFFFFFFFFFFFFFFFFFFFFFFFFFFFFF AND PUSH20 0xFFFFFFFFFFFFFFFFFFFFFFFFFFFFFFFFFFFFFFFF AND CALLER PUSH20 0xFFFFFFFFFFFFFFFFFFFFFFFFFFFFFFFFFFFFFFFF AND EQ PUSH2 0x181C JUMPI PUSH1 0x0 DUP1 REVERT JUMPDEST PUSH2 0x1831 DUP2 PUSH1 0x3 SLOAD PUSH2 0x1ADB SWAP1 SWAP2 SWAP1 PUSH4 0xFFFFFFFF AND JUMP JUMPDEST PUSH1 0x3 DUP2 SWAP1 SSTORE POP POP JUMP JUMPDEST PUSH1 0x0 DUP1 SWAP1 SLOAD SWAP1 PUSH2 0x100 EXP SWAP1 DIV PUSH20 0xFFFFFFFFFFFFFFFFFFFFFFFFFFFFFFFFFFFFFFFF AND PUSH20 0xFFFFFFFFFFFFFFFFFFFFFFFFFFFFFFFFFFFFFFFF AND CALLER PUSH20 0xFFFFFFFFFFFFFFFFFFFFFFFFFFFFFFFFFFFFFFFF AND EQ PUSH2 0x1893 JUMPI PUSH1 0x0 DUP1 REVERT JUMPDEST PUSH1 0x0 PUSH20 0xFFFFFFFFFFFFFFFFFFFFFFFFFFFFFFFFFFFFFFFF AND DUP2 PUSH20 0xFFFFFFFFFFFFFFFFFFFFFFFFFFFFFFFFFFFFFFFF AND EQ ISZERO PUSH2 0x18CD JUMPI PUSH1 0x0 DUP1 REVERT JUMPDEST DUP1 PUSH1 0x1 PUSH1 0x0 PUSH2 0x100 EXP DUP2 SLOAD DUP2 PUSH20 0xFFFFFFFFFFFFFFFFFFFFFFFFFFFFFFFFFFFFFFFF MUL NOT AND SWAP1 DUP4 PUSH20 0xFFFFFFFFFFFFFFFFFFFFFFFFFFFFFFFFFFFFFFFF AND MUL OR SWAP1 SSTORE POP POP JUMP JUMPDEST PUSH1 0x0 DUP1 SWAP1 SLOAD SWAP1 PUSH2 0x100 EXP SWAP1 DIV PUSH20 0xFFFFFFFFFFFFFFFFFFFFFFFFFFFFFFFFFFFFFFFF AND PUSH20 0xFFFFFFFFFFFFFFFFFFFFFFFFFFFFFFFFFFFFFFFF AND CALLER PUSH20 0xFFFFFFFFFFFFFFFFFFFFFFFFFFFFFFFFFFFFFFFF AND EQ PUSH2 0x196A JUMPI PUSH1 0x0 DUP1 REVERT JUMPDEST DUP1 PUSH1 0x3 DUP2 SWAP1 SSTORE POP POP JUMP JUMPDEST PUSH1 0x0 DUP1 SWAP1 SLOAD SWAP1 PUSH2 0x100 EXP SWAP1 DIV PUSH20 0xFFFFFFFFFFFFFFFFFFFFFFFFFFFFFFFFFFFFFFFF AND PUSH20 0xFFFFFFFFFFFFFFFFFFFFFFFFFFFFFFFFFFFFFFFF AND CALLER PUSH20 0xFFFFFFFFFFFFFFFFFFFFFFFFFFFFFFFFFFFFFFFF AND EQ PUSH2 0x19CD JUMPI PUSH1 0x0 DUP1 REVERT JUMPDEST PUSH1 0x0 PUSH1 0x5 PUSH1 0x1 PUSH2 0x100 EXP DUP2 SLOAD DUP2 PUSH1 0xFF MUL NOT AND SWAP1 DUP4 ISZERO ISZERO MUL OR SWAP1 SSTORE POP PUSH32 0xF2E5B6C72C6A4491EFD919A9F9A409F324EF0708C11EE57D410C2CB06C0992B PUSH1 0x40 MLOAD PUSH1 0x40 MLOAD DUP1 SWAP2 SUB SWAP1 LOG1 JUMP JUMPDEST PUSH1 0x0 PUSH1 0x2 PUSH1 0x0 DUP4 PUSH20 0xFFFFFFFFFFFFFFFFFFFFFFFFFFFFFFFFFFFFFFFF AND PUSH20 0xFFFFFFFFFFFFFFFFFFFFFFFFFFFFFFFFFFFFFFFF AND DUP2 MSTORE PUSH1 0x20 ADD SWAP1 DUP2 MSTORE PUSH1 0x20 ADD PUSH1 0x0 KECCAK256 SLOAD SWAP1 POP SWAP2 SWAP1 POP JUMP JUMPDEST PUSH1 0x0 PUSH2 0x1A6C CALLER DUP5 DUP5 PUSH2 0x1596 JUMP JUMPDEST DUP3 PUSH20 0xFFFFFFFFFFFFFFFFFFFFFFFFFFFFFFFFFFFFFFFF AND CALLER PUSH20 0xFFFFFFFFFFFFFFFFFFFFFFFFFFFFFFFFFFFFFFFF AND PUSH32 0x8C5BE1E5EBEC7D5BD14F71427D1E84F3DD0314C0F7B2291E5B200AC8C7C3B925 DUP5 PUSH1 0x40 MLOAD DUP1 DUP3 DUP2 MSTORE PUSH1 0x20 ADD SWAP2 POP POP PUSH1 0x40 MLOAD DUP1 SWAP2 SUB SWAP1 LOG3 PUSH1 0x1 SWAP1 POP SWAP3 SWAP2 POP POP JUMP JUMPDEST PUSH1 0x0 DUP1 DUP3 DUP5 ADD SWAP1 POP DUP4 DUP2 LT ISZERO PUSH2 0x1B59 JUMPI PUSH1 0x40 MLOAD PUSH32 0x8C379A000000000000000000000000000000000000000000000000000000000 DUP2 MSTORE PUSH1 0x4 ADD DUP1 DUP1 PUSH1 0x20 ADD DUP3 DUP2 SUB DUP3 MSTORE PUSH1 0x1B DUP2 MSTORE PUSH1 0x20 ADD DUP1 PUSH32 0x536166654D6174683A206164646974696F6E206F766572666C6F770000000000 DUP2 MSTORE POP PUSH1 0x20 ADD SWAP2 POP POP PUSH1 0x40 MLOAD DUP1 SWAP2 SUB SWAP1 REVERT JUMPDEST DUP1 SWAP2 POP POP SWAP3 SWAP2 POP POP JUMP JUMPDEST PUSH1 0x0 PUSH2 0x1B6F DUP5 CALLER PUSH2 0x1675 JUMP JUMPDEST DUP3 GT ISZERO PUSH2 0x1BE4 JUMPI PUSH1 0x40 MLOAD PUSH32 0x8C379A000000000000000000000000000000000000000000000000000000000 DUP2 MSTORE PUSH1 0x4 ADD DUP1 DUP1 PUSH1 0x20 ADD DUP3 DUP2 SUB DUP3 MSTORE PUSH1 0x20 DUP2 MSTORE PUSH1 0x20 ADD DUP1 PUSH32 0x6E6F7420656E6F75676820616C6C6F77616E636520746F207472616E73666572 DUP2 MSTORE POP PUSH1 0x20 ADD SWAP2 POP POP PUSH1 0x40 MLOAD DUP1 SWAP2 SUB SWAP1 REVERT JUMPDEST PUSH1 0x0 PUSH20 0xFFFFFFFFFFFFFFFFFFFFFFFFFFFFFFFFFFFFFFFF AND DUP4 PUSH20 0xFFFFFFFFFFFFFFFFFFFFFFFFFFFFFFFFFFFFFFFF AND EQ ISZERO PUSH2 0x1C87 JUMPI PUSH1 0x40 MLOAD PUSH32 0x8C379A000000000000000000000000000000000000000000000000000000000 DUP2 MSTORE PUSH1 0x4 ADD DUP1 DUP1 PUSH1 0x20 ADD DUP3 DUP2 SUB DUP3 MSTORE PUSH1 0x18 DUP2 MSTORE PUSH1 0x20 ADD DUP1 PUSH32 0x746F20616464726573732063616E6E6F74206265203078300000000000000000 DUP2 MSTORE POP PUSH1 0x20 ADD SWAP2 POP POP PUSH1 0x40 MLOAD DUP1 SWAP2 SUB SWAP1 REVERT JUMPDEST PUSH2 0x1C90 DUP5 PUSH2 0x1A16 JUMP JUMPDEST DUP3 GT ISZERO PUSH2 0x1D05 JUMPI PUSH1 0x40 MLOAD PUSH32 0x8C379A000000000000000000000000000000000000000000000000000000000 DUP2 MSTORE PUSH1 0x4 ADD DUP1 DUP1 PUSH1 0x20 ADD DUP3 DUP2 SUB DUP3 MSTORE PUSH1 0x1E DUP2 MSTORE PUSH1 0x20 ADD DUP1 PUSH32 0x6E6F7420656E6F7567682062616C616E636520746F207472616E736665720000 DUP2 MSTORE POP PUSH1 0x20 ADD SWAP2 POP POP PUSH1 0x40 MLOAD DUP1 SWAP2 SUB SWAP1 REVERT JUMPDEST PUSH2 0x1D10 DUP5 CALLER DUP5 PUSH2 0x1082 JUMP JUMPDEST PUSH2 0x1D1A DUP4 DUP4 PUSH2 0xB16 JUMP JUMPDEST PUSH2 0x1D24 DUP5 DUP4 PUSH2 0x12D6 JUMP JUMPDEST DUP3 PUSH20 0xFFFFFFFFFFFFFFFFFFFFFFFFFFFFFFFFFFFFFFFF AND DUP5 PUSH20 0xFFFFFFFFFFFFFFFFFFFFFFFFFFFFFFFFFFFFFFFF AND PUSH32 0xDDF252AD1BE2C89B69C2B068FC378DAA952BA7F163C4A11628F55A4DF523B3EF DUP5 PUSH1 0x40 MLOAD DUP1 DUP3 DUP2 MSTORE PUSH1 0x20 ADD SWAP2 POP POP PUSH1 0x40 MLOAD DUP1 SWAP2 SUB SWAP1 LOG3 PUSH1 0x1 SWAP1 POP SWAP4 SWAP3 POP POP POP JUMP JUMPDEST PUSH1 0x0 DUP1 SWAP1 SLOAD SWAP1 PUSH2 0x100 EXP SWAP1 DIV PUSH20 0xFFFFFFFFFFFFFFFFFFFFFFFFFFFFFFFFFFFFFFFF AND PUSH20 0xFFFFFFFFFFFFFFFFFFFFFFFFFFFFFFFFFFFFFFFF AND CALLER PUSH20 0xFFFFFFFFFFFFFFFFFFFFFFFFFFFFFFFFFFFFFFFF AND EQ PUSH2 0x1DED JUMPI PUSH1 0x0 DUP1 REVERT JUMPDEST PUSH2 0x1DF7 DUP3 DUP3 PUSH2 0x20B7 JUMP JUMPDEST POP POP JUMP JUMPDEST PUSH2 0x1E05 CALLER DUP3 PUSH2 0x2182 JUMP JUMPDEST POP JUMP JUMPDEST PUSH1 0x0 PUSH2 0x1E14 DUP3 DUP6 PUSH2 0x1675 JUMP JUMPDEST SWAP1 POP DUP1 DUP4 GT ISZERO PUSH2 0x1E2F JUMPI PUSH2 0x1E2A DUP3 DUP6 PUSH1 0x0 PUSH2 0x1596 JUMP JUMPDEST PUSH2 0x1E3B JUMP JUMPDEST PUSH2 0x1E3A DUP3 DUP6 DUP6 PUSH2 0x1596 JUMP JUMPDEST JUMPDEST DUP4 PUSH20 0xFFFFFFFFFFFFFFFFFFFFFFFFFFFFFFFFFFFFFFFF AND DUP3 PUSH20 0xFFFFFFFFFFFFFFFFFFFFFFFFFFFFFFFFFFFFFFFF AND PUSH32 0x8C5BE1E5EBEC7D5BD14F71427D1E84F3DD0314C0F7B2291E5B200AC8C7C3B925 PUSH2 0x1E94 DUP6 DUP9 PUSH2 0x1675 JUMP JUMPDEST PUSH1 0x40 MLOAD DUP1 DUP3 DUP2 MSTORE PUSH1 0x20 ADD SWAP2 POP POP PUSH1 0x40 MLOAD DUP1 SWAP2 SUB SWAP1 LOG3 POP POP POP POP JUMP JUMPDEST PUSH1 0x0 PUSH2 0x1EF1 DUP4 DUP4 PUSH1 0x40 MLOAD DUP1 PUSH1 0x40 ADD PUSH1 0x40 MSTORE DUP1 PUSH1 0x1E DUP2 MSTORE PUSH1 0x20 ADD PUSH32 0x536166654D6174683A207375627472616374696F6E206F766572666C6F770000 DUP2 MSTORE POP PUSH2 0x22CB JUMP JUMPDEST SWAP1 POP SWAP3 SWAP2 POP POP JUMP JUMPDEST PUSH1 0x0 DUP1 PUSH20 0xFFFFFFFFFFFFFFFFFFFFFFFFFFFFFFFFFFFFFFFF AND DUP4 PUSH20 0xFFFFFFFFFFFFFFFFFFFFFFFFFFFFFFFFFFFFFFFF AND EQ ISZERO PUSH2 0x1F9D JUMPI PUSH1 0x40 MLOAD PUSH32 0x8C379A000000000000000000000000000000000000000000000000000000000 DUP2 MSTORE PUSH1 0x4 ADD DUP1 DUP1 PUSH1 0x20 ADD DUP3 DUP2 SUB DUP3 MSTORE PUSH1 0x18 DUP2 MSTORE PUSH1 0x20 ADD DUP1 PUSH32 0x746F20616464726573732063616E6E6F74206265203078300000000000000000 DUP2 MSTORE POP PUSH1 0x20 ADD SWAP2 POP POP PUSH1 0x40 MLOAD DUP1 SWAP2 SUB SWAP1 REVERT JUMPDEST PUSH2 0x1FA6 CALLER PUSH2 0x1A16 JUMP JUMPDEST DUP3 GT ISZERO PUSH2 0x201B JUMPI PUSH1 0x40 MLOAD PUSH32 0x8C379A000000000000000000000000000000000000000000000000000000000 DUP2 MSTORE PUSH1 0x4 ADD DUP1 DUP1 PUSH1 0x20 ADD DUP3 DUP2 SUB DUP3 MSTORE PUSH1 0x1E DUP2 MSTORE PUSH1 0x20 ADD DUP1 PUSH32 0x6E6F7420656E6F7567682062616C616E636520746F207472616E736665720000 DUP2 MSTORE POP PUSH1 0x20 ADD SWAP2 POP POP PUSH1 0x40 MLOAD DUP1 SWAP2 SUB SWAP1 REVERT JUMPDEST PUSH2 0x2025 CALLER DUP4 PUSH2 0x12D6 JUMP JUMPDEST PUSH2 0x202F DUP4 DUP4 PUSH2 0xB16 JUMP JUMPDEST PUSH1 0x1 SWAP1 POP SWAP3 SWAP2 POP POP JUMP JUMPDEST PUSH2 0x2044 DUP2 DUP5 DUP5 PUSH2 0xD57 JUMP JUMPDEST DUP3 PUSH20 0xFFFFFFFFFFFFFFFFFFFFFFFFFFFFFFFFFFFFFFFF AND DUP2 PUSH20 0xFFFFFFFFFFFFFFFFFFFFFFFFFFFFFFFFFFFFFFFF AND PUSH32 0x8C5BE1E5EBEC7D5BD14F71427D1E84F3DD0314C0F7B2291E5B200AC8C7C3B925 PUSH2 0x209D DUP5 DUP8 PUSH2 0x1675 JUMP JUMPDEST PUSH1 0x40 MLOAD DUP1 DUP3 DUP2 MSTORE PUSH1 0x20 ADD SWAP2 POP POP PUSH1 0x40 MLOAD DUP1 SWAP2 SUB SWAP1 LOG3 POP POP POP JUMP JUMPDEST PUSH2 0x20C0 DUP2 PUSH2 0x17C3 JUMP JUMPDEST PUSH2 0x20CA DUP3 DUP3 PUSH2 0xB16 JUMP JUMPDEST DUP2 PUSH20 0xFFFFFFFFFFFFFFFFFFFFFFFFFFFFFFFFFFFFFFFF AND PUSH32 0xF6798A560793A54C3BCFE86A93CDE1E73087D944C0EA20544137D4121396885 DUP3 PUSH1 0x40 MLOAD DUP1 DUP3 DUP2 MSTORE PUSH1 0x20 ADD SWAP2 POP POP PUSH1 0x40 MLOAD DUP1 SWAP2 SUB SWAP1 LOG2 DUP2 PUSH20 0xFFFFFFFFFFFFFFFFFFFFFFFFFFFFFFFFFFFFFFFF AND PUSH1 0x0 PUSH20 0xFFFFFFFFFFFFFFFFFFFFFFFFFFFFFFFFFFFFFFFF AND PUSH32 0xDDF252AD1BE2C89B69C2B068FC378DAA952BA7F163C4A11628F55A4DF523B3EF DUP4 PUSH1 0x40 MLOAD DUP1 DUP3 DUP2 MSTORE PUSH1 0x20 ADD SWAP2 POP POP PUSH1 0x40 MLOAD DUP1 SWAP2 SUB SWAP1 LOG3 POP POP JUMP JUMPDEST PUSH2 0x218B DUP3 PUSH2 0x1A16 JUMP JUMPDEST DUP2 GT ISZERO PUSH2 0x2200 JUMPI PUSH1 0x40 MLOAD PUSH32 0x8C379A000000000000000000000000000000000000000000000000000000000 DUP2 MSTORE PUSH1 0x4 ADD DUP1 DUP1 PUSH1 0x20 ADD DUP3 DUP2 SUB DUP3 MSTORE PUSH1 0x1A DUP2 MSTORE PUSH1 0x20 ADD DUP1 PUSH32 0x6E6F7420656E6F7567682062616C616E636520746F206275726E000000000000 DUP2 MSTORE POP PUSH1 0x20 ADD SWAP2 POP POP PUSH1 0x40 MLOAD DUP1 SWAP2 SUB SWAP1 REVERT JUMPDEST PUSH2 0x220A DUP3 DUP3 PUSH2 0x12D6 JUMP JUMPDEST PUSH2 0x2213 DUP2 PUSH2 0xF0D JUMP JUMPDEST DUP2 PUSH20 0xFFFFFFFFFFFFFFFFFFFFFFFFFFFFFFFFFFFFFFFF AND PUSH32 0xCC16F5DBB4873280815C1EE09DBD06736CFFCC184412CF7A71A0FDB75D397CA5 DUP3 PUSH1 0x40 MLOAD DUP1 DUP3 DUP2 MSTORE PUSH1 0x20 ADD SWAP2 POP POP PUSH1 0x40 MLOAD DUP1 SWAP2 SUB SWAP1 LOG2 PUSH1 0x0 PUSH20 0xFFFFFFFFFFFFFFFFFFFFFFFFFFFFFFFFFFFFFFFF AND DUP3 PUSH20 0xFFFFFFFFFFFFFFFFFFFFFFFFFFFFFFFFFFFFFFFF AND PUSH32 0xDDF252AD1BE2C89B69C2B068FC378DAA952BA7F163C4A11628F55A4DF523B3EF DUP4 PUSH1 0x40 MLOAD DUP1 DUP3 DUP2 MSTORE PUSH1 0x20 ADD SWAP2 POP POP PUSH1 0x40 MLOAD DUP1 SWAP2 SUB SWAP1 LOG3 POP POP JUMP JUMPDEST PUSH1 0x0 DUP4 DUP4 GT ISZERO DUP3 SWAP1 PUSH2 0x2378 JUMPI PUSH1 0x40 MLOAD PUSH32 0x8C379A000000000000000000000000000000000000000000000000000000000 DUP2 MSTORE PUSH1 0x4 ADD DUP1 DUP1 PUSH1 0x20 ADD DUP3 DUP2 SUB DUP3 MSTORE DUP4 DUP2 DUP2 MLOAD DUP2 MSTORE PUSH1 0x20 ADD SWAP2 POP DUP1 MLOAD SWAP1 PUSH1 0x20 ADD SWAP1 DUP1 DUP4 DUP4 PUSH1 0x0 JUMPDEST DUP4 DUP2 LT ISZERO PUSH2 0x233D JUMPI DUP1 DUP3 ADD MLOAD DUP2 DUP5 ADD MSTORE PUSH1 0x20 DUP2 ADD SWAP1 POP PUSH2 0x2322 JUMP JUMPDEST POP POP POP POP SWAP1 POP SWAP1 DUP2 ADD SWAP1 PUSH1 0x1F AND DUP1 ISZERO PUSH2 0x236A JUMPI DUP1 DUP3 SUB DUP1 MLOAD PUSH1 0x1 DUP4 PUSH1 0x20 SUB PUSH2 0x100 EXP SUB NOT AND DUP2 MSTORE PUSH1 0x20 ADD SWAP2 POP JUMPDEST POP SWAP3 POP POP POP PUSH1 0x40 MLOAD DUP1 SWAP2 SUB SWAP1 REVERT JUMPDEST POP PUSH1 0x0 DUP4 DUP6 SUB SWAP1 POP DUP1 SWAP2 POP POP SWAP4 SWAP3 POP POP POP JUMP INVALID LOG2 PUSH6 0x627A7A723158 KECCAK256 0x4c 0xdb DUP16 0xcb 0x4f PUSH2 0x4E96 0x5c 0xe9 LOG0 PUSH7 0x2F2869137F583E 0xe3 SWAP6 PUSH14 0xB7A9DA04BC29D2FDC92564736F6C PUSH4 0x4300050B STOP ORIGIN "},"gasEstimates":{"creation":{"codeDepositCost":"1830400","executionCost":"83019","totalCost":"1913419"},"external":{"addAllowance(address,address,uint256)":"infinite","addBalance(address,uint256)":"infinite","addTotalSupply(uint256)":"infinite","allowance(address,address)":"788","allowanceOf(address,address)":"758","approve(address,uint256)":"23336","balanceOf(address)":"681","burn(uint256)":"infinite","claimAllowanceOwnership()":"43293","claimBalanceOwnership()":"43336","claimOwnerShip()":"43312","decreaseApproval(address,uint256)":"infinite","getBalance(address)":"728","getTotalSupply()":"458","increaseApproval(address,uint256)":"infinite","isMethodEnabled()":"592","lock()":"21618","mint(address,uint256)":"infinite","owner()":"586","pause()":"21781","paused()":"499","pendingOwner()":"564","setAllowance(address,address,uint256)":"20807","setBalance(address,uint256)":"20726","setTotalSupply(uint256)":"20600","subAllowance(address,address,uint256)":"infinite","subBalance(address,uint256)":"infinite","subTotalSupply(uint256)":"infinite","totalSupply()":"474","transfer(address,uint256)":"infinite","transferFrom(address,address,uint256)":"infinite","transferOwnership(address)":"20875","unlock()":"21598","unpause()":"21779"},"internal":{"decreaseApprovalAllArgs(address,uint256,address)":"infinite","increaseApprovalAllArgs(address,uint256,address)":"infinite"}},"methodIdentifiers":{"addAllowance(address,address,uint256)":"5fd72d16","addBalance(address,uint256)":"21e5383a","addTotalSupply(uint256)":"e468688e","allowance(address,address)":"dd62ed3e","allowanceOf(address,address)":"1a46ec82","approve(address,uint256)":"095ea7b3","balanceOf(address)":"70a08231","burn(uint256)":"42966c68","claimAllowanceOwnership()":"9b2bdc20","claimBalanceOwnership()":"8955ed7e","claimOwnerShip()":"d9dd3d36","decreaseApproval(address,uint256)":"66188463","getBalance(address)":"f8b2cb4f","getTotalSupply()":"c4e41b22","increaseApproval(address,uint256)":"d73dd623","isMethodEnabled()":"88fa2617","lock()":"f83d08ba","mint(address,uint256)":"40c10f19","owner()":"8da5cb5b","pause()":"8456cb59","paused()":"5c975abb","pendingOwner()":"e30c3978","setAllowance(address,address,uint256)":"da46098c","setBalance(address,uint256)":"e30443bc","setTotalSupply(uint256)":"f7ea7a3d","subAllowance(address,address,uint256)":"97d88cd2","subBalance(address,uint256)":"cf8eeb7e","subTotalSupply(uint256)":"82838c76","totalSupply()":"18160ddd","transfer(address,uint256)":"a9059cbb","transferFrom(address,address,uint256)":"23b872dd","transferOwnership(address)":"f2fde38b","unlock()":"a69df4b5","unpause()":"3f4ba83a"}},"userdoc":{"methods":{"allowance(address,address)":{"notice":"Implements allowance() as specified in the ERC20 standard."},"approve(address,uint256)":{"notice":"Implements ERC-20 standard approve function. Locked or disabled by default, to protect against double spend attacks. To modify allowances,clients should call safer increase/decreaseApproval methods. Upon construction, all calls to approve() will revert unless this contract owner explicitly unlocks approve()"},"getBalance(address)":{"notice":"Implements balanceOf() as specified in the ERC20 standard."},"getTotalSupply()":{"notice":"Implements totalSupply() as specified in the ERC20 standard."},"increaseApproval(address,uint256)":{"notice":"increaseApproval should be used instead of approve when the user's allowance is greater than 0. Using increaseApproval protects against potential double-spending attacks. by moving the check of whether the user has spent their allowance to the time that the transaction is mined. removing the user's ability to double-spend."},"mint(address,uint256)":{"notice":"Functions"},"transferFrom(address,address,uint256)":{"notice":"Initiates a transfer operation between address `_from` and `_to`. Requires that the message sender is an approved spender on the _from account."}}}}